:020000040800F2
:100000000838002001010008F53D0008C90100087A
:10001000F13D000845090008453F000800000000C8
:10002000000000000000000000000000F93D000892
:10003000790900080000000053010008613E000833
:100040001B0100081B0100081B0100081B01000820
:100050001B0100081B0100081B0100087D090008A6
:100060001B0100081B0100081B0100081B01000800
:100070001B0100081B010008490900085509000878
:10008000610900086D0900081B0100081B01000838
:100090001B0100081B0100081B0100081B010008D0
:1000A0001B0100081B0100081B0100081B010008C0
:1000B000393F00081B0100081B0100081B01000854
:1000C0001B0100081B0100081B0100081B010008A0
:1000D0001B0100081B0100081B0100081B01000890
:1000E0001B0100081B0100081B010008DFF80CD0F1
:1000F00000F058FB00480047F108000808380020CD
:100100000648804706480047FEE7FEE7FEE7FEE7B1
:10011000FEE7FEE7FEE7FEE7FEE7FEE7353F000805
:10012000ED000008EFF3108072B6704780F310887E
:100130007047324A1368012B04D04FF0010313605B
:100140002F4A10602F4A11602F484FF080510160F4
:100150007047EFF3108272B62848016891B14FF0F2
:10016000000101602648016829B1EFF3098121E906
:10017000F00F00680160234909680968B1E8F00FD1
:1001800081F3098882F310884EF0040E70471D49F0
:1001900008601B494FF00000086018494FF001004B
:1001A00008601A481A49D0F8002041EA02010160AB
:1001B00015484FF08051016016480068006880F3D0
:1001C000088861B662B670471EF0040F0CBFEFF3EB
:1001D0000880EFF3098020E9F00F40F804ED1EF0ED
:1001E000040F0CBF80F3088880F3098800B504F081
:1001F00071F85DF804EB4EF0040E7047FC330020FC
:10020000F0300020F830002004ED00E020ED00E0A8
:100210000000FFFF08ED00E0D2B201E000F8012B82
:10022000491EFBD270470022F6E710B513460A4676
:1002300004461946FFF7F0FF204610BD80EA010290
:1002400010B502F00043400022D04A001FD0010E3A
:1002500001EB1261C0F35600C2F3560240F40000F5
:1002600042F40002A0FB022000047F39140400D0F5
:10027000401C50EA124001D44000491EC2B20C0694
:1002800004EBD010401C4008802A02D003E000207C
:1002900010BD20F00100002900DA0020184310BD35
:1002A00030B480EA010202F0004530F0004221F053
:1002B000004013D090B1C30DD40DC2F31601C0F3AA
:1002C0001600E41A41F4000140F400027D3491422A
:1002D00001D3641C00E04900002C02DA30BC00208D
:1002E00070474FF400000023914201D3891A034361
:1002F00040084FEA4101F7D151B1914202D14FF08C
:10030000004105E002D24FF0010101E06FF0010170
:1003100003EBC450284430BC00F055B8C10F80EA4C
:10032000E0700844CA079623002100F055B89623D0
:100330000022114600F050B830B50B4601460020AF
:100340002022012409E021FA02F59D4205D303FA97
:1003500002F5491B04FA02F52844151EA2F1010218
:10036000F1DC30BD2DE9F05F0546002092469B464A
:1003700088460646814640241BE0284641464746BB
:10038000224600F036FA53465A46C01A914110D31D
:1003900011461846224600F01DFA2D1A67EB010897
:1003A0004F4622460120002100F014FA17EB000905
:1003B0004E41201EA4F10104DFDC484631462A46A6
:1003C0004346BDE8F09F0029A8BF7047401C490084
:1003D00008BF20F00100704710B4B0FA80FC00FAAA
:1003E0000CF050EA010404BF10BC704749B1CCF1D5
:1003F000200421FA04F411FA0CF118BF0121214361
:100400000843A3EB0C01CB1D4FEA00614FEA10201B
:1004100042BF002010BC704700EBC35010440029BD
:10042000A4BF10BC7047401C490008BF20F0010069
:1004300010BC70472DE9FE4F804681EA0300C00FD3
:100440000C46009021F0004123F00045B8EB02007B
:10045000A94105D24046214690461C460B4602461D
:1004600023F00040104347D0270DC7F30A00C3F321
:100470000A510290401A019040286BDAC3F313002E
:1004800040F4801B0098924620B10023D2EB030A6F
:1004900063EB0B0B01985946C0F14002504600F047
:1004A00099F906460D4650465946019A00F0B1F9B1
:1004B00010EB08006141002487EA115284EAE773D7
:1004C0001A4340D0009A62B3019A012A4FEA0752B8
:1004D00015DC001B61EB02014FF0004202EA0752FB
:1004E000CDE90042001C41F5801132462B4600F058
:1004F000B1F903B0BDE8F08F40462146F9E7001B93
:1005000061EB0201001C41F5801300185B412018CB
:10051000A2F5001747EB030140EAD570B6196D410B
:1005200011E06D084FEA360645EAC0754FEA0752FA
:10053000001B61EB0201001C41F5801149084FEAE4
:1005400030000019514132462B4603B0BDE8F04F50
:1005500000F071B90098012240000023D0EB0202A4
:1005600063EBE073009821464FEAE074B8EB0000BB
:1005700061EB0401E9E783F000435BE781F00041B0
:1005800058E72DE9FE4F81EA030404F0004421F00E
:10059000004100944FF0000B23F0004350EA0104A7
:1005A0005ED052EA03045BD0C3F30A54C1F30A5588
:1005B0002C44A4F2F3340194A0FB0254C1F31301C0
:1005C00041F48011C3F3130343F4801301FB02448D
:1005D00000FB034E840A970A44EA815447EA835792
:1005E000A4FB076802958D0A05FB07854FEA932C4B
:1005F00004FB0C542705029D4FEA065847EA1637BC
:10060000B5EB08056EEB070C870E920E47EA8117D3
:1006100042EA8312A7FB0201B6EB0B0164EB000474
:100620002B0D43EA0C335E1844EB1C50DA4651465E
:10063000E7FB0201C5F313044FEA0B3343EA1453FB
:100640004FEA0432019C43EA0603A4F10C0402942D
:10065000009CCDE900B400F0FDF803B0BDE8F08FD8
:1006600000200146F9E72DE9F04D81EA030404F08A
:10067000004B21F0004514464FF0000A23F00041E2
:1006800050EA050220D054EA01021DD0C5F30A57F2
:100690000246C5F31303C1F31300C1F30A5640F435
:1006A000801543F48013A7EB0608101BD64608F20A
:1006B000FD3873EB050002D308F1010801E0921840
:1006C0005B41B8F1000F03DA00200146BDE8F08D70
:1006D00000204FF48011064684460EE0171B73EB92
:1006E000050705D3121B63EB050306434CEA010C17
:1006F00049084FEA300092185B4150EA0107EDD1FA
:1007000052EA030012D082EA040083EA050108439A
:1007100005D0101BAB4106D20122002306E00022C7
:100720004FF0004302E06FF0010253101AEB060095
:100730004CEB085110EB0A0041EB0B01BDE8F04D0A
:1007400000F079B8C1F30A52C1F3130140F2FF334C
:1007500041F480119A4202DA00200146704740F2CB
:1007600033439A42A2F2334202DC524200F041B8D3
:1007700000F030B830B5041E71F1000404DB4FF016
:100780000044404264EB0101141E73F1000405DBD8
:100790001C464FF00043524263EB0403994208BFEA
:1007A000904230BD1CB509480090094801900546AB
:1007B000009C06E0E06840F0010394E807009847D9
:1007C0001034AC42F6D3FFF795FC00002862000815
:1007D00048620008202A04DB203A00FA02F10020D7
:1007E00070479140C2F1200320FA03F3194390406F
:1007F0007047202A04DB203A21FA02F000217047DA
:1008000021FA02F3D040C2F1200291400843194678
:100810007047202A06DBCB17203A41FA02F043EA60
:10082000E07306E041FA02F3D040C2F120029140A9
:1008300008431946704710B5141E73F1000408DA16
:10084000401C41F1000192185B411A4301D120F094
:10085000010010BD2DE9F04D92469B4611B1B1FA51
:1008600081F202E0B0FA80F220329046FFF7B2FF48
:1008700004460F4640EA0A0041EA0B0153465A4635
:10088000084313D0114653EA010019D0C8F14002C1
:100890005046FFF7AEFF05460E46504659464246C3
:1008A000FFF798FF084305D0012004E020463946B1
:1008B000BDE8F08D0020054346EAE0762C4337433F
:1008C0000A986305E40AA0EB08000022FD0A44EA46
:1008D00047540A3002D500200146E9E70105101906
:1008E0006941DDE9084500196941BDE8F04DA2E71D
:1008F00080B582B0FFF716FC03F088FC04F04EF9D7
:1009000004F01AFB04F06AFA46F20F2043F6C171B4
:100910004FF0140C4FF00A0EC0F60000C0F60001B4
:1009200000224FF48063CDE900EC04F00FFB04F0EB
:100930009BFC04F009FB04F0C3FB04F0E5FA002083
:1009400002B080BDFEE7000040F25010C2F200008D
:1009500000F01EB840F20C10C2F2000000F018B80F
:1009600040F29410C2F2000000F012B840F2D81029
:10097000C2F2000000F00CB870470000022000F046
:1009800077B90000EFF3108072B600BFFEE70000F9
:1009900010B5D0E90FCE0168DCF800300A6823FA00
:1009A0000EF35C072AD512F0040427D00A689206D9
:1009B00003D40A6822F004020A602F22C4F2020261
:1009C000914240F20402C4F202025BDD3023C4F221
:1009D0000203994272D04423C4F20203994273D0B5
:1009E0005823C4F20203994240F07A804FF48023E6
:1009F0001360C16A002940F098806FE09C0727D5FA
:100A000012F0020424D00A68920606D40A6822F082
:100A10000A020A60012280F821202F22C4F2020279
:100A2000914240F20402C4F202023BDD3023C4F2E0
:100A30000203994260D04423C4F2020399425FD07A
:100A40005823C4F20203994260D14FF4003365E0A9
:100A50001B0743D512F0080208BF10BD0A6822F038
:100A60000E020A60012101FA0EF2CCF80420816323
:100A700080F82110016B0022002980F8202054D139
:100A80002CE000BF0823C4F20203994222D01C23A9
:100A9000C4F20203994223D140231360C16A0029A2
:100AA00043D11BE00823C4F2020399422CD01C233B
:100AB000C4F20203994229D120232FE04FF480632E
:100AC0001360C16A89BB09E04FF480431360C16AB7
:100AD00059BB03E004231360C16A31BB10BD00BFE2
:100AE00002F168044FF08063A14208BF4FF4800315
:100AF0001360C16AC9B9F1E74FF400730EE000BF9B
:100B00004FF400530AE000BF022307E002F168043B
:100B10004FF00073A14208BF4FF400131360816AC5
:100B20000022002980F82020D8D0BDE810400847D6
:100B3000014600284FF0010008BF70472DE9F0433F
:100B4000D1F800C04FF6F873CBF6FD734CF6CD42EA
:100B50006344CCF6CC42A3FB02236FF0030202EA0B
:100B600093020023C4F2020301F10C08C1E90F3221
:100B70000222D1E9019E98E8F00181F82120DCF8F9
:100B8000002043F6F0739A4342EA090242EA0E0259
:100B900022432A4332433A4342EA0802CCF8002077
:100BA00000228A6381F8210081F820200020BDE81E
:100BB000F0437047B0B5044600F07AF9054640F2BC
:100BC0000000C2F200000078611C18BF044400BF9E
:100BD00000F06EF9401BA042FAD3B0BD10B5044638
:100BE00003F05CFC022C3DD140F60004C4F2010489
:100BF0002046022100F050F9C0B120460221022413
:100C000000F04AF901282DD140F24000C2F2000064
:100C100043F204410470C2F200010B68C2889B1ABF
:100C2000B3F57A7F16D9042119E000BF40F24000E5
:100C3000C2F200000121017043F20441C2F200013E
:100C40000968C18009A003F045FCBDE8104003F02D
:100C500033BC00BF0968891AC72901D80321017074
:100C60000021C180BDE8104003F026BC4B0D0A00F6
:100C700040F21441C4F201010A68024214BF086044
:100C80007047FFF7ABBF00002DE9F04F82B00E6850
:100C9000002E00F0FD8041F20042C4F20102042364
:100CA00040F2004E904208BF03234FF6FF7CC4F28F
:100CB000010E009300240123C1F2100C4FF0000A32
:100CC0004FF000094BE000BF41F20002C4F2010204
:100CD000009F904208BF022704F00C030F229A40A5
:100CE0002BEA020207FA03F34FEA9A051A4346F881
:100CF00025204E6840F20C45F202DEF8082054BF71
:100D000022EA080242EA0802C4F20105CEF80820ED
:100D10002A68B30254BF22EA080242EA08022A60A3
:100D2000B303DEF8042054BF22EA080242EA0802B4
:100D3000F303CEF80420DEF800204FF0010354BF87
:100D400022EA080242EA0802CEF800200E680AF100
:100D5000010A36FA0AF204F1040400F0998003FA59
:100D60000AFB16EA0B08F1D04E68664512DC122E1B
:100D700056D8DFE806F0350B4D49555555555555B4
:100D80005555555555555545510000BFD1F80C9056
:100D900046E000BF4FF6FF72C1F2210296420FDC1F
:100DA0000022C1F2110296421AD00022C1F21202B0
:100DB000964215D00022C1F22102964210D02FE0B7
:100DC0000022C1F2220296420AD00022C1F2310270
:100DD000964205D00022C1F23202964220D100BFD5
:100DE0008A684AB1012A14BFC0F814B0C0F810B024
:100DF0004FF0080914E000BF4FF0040910E000BFF5
:100E0000CA6802F104090BE04FF0000908E000BFD6
:100E1000CA6802F1080903E0CA6802F10C0900BFC0
:100E200002462646B8F5807F24BF0432203E17686C
:100E30000F25B54027EA050509FA06F63543156082
:100E4000CA79D2067FF582AF41F21803C4F20203D9
:100E50001A68AEF57E7642F001021A601A6802F056
:100E600001020192019A2AF0030256F802B040F6FC
:100E70000002C4F20102904208D040F60042C4F2DF
:100E8000010290427FF420AF012725E7002723E7E6
:100E900002B0BDE8F08F00008068084018BF012054
:100EA00070470000002A08BF090401617047000074
:100EB00043F20440C2F2000000687047002804BFFB
:100EC00001207047F0B581B0044690F83D0028B984
:100ED000002084F83C00204600F002FC242084F826
:100EE0003D002068016821F001010160016841F4C2
:100EF00000410160016821F40041016000F048FEFA
:100F0000636848F2A16CC0F2010C40F60011C0F217
:100F10003D0163453CBF48F28041C0F21E0188425A
:100F200002D2012001B0F0BD4DF68361C4F21B3145
:100F3000A0FB01122168970CD1F804E04FF49676DB
:100F40002EF03F0545EA92454D60774348F6381646
:100F50000D6AC0F24106A7FB067625F03F07634500
:100F600038BF960C721C3A430A62CA6948F2A066FE
:100F70004CF6FF77C0F20106B34222EA07020BD813
:100F800001385B00B0FBF3F001306FF31F30042831
:100F900098BF04201BE000BFA768013857B119278C
:100FA0007B43B0FBF3F001306FF31F3070B100F5FD
:100FB000804007E003EB4303B0FBF3F001306FF335
:100FC0001F3018B100F5004001E000BF01201043C0
:100FD000C8610868D4E9072320F0C0001043184313
:100FE0000860886848F2FF3204F10C0790438CCF08
:100FF00018431043A6698860C86820F0FF00384392
:101000003043C860086840F00100086000202021DB
:10101000206484F83D10206384F83E0001B0F0BDE8
:101020002DE9F04F83B01E46924688460446FFF7EE
:101030003FFF94F83D10202924D12168054600BFC8
:10104000886980071AD5FFF733FF401B21681A28EB
:10105000F6D388698007F3D500202021206384F827
:101060003D1084F83E00216C41F02001216484F899
:101070003C00022003B0BDE8F08F00BF94F83C00B4
:10108000012803D1022003B0BDE8F08F4FF0010921
:1010900084F83C900868C00703D1086840F001005C
:1010A00008600868002720F400600860242084F8A5
:1010B0003D000020CFF6FF702764E06208F0FE08D4
:1010C000BAF1010F88BFD1464FF0A00A4FF0200BB4
:1010D00004E000BF01374F4500F0A28008680022FD
:1010E00040F48070086020464FF0011133460095AF
:1010F00002F0CAF82168002856D1C1F81080FFF725
:10110000D7FE21684B694A6994F83D50A02D0546E9
:1011100005D013F0020008BF12F480601AD084F8E2
:101120003DB048690A68800742F400720A6045D4FD
:101130006FF48060486100BF88698007CAD5FFF7F7
:10114000B7FE401B21681A28F6D388698007F3D5BB
:101150004AE000BFB6B100BFFFF7AAFE401BB04295
:1011600088BF84F83DA021684A69486994F83D30F9
:10117000A02BD4D012F0020208BF10F48060EBD094
:10118000CDE700BFFFF794FE84F83DA021684A69CF
:10119000486994F83D30A02BC1D012F00202BED1B4
:1011A00010F48060EED0BAE70868C00544BF4FF481
:1011B00000702064032003B0BDE8F08F002002908F
:1011C00048690290886902900298886901E000BF2E
:1011D000806980071AD5FFF76BFE411B20681A292A
:1011E000F6D381698907F3D500202021206384F894
:1011F0003D1084F83E00216C41F02001216484F808
:101200003C00012003B0BDE8F08F00BF202084F82F
:101210003D00002084F83C0003B0BDE8F08F00BF23
:10122000202084F83D00002084F83C00012003B019
:10123000BDE8F08F2DE9F04F85B0044600209946B7
:1012400016460F460490FFF733FE94F83D10202910
:1012500027D10546206800BF816989071CD5FFF7A3
:1012600027FE411B20681A29F6D381698907F3D527
:1012700000202021206384F83D1084F83E00206C7B
:1012800004F13C0A40F020002064022000218AF88A
:10129000001005B0BDE8F08FA2461AF83C1F0129E6
:1012A00004D1022005B0BDE8F08F00BF01228AF80A
:1012B00000200368DDE90F180E9ADB0703D10368ED
:1012C00043F001030360036823F4006303602220FA
:1012D00084F83D00402084F83E00002020646262D3
:1012E0006185608D394620850020CFF6FF70E06271
:1012F000204632464B46CDE9008501F079FE18B113
:10130000012005B0BDE8F08F208D022826D00128ED
:101310000ED0002838D10020039020684169039145
:10132000816903910399016841F40071016037E01C
:101330002068016821F480610160EFF3108072B6CB
:10134000002003902068416903918169039103990A
:10135000016841F40071016062B621E02068016813
:1013600041F400610160EFF3108072B60020039039
:10137000206841690391816903910399016821F40F
:101380008061016062B60BE02068016841F4806111
:1013900001600021039141690391806903900398E2
:1013A000208D002800F0CE80042740F208094BF27F
:1013B000895BC0F20107C2F20009C1F2F84B232693
:1013C0000EE000BF10690870606A218D0130606214
:1013D000481E2085618D01396185010400F0B280CD
:1013E00080B203280CD802282CD001284AD12046EC
:1013F00041462A4602F09AF8002800F09F807FE7D5
:10140000204641462A4602F091F800287FF478AF42
:101410002068616A00690870606A2268411C208D3A
:10142000616201382085638D013B638553695B07E9
:10143000D3D580B20328C5D1106820F48060106035
:10144000C0E700BF2046394600224346009501F020
:101450001BFF00287FF454AFEFF3108072B62068B2
:10146000616A026842F40072026000690870606A92
:10147000218D01306062481E2085608D01386085B5
:1014800062B65BE02046394600224346009501F0F3
:10149000FBFE00287FF434AF2068016821F48061EE
:1014A0000160EFF3108072B62068616A006908700D
:1014B000606A218D0130013960622185618D0139B9
:1014C0006185D9F80010C908A1FB0B12110A7143FC
:1014D0000491049901390491049900293ED02168AE
:1014E0004A6952071AD40499013904910499A9B39D
:1014F00021684A69520711D4049901390491049969
:1015000061B321684A69520708D4049901390491EA
:10151000049919B321684A695207DAD50A6842F476
:1015200000720A6009690170606A218D0130606291
:10153000481E2085608D0138608562B62068616A2A
:10154000006940E7202084F83D00002084F83E0038
:1015500000218AF8001005B0BDE8F08F002020219E
:10156000206384F83D1084F83E00206C40F0200099
:10157000206462B6012000218AF8001005B0BDE8A1
:10158000F08F00002DE9F04383B0994616460F46D0
:101590000446FFF78DFC94F83D10202924D1054620
:1015A000206800BF816989071AD5FFF781FC411BBC
:1015B00020681A29F6D381698907F3D500202021F4
:1015C000206384F83D1084F83E00216C41F0200136
:1015D000216484F83C00022003B0BDE8F08300BF22
:1015E00094F83C10012903D1022003B0BDE8F08338
:1015F000012284F83C200368DDE90B180A9ADB0716
:1016000003D1036843F001030360036823F400631C
:101610000360212084F83D00402084F83E00002033
:10162000206462626185608D394620850020CFF696
:10163000FF70E062204632464B46CDE9008501F05E
:1016400061FD18B1012003B0BDE8F083208D98B989
:10165000204641462A4601F0B9FD88B3206C042893
:10166000F0D12068016841F400710160012003B0ED
:10167000BDE8F0830004EBD0204641462A4601F045
:101680009DFF0028EAD1616A2268084610F8013BF4
:101690001361238D6062581E2085678D013F678529
:1016A00057697F07E6D50704E4D048781061881CA5
:1016B0006062981E2085618D01396185DAE700BF7F
:1016C0002068016841F400710160202084F83D0029
:1016D000002084F83E0084F83C0003B0BDE8F083AD
:1016E00010B586B0006845F60001C4F200018842DA
:1016F0004FF00001CDE90411CDE9021132D045F2DD
:101700000041C4F20001884250D141F21804C4F2F1
:101710000204206802A940F008002060206800F060
:101720000800019001984FF440700290122003903D
:101730000320059040F60040C4F20100FFF7A4FA30
:101740000420C4F20100016841F0E06141F00201AF
:101750000160606840F400106060606800F4001090
:1017600022E000BF41F21804C4F20204206802A97A
:1017700040F008002060206800F008000190019807
:101780004FF440600290122003900320059040F631
:101790000040C4F20100FFF777FA606840F480006F
:1017A0006060606800F480000190019806B010BD90
:1017B00040F2000043F20441C2F20000C2F2000114
:1017C00000780A68104408607047000080B542F253
:1017D0000000C4F20200016841F010010160032022
:1017E00000F0C0F80F2000F005F800F05BF80020D2
:1017F00080BD0000B0B586B041F21C01C4F2020108
:101800000A68044642F001020A60096801A801F072
:10181000010101910199694600F092F9049D002DA2
:1018200018BF012500F0B4F94DF68361A840C4F259
:101830001B31A0FB01014FF0FF3000EB914140F262
:101840000C30C2F200004FF0804240F2E733002536
:10185000C0E90021C0E902530561856100F040FC48
:1018600010B106B0B0BD00BF40F20C30C2F20000B3
:1018700000F012FD0028F4D11C2000F035F80F2CE8
:101880000CD81C202146002200F040F840F2040150
:101890000020C2F200010C6006B0B0BD012006B00D
:1018A000B0BD000082B041F21800C4F2020001682D
:1018B000022241F001010160016801F00101019182
:1018C0000199416841F080514160406800F08050CA
:1018D000009000980420C4F20100016862F31A61CC
:1018E000016002B070470000002848BF704700F058
:1018F0001F01012202FA01F11C2202EAD0004EF27D
:101900000012CEF2000281507047000010B54EF672
:101910000C5CCEF2000CDCF80030C3F3022E8EF02B
:101920000704042C28BF0424BEF103034FF0FF3E3C
:101930000EFA04F438BF0023A14399400EFA03F3D2
:101940009A43114300F00F0200F160430901043A89
:1019500003F564436244002848BF02F10C03197088
:1019600010BD00004EF60C51CEF200010A684FF691
:10197000FF031A4060F30A2242F0806040F0FD70DD
:1019800008607047002804BF012070472DE9F0432C
:1019900081B042F20008C4F202080446D8F8000000
:1019A0000D4600F0070088420CD2D8F8000020F065
:1019B00007002843C8F80000D8F8000000F007002E
:1019C000A8426CD1206841F204098107C4F20209DF
:1019D00017D5410705D5D9F8001041F4E061C9F8E1
:1019E0000010010705D5D9F8001041F46051C9F87D
:1019F0000010D9F80010A26821F0F0011143C9F8D5
:101A00000010C00742D1D8F8000000F00700A8423B
:101A10000CD9D8F8000020F007002843C8F80000CF
:101A2000D8F8000000F00700A84238D1206841072C
:101A300007D5D9F80010E26821F4E0611143C9F834
:101A40000010000708D5D9F80000216920F4605083
:101A500040EAC100C9F80000D9F8002002F00C00EB
:101A6000082841F20020C0F27A004DD146F27A13E4
:101A7000C2F38341C0F60003595CD20338D440F668
:101A80000010C0F23D0048433EE000BF606859F8D6
:101A9000041C022808D0012826D1890306D401207D
:101AA00001B0BDE8F08300BF8901F8D5D9F8001076
:101AB00021F003010843C9F80000FFF7F9F90646D1
:101AC00041F28837D9F80000616800F00C00B0EBF3
:101AD000810F98D0FFF7ECF9801BB842F2D90320B0
:101AE00001B0BDE8F08300BF8907D8D5DEE700BFAD
:101AF000D9F8002046F27803C2F34042C0F6000352
:101B00009A5C4843B0FBF2F0D9F8001046F260024C
:101B1000C1F30311C0F60002515C40F2080220FA42
:101B200001F140F20400C2F200000068C2F20002BB
:101B30001160FFF75FFE002001B0BDE8F0830000F8
:101B40000F22026041F20402C4F20202136803F0A1
:101B500003034360136803F0F0038360136803F426
:101B6000E063C36012684FF4E06303EAD2020261EB
:101B700042F20000C4F20200006800F007000860B2
:101B80007047000040F20800C2F200000068704791
:101B900040F2080041F20401C2F20000C4F2020166
:101BA0000068096846F27002C1F30221C0F6000223
:101BB000515CC8407047000040F2080041F2040147
:101BC000C2F20000C4F202010068096846F2700225
:101BD000C1F3C221C0F60002515CC840704700004A
:101BE000002804BF012070472DE9F04182B004466F
:101BF000007841F20006C007C4F202060CD07068FB
:101C000000F00C00042840F081803068800303D588
:101C10006068002800F04681207880071BD5706836
:101C200010F00C0F09D0706800F00C00082840F08C
:101C300087807068C00300F183803068800703D517
:101C40002069012840F02E813068616920F0F80099
:101C500040EAC10030602078000713D420784007A4
:101C60002CD4E569002D00F01881706800F00C009C
:101C7000082840F0A780012D40F00481012002B027
:101C8000BDE8F081A069002800F084800020C4F243
:101C900042200121C0F88014FFF70AF9054600BF71
:101CA000706A800700F1B280FFF702F9401B02283A
:101CB000F6D9032002B0BDE8F08100BFF0695FEA09
:101CC000C00808D4F06940F08050F061F06900F07D
:101CD00080500090009847F20007C4F2000738686F
:101CE000C00549D4386840F480703860FFF7E0F8E8
:101CF000054600BF3868C0053ED4FFF7D9F8401B41
:101D00006428F7D9032002B0BDE8F081706800F0C4
:101D10000C00082803D17068C0033FF576AF6168F6
:101D20003068002900F00C81B1F5A02F00F000818F
:101D3000B1F5803F40F01A8140F480301CE100BFD3
:101D40002069002840F20000C4F2422000F08880A0
:101D500001210160FFF7ACF8054600BF306880073D
:101D60003FF572AFFFF7A4F8401B0228F6D9032015
:101D700002B0BDE8F08100BFE168306A002900F0E0
:101D80009D80052900F09280012940F0AF8040F04D
:101D90000100B1E00020C4F242200021C0F880140C
:101DA000FFF786F8054600BF706A80077FF556AFDB
:101DB000FFF77EF8401B0228F6D9032002B0BDE8E9
:101DC000F08100BF0027C4F2422700203866FFF7E9
:101DD0006FF8022D05460DD13068800140F1DE809C
:101DE000FFF766F8401B02284FF00300F4D902B059
:101DF000BDE8F081306880014FD5FFF759F8401BEE
:101E000002284FF00300F5D9F1E700BF40F20800C7
:101E1000C2F20000006844F6D351C1F26201A0FB97
:101E20000101480A019000BF00BF0198411E00282F
:101E300001913FF413AF00BF0198411E00280191AA
:101E40003FF40CAF00BF0198411E002801913FF400
:101E500005AF00BF0198411E00280191E4D1FDE6C5
:101E600000210160FFF724F8054600BF30688007B5
:101E70007FF5F1AEFFF71CF8401B02284FF003007E
:101E8000F4D9B4E77068216A00F480328A4209D13B
:101E9000616A00F47010884204D1002002B0BDE8ED
:101EA000F08100BF012002B0BDE8F08140F00400E5
:101EB0003062306A40F001001EE000BF20F00100F7
:101EC0003062306A20F004003062FEF7F1FF054610
:101ED00041F28837306A800720D5FEF7E9FF401BC2
:101EE000B8424FF00300F5D981E700BF20F00100B0
:101EF0003062306A20F004003062FEF7D9FF0546F8
:101F000041F28837306A800708D4FEF7D1FF401BC2
:101F1000B842F7D9032002B0BDE8F081B8F1000F54
:101F20003FF59FAEF06920F08050F06199E600BF68
:101F300040F480203060306840F480301CE000BF06
:101F400020F480303060306820F480203060FEF76C
:101F5000AFFF0546306880037FF55EAEFEF7A8FF51
:101F6000401B64284FF00300F4D940E720F4803090
:101F70003060306820F480203060FEF799FF05461D
:101F8000306880033FF548AEFEF792FF401B64289F
:101F9000F6D9032002B0BDE8F08100BF206AB0F599
:101FA000803F05D17168A26821F40031114371604E
:101FB0007168626A21F47411114308437060012052
:101FC0003866FEF775FF0446306880013FF565AF5F
:101FD000FEF76EFF001B02284FF00300F4D906E75E
:101FE000411E0020B0EB116F1CBF012070474EF264
:101FF0001002CEF2000251604EF62351CEF20001E3
:10200000F0230B700721906011607047704700004B
:102010007047000090F83C20012A04BF022070475E
:10202000B0B501F108053CCDD1E900CE23F47C53D5
:1020300022F470521A432EF4F0431A432CF4E04376
:102040001A4324F4C0431A432A43C96922F4804244
:10205000036811435964002180F83C100020B0BD92
:1020600090F83C20012A4FF0020236D010B580F8DB
:102070003D200268D2F804E0D2F808C00C682EF0C7
:102080007003234340F2FF74C4F20004A242536081
:102090000ADCB2F1804F13D040F20043C4F20003D7
:1020A0009A420DD011E000BF42F60043C4F2010392
:1020B0009A4205D040F60003C4F200039A4204D1CC
:1020C00049682CF08003194391600121002280F8B7
:1020D0003D1080F83C20BDE81040104670470000DD
:1020E000002804BF0120704710B590F83D1031B9A9
:1020F000002180F83C10044600F070F820460221D0
:1021000080F83D10016840F2FF740B68C4F20004CF
:1021100042F6004CA142C4F2010C15DCB1F1804F33
:102120001AD040F20042C4F20002914214D0A142FF
:1021300018DCB1F1804F1DD040F20042C4F2000221
:10214000914217D01AE000BF614505D040F6000269
:10215000C4F200029142EAD1826823F07003134373
:10216000A142E6DD614505D040F60002C4F200025E
:10217000914203D1026923F440731343846923F02D
:102180008002D0F804E0C368224361450A60CB6254
:10219000C1F828E002D14269CCF8302001224A611E
:1021A0000B69DB0703D00B6923F001030B6180F897
:1021B000462080F83E2080F83F2080F8402080F8BC
:1021C000412080F8422080F8432080F8442080F8A5
:1021D000452080F83D20002010BD000070B586B07D
:1021E000006840F60001C4F2000188424FF000018F
:1021F000CDE90411CDE902113ED040F20041C4F214
:102200000001884245D141F21800C4F20200416841
:1022100040F6000441F0020141604168C4F201044B
:1022200001F0020101910199016802AD41F0040140
:1022300001600168002601F0040101910199016823
:1022400041F0080101600068294600F00800019093
:102250000198C02002902046CDE90366FEF714FDE8
:102260000320CDE9020604F5806029460496FEF7B6
:102270000BFD06B070BD00BF41F21800C4F20200B1
:10228000416841F004014160406800F004000190A1
:10229000019806B070BD000090F83D1001291CBFE8
:1022A00001207047022180F83D10006840F2FF7263
:1022B000C168C4F20002904241F00101C16009DC32
:1022C000B0F1804F12D040F20041C4F200018842C8
:1022D0000CD012E042F60041C4F20101884205D060
:1022E00040F60001C4F20001884206D1816801F085
:1022F0000701062904BF00207047016841F0010171
:10230000016000207047000090F83C20012A4FF047
:1023100002026CD080B580F83D20D0F800C04FF6A6
:102320007772DCF8083023EA0202CCF808200B6848
:102330004F2B29DC1F2B45DD202B46D0302B44D0E2
:10234000402B40F0AF80D1F804E0C968DCF82030C1
:10235000DCF8202022F00102CCF82020DCF8182044
:1023600022F0F00242EA011123F00A0242EA0E02D0
:10237000CCF81810CCF82020DCF8081041F0470108
:1023800021F0300128E000BF6F2B33DDB3F5005F93
:1023900074D0B3F5805F21D0702B40F08380D1E9F9
:1023A00001E3C968DCF8082043EA0E0322F47F4207
:1023B00043EA01211143CCF80810DCF8081041F081
:1023C000770109E00BB1102B6CD1DCF8081021F07B
:1023D0007001194341F00701CCF8081000220121D7
:1023E00080F83D10002180F83C10BDE88040104688
:1023F000704700BF502B21D0602B53D1D1F804E09F
:10240000C968DCF82030DCF8202022F01002CCF87B
:102410002020DCF8182022F4704242EA013123F037
:10242000A00242EA0E12CCF81810CCF82020DCF8FA
:10243000081041F0670121F01001CDE7D1F804E068
:10244000C968DCF82030DCF8202022F00102CCF84A
:102450002020DCF8182022F0F00242EA011123F0DB
:102460000A0242EA0E02CCF81810CCF82020DCF860
:10247000081041F0570121F02001ADE7D1E901E357
:10248000C968DCF8082043EA0E0322F47F4243EADD
:1024900001211143CCF80810DCF8081041F4804108
:1024A0009AE700BF01229AE77047000090F83C309D
:1024B000012B04BF022070474FEAB202032A00F248
:1024C0008580F0B5DFE802F0025C203E0368D1E9C8
:1024D00000C5D1F80CE01C6A1A6A40F2FF7722F0BE
:1024E00001021A621A4652F8186FC4F20007BB4282
:1024F00072DCB3F1804F7BD040F20047C4F200079A
:10250000BB4275D090E000BF0768D1E900C5D1E9B2
:1025100002313C6A3A6A61F3071522F480723A622A
:102520003A4652F81C6F26F0F30645EA06014FEAD8
:102530005C0666F3492411603C62116821F00C01CD
:10254000116066E00368D1E900E6D1E902C11C6AC6
:102550001A6A360222F480521A621A4652F81C5F36
:102560004FF2FF07BE4325F4734561F30F364FEA80
:102570005E0746EA050167F34D3411601C621EE0F8
:102580000368D1E900E6D1E902C11C6A1A6A360281
:1025900022F010021A621A4652F8185F4FF2FF0733
:1025A000BE4325F4734561F30F3624F0A0040EF00A
:1025B0000A0746EA050144EA071711601F6211681D
:1025C0004FEA0C2321F44061116022E00121002236
:1025D00080F83C200846704742F60047C4F20107E5
:1025E000BB4205D040F60007C4F20007BB421BD136
:1025F00026F00306354324F00A070CF00A066EF3B2
:10260000071537449D611F629F6927F00C079F6182
:102610008B681168194311600021BDE8F040002269
:1026200080F83C200846704746F00105E3E70000CB
:10263000002804BF0120704710B590F83D1031B953
:10264000002180F83C10044600F070F8204602217A
:1026500080F83D10016840F2FF740B68C4F200047A
:1026600042F6004CA142C4F2010C15DCB1F1804FDE
:102670001AD040F20042C4F20002914214D0A142AA
:1026800018DCB1F1804F1DD040F20042C4F20002CC
:10269000914217D01AE000BF614505D040F6000214
:1026A000C4F200029142EAD1826823F0700313431E
:1026B000A142E6DD614505D040F60002C4F2000209
:1026C000914203D1026923F440731343846923F0D8
:1026D0008002D0F804E0C368224361450A60CB62FF
:1026E000C1F828E002D14269CCF8302001224A61C9
:1026F0000B69DB0703D00B6923F001030B6180F842
:10270000462080F83E2080F83F2080F8402080F866
:10271000412080F8422080F8432080F8442080F84F
:10272000452080F83D20002010BD000070470000CB
:1027300070B504460068C5680669B10716D515F07E
:10274000020113D06FF0020101610121217780693C
:10275000800703D02046FFF7A7FE05E0204600F0E3
:102760008FF8204600F026FA00202077700719D550
:1027700015F0040016D020686FF0040101610221F9
:102780002177806910F4407F04D02046FFF78CFE4B
:1027900006E000BF204600F073F8204600F00AFA79
:1027A00000202077300717D515F0080014D02068D6
:1027B0006FF00801016104212177C069800703D00F
:1027C0002046FFF771FE05E0204600F059F820464C
:1027D00000F0F0F900202077F00619D515F0100070
:1027E00016D020686FF01001016108212177C069BF
:1027F00010F4407F04D02046FFF756FE06E000BFED
:10280000204600F03DF8204600F0D4F90020207763
:10281000F00718BF15F0010002D1300609D412E00C
:1028200020686FF001010161204600F0C5F9300613
:1028300009D515F0800006D020686FF08001016195
:102840002046FFF7E3FB700609D515F0400006D0DF
:1028500020686FF040010161204600F0B5F9B00634
:1028600058BF70BD15F0200008D021686FF020021D
:1028700020460A61BDE87040FFF7CABB70BD00008A
:102880007047000090F83C30012B04BF02207047D5
:102890004FEAB202032A00F2F1802DE9F043DFE8AB
:1028A00002F003A53B7500BF036842F600461D6AAF
:1028B0001A6AC4F2010622F001021A621A465C6822
:1028C00052F818CFB3428E68D1F800E025F0020527
:1028D00045EA06050CD1CE68D1E9057824F44074A8
:1028E00025F00C0526F004063C43354344EA080471
:1028F0002CF0730747EA0E075C609F614F68096917
:102900005F631D629F6947F008079F619F6927F019
:1029100004079F61A6E000BF036842F600461D6AF7
:102920001A6AC4F2010622F480721A621A46D3F8B7
:1029300004C052F81CEFB3428E680C6825F4007591
:1029400045EA06250FD1CE68D1E90598360240F256
:10295000FF4725F44065BE4335432CF4405748EA11
:10296000090647EA061C2EF073072743C3F804C084
:10297000DF614F680969DF631D62DF6947F008079F
:10298000DF61DF6927F00407DF616BE0036842F66F
:102990000047D3F820C01A6AC4F2010722F480521B
:1029A0001A621A465C6852F81C5FD1F800E08E6823
:1029B000BB4204D14F6924F4804444EA87142CF4C8
:1029C000005747EA063725F4E64646EA0E265C60DD
:1029D000DE614E6809691E641F62DF6947F40067A3
:1029E000DF61DF6927F48067DF613AE0036842F660
:1029F00000461D6A1A6AC4F2010622F010021A6229
:102A00001A46D3F804C052F8184FB3428E68D1F872
:102A100000E025F0200545EA06150FD1CE68D1E982
:102A200005986FF0400725F0C00507EA0616354304
:102A30002CF4406748EA090647EA860C24F4E64489
:102A400044EA0E27C3F804C09F614F6809699F6379
:102A50001D629F6947F400679F619F6927F4806743
:102A60009F6109021368194311600021BDE8F0431A
:102A7000002280F83C200846704700BF0121002258
:102A800080F83C2008467047002804BF01207047AA
:102A900010B590F83D1031B9002180F83C10044683
:102AA00000F070F82046022180F83D10016840F2E5
:102AB000FF740B68C4F2000442F6004CA142C4F259
:102AC000010C15DCB1F1804F1AD040F20042C4F283
:102AD0000002914214D0A14218DCB1F1804F1DD008
:102AE00040F20042C4F20002914217D01AE000BF47
:102AF000614505D040F60002C4F200029142EAD1DD
:102B0000826823F070031343A142E6DD614505D0DE
:102B100040F60002C4F20002914203D1026923F49C
:102B200040731343846923F08002D0F804E0C36843
:102B3000224361450A60CB62C1F828E002D14269B4
:102B4000CCF8302001224A610B69DB0703D00B6906
:102B500023F001030B6180F8462080F83E2080F8C6
:102B60003F2080F8402080F8412080F8422080F803
:102B7000432080F8442080F8452080F83D20002044
:102B800010BD0000006842F60041C4F20101884215
:102B900018BF704781B041F21800C4F2020001680A
:102BA00041F400610160006800F40060009000984A
:102BB00001B07047704700000068B0F1804F18BF47
:102BC0007047FEF7F5BD000070470000002804BF05
:102BD0000120704710B5044690F8410028B9002044
:102BE00084F84000204600F063F8242084F8410077
:102BF0002068D4E90212C36823F40053C360036958
:102C000023F440531A430261D4E904231143C268F8
:102C1000194341F20C639A431143C1604169A269AF
:102C200021F44071114343F60002C4F201029042C4
:102C3000416103D0FEF7ACFF02E000BFFEF7BCFF2E
:102C4000D4E90023192148439900B0FBF1F048F280
:102C50001F5CC5F2EB1CA0FB0C314FF69C734909BD
:102C6000C0F6FF7301FB0300322303EB0010A0FB4F
:102C70000C03F02000EA531000EB0110C3F34311E2
:102C8000084490601069202120F490401061506940
:102C900020F02A005061D06840F40050D06000203D
:102CA000606484F8411084F84210606310BD000035
:102CB0002DE9F04186B00446006844F20041C4F2B8
:102CC0000001002788420597CDE90377029761D07C
:102CD00043F60001C4F20101884240F0BB8041F29A
:102CE0001800C4F20200016840F6000541F480417A
:102CF00001600168C4F2010501F48041019101996C
:102D0000016802AE41F004010160006840F244082D
:102D100000F00400019001984FF40070029002202E
:102D200003900320059028463146C4F20208FDF7BF
:102D3000ABFF4FF480600290002728463146CDE972
:102D40000377FDF7A1FF40F20C1508F11400C2F261
:102D500000058026C5E900072846C5E90276C5E9D1
:102D60000477C5E90677FDF7E3FE002818BFFDF7F5
:102D700009FEE5636C6240F25015C2F200051020B6
:102D8000C5E90080C5E90276C5E90477C5E906779B
:102D900057E000BF41F21800C4F20200416840F65B
:102DA000000541F4003141604168C4F2010501F4BD
:102DB000003101910199016802AE41F00401016006
:102DC000006840F2440800F00400019001980420DB
:102DD0000290022003900320059028463146C4F259
:102DE0000208FDF751FF0820CDE9020728463146C9
:102DF0000497FDF749FF40F2941508F12800C2F24C
:102E000000058026C5E900072846C5E90276C5E920
:102E10000477C5E90677FDF78BFE002818BFFDF79C
:102E2000B1FDE5636C6240F2D81508F13C00C2F2D6
:102E300000050022102185E84700C5E90422C5E904
:102E400006222846FDF774FE002818BFFDF79AFDFC
:102E5000A5636C6206B0BDE8F08100002DE9F04387
:102E600081B0044690F84100202809D100294FF094
:102E7000010018BF002A07D101B0BDE8F08300BFF0
:102E8000022001B0BDE8F0830020606421201D46CF
:102E90000E4684F841001746FEF70AF8A784E78437
:102EA000A1688146B1F5805F02D1206900285DD01C
:102EB00037460020E28C2168002A5DD06A1C24D0AD
:102EC000002D4AD0804600BF0868000608D4FDF7F0
:102ED000EFFFA0EB0900A8427AD82168C868F3E7A1
:102EE00017B117F8010B04E038F8020B00276FF355
:102EF0005F204860E08C0138E084E08C0028E3D15A
:102F00003AE000BF0A68120609D40A68120606D41D
:102F10000A6812065CBF0A685FEA0262F2D51FB156
:102F200017F8012B05E000BF30F8022B00276FF3E4
:102F30005F224A60E28C013AE284E28C002AE4D10A
:102F40001AE000BF30F8022B00276FF35F224A60BF
:102F5000E28C013AE284E28C72B10A68120635D53D
:102F6000002FEFD017F8012BF1E700BF0027304604
:102F7000E28C2168002AA1D1086840061ED42DB336
:102F8000681C14D1086840062AD40868400627D473
:102F90000868400624D4086840064FF00000F1D5C8
:102FA0000DE000BF2068C1680068400618D4FDF736
:102FB0007FFFA0EB0900A842F4D909E000202021FE
:102FC00084F8411001B0BDE8F08300BFFDF770FF49
:102FD0000320202184F8411001B0BDE8F08300BF38
:102FE0000020202184F8411001B0BDE8F0830000EA
:102FF0002DE9F04782B0044600689A460B9D0A9E70
:103000000368914643F48062026002680F4642F40E
:103010008071016020464FF0011100223346009577
:1030200000F032F950B120680068C00544BF4FF489
:1030300000702064032002B0BDE8F08740F202086F
:103040002068C0F2010807F0FE07076120464146EC
:1030500032462B4600F0FEF920B1012002B0BDE857
:10306000F08700BF0020019020682A464169019145
:103070008069314601900198204600F09FFAB0B96E
:103080002068BAF1010F09D04FEA192101612046E9
:1030900031462A4600F092FA48B920685FFA89F171
:1030A0000161204631462A4600F088FA60B1206C62
:1030B0000428D2D12068016841F400710160012028
:1030C00002B0BDE8F08700BF2068002201683346E7
:1030D00041F48071016020464FF00111009500F02D
:1030E000D3F800289FD147F0010C276820464146BD
:1030F00032462B46C7F810C002B0BDE8F04700F0DA
:10310000A9B900002DE9F04383B0044600680F46DA
:1031100001680A9D0B9E41F48071994690460160BA
:1031200020464FF0011100222B46009600F0ACF82B
:1031300050B120680068C00544BF4FF4007020649F
:10314000032003B0BDE8F083206807F0FE010161B1
:103150000221C0F2010120462A46334600F07AF9E6
:1031600020B1012003B0BDE8F08300BF0020029031
:10317000206832464169029180692946029002988E
:10318000204600F01BFA58B1206C0428E9D12068D1
:10319000016841F400710160012003B0BDE8F083D3
:1031A0002068B9F1010F0AD04FEA182101612046C9
:1031B0002946324600F002FA0028E5D120685FFA7D
:1031C00088F10161002003B0BDE8F08370B50368A9
:1031D000044653F8140F400711D40E46481C29D05A
:1031E00086BB00BF1868400527D4FDF761FE236841
:1031F00053F8140F400737D518684007F2D5002060
:1032000070BD00BF18684007F9D41868400514D491
:1032100018684007F3D4186840050ED418684007B2
:10322000EDD41868400508D4186840074FF0000036
:1032300048BF70BD18684005E4D56FF48060186021
:10324000042012E0154603E053F8140F4007D6D4CB
:1032500018684005F1D4FDF72BFE401B2368B042EF
:10326000F2D958694007EFD42020002120222163A1
:1032700084F83D2084F83E10226C10432064012025
:1032800084F83C1070BD00002DE9F041054600684F
:103290001E46144601F47F0201338FB242D0DDF89E
:1032A0001880B2F5803F40F0878040693840C01BED
:1032B000B0FA80F04009A04240F0C8804EB924E046
:1032C00040693840C01BB0FA80F04009A04240F08D
:1032D000BD80FDF7EDFDA0EB08012868B142EFD9F4
:1032E00041693940C91BB1FA81F14909A142E7D1CD
:1032F0009BE000BF40693840C01BB0FA80F0400935
:10330000A0424FF0000040F0A280FDF7D1FD2868F8
:1033100041693940C91BB1FA81F14909A142E9D19A
:1033200083E000BFB2F5803F24D100BF416939403E
:10333000C91BB1FA81F14909A14240F08780416976
:103340003940C91BB1FA81F14909A14240F07E80A0
:1033500041693940C91BB1FA81F14909A14275D1CE
:1033600041693940C91BB1FA81F14909A142DDD057
:103370006CE000BF81693940C91BB1FA81F149098C
:10338000A14263D181693940C91BB1FA81F1490970
:10339000A1425BD181693940C91BB1FA81F1490968
:1033A000A14253D181693940C91BB1FA81F1490960
:1033B000A142DFD04AE000BF80693840C01BB0FAAC
:1033C00080F04009A04241D146B923E080693840ED
:1033D000C01BB0FA80F04009A04237D1FDF768FD6C
:1033E000A0EB08012868B142F0D981693940C91BB6
:1033F000B1FA81F14909A142E8D116E0806938406B
:10340000C01BB0FA80F04009A0424FF0000018BF86
:10341000BDE8F081FDF74CFD286881693940C91B82
:10342000B1FA81F14909A142E8D1002020212863A5
:1034300085F83D1085F83E00296C41F02001296493
:1034400085F83C000120BDE8F08100BF0020BDE808
:10345000F0810000F0B581B0044600681D46436964
:103460008FB203EA0701B94202D1002001B0F0BDDA
:103470004169164601323CD0490512D47EB300BFE3
:10348000FDF716FD411B2068B14203D9416939405F
:10349000B9422BD141693940B942E6D04169490569
:1034A000EED5016841F4007101606FF48061416103
:1034B000042000212022216384F83D2084F83E105E
:1034C000226C1043206484F83C10012001B0F0BD50
:1034D00041693940B942C8D041694905E1D4FDF795
:1034E000E7FC206841693940B942F1D02020E0E78B
:1034F00041694905D5D441693940B942B5D04169DE
:103500004905CED441693940B942AED04169490537
:10351000C7D441693940B942A7D041694905C0D4EF
:1035200041693940B942E3D19FE7000070B50446D4
:103530000068154650F8143F5A063DD40E4629B986
:1035400026E000BF50F8141F490635D40168C906AB
:1035500021D4FDF7ADFC411B2068B142F2D941698D
:103560004906EFD400202021206384F83D1084F820
:103570003E00206C40F0200018E000BFFDF798FCF2
:10358000206850F8141F4906ECD50168490613D489
:103590000168C906F2D56FF01001016000202021FA
:1035A000206384F83D1084F83E00206C20640020E5
:1035B00084F83C00012070BD002070BD70B5036828
:1035C000044653F8140F000611D40E46481C29D0A7
:1035D00086BB00BF1868400527D4FDF769FC236847
:1035E00053F8140F000637D518680006F2D50020EE
:1035F00070BD00BF18680006F9D41868400514D4DF
:1036000018680006F3D4186840050ED41868000640
:10361000EDD41868400508D4186800064FF0000083
:1036200048BF70BD18684005E4D56FF4806018602D
:10363000042012E0154603E053F8140F0006D6D418
:1036400018684005F1D4FDF733FC401B2368B042F5
:10365000F2D958690006EFD42020002120222163EE
:1036600084F83D2084F83E10226C10432064012031
:1036700084F83C1070BD00002DE9F04186B00B4687
:1036800040F25C07044601600271C2F200070025A7
:1036900051001846032202233D60BD600226FDF75B
:1036A000BFFC18B1284606B0BDE8F0818021206833
:1036B000ADF812100DF112014FF47A788DE8420145
:1036C0008021002201230125FDF75CFF0120FDF789
:1036D00071FA00200021C4F22060C4F2A001C7E901
:1036E000001028214FF07A522068ADF8141005A977
:1036F000BA60CDE90016802105220123CDF80880AB
:10370000FDF740FF49F601712068ADF816100DF184
:103710001601CDE90016802100220123CDF8088092
:10372000FDF730FF284606B0BDE8F081F0B585B062
:1037300004460068022704A94FF47A76CDE9001701
:103740008021022201230296FDF774FDBDF81000CE
:103750006FF0030100BA01EA5040FCF7E8FD0025D4
:10376000C4F27A452946FCF79BFD2168A0600DF163
:103770001200CDE9000708468021042201230296A9
:10378000FDF758FDBDF81200C0BAFCF7C7FD40F2C6
:103790005C01C2F200010968FCF782FD2946FCF7D2
:1037A0007FFD0146A068E160FCF748FD206105B09F
:1037B000F0BD000080B582B041F21400C4F20200F6
:1037C0000168002241F0010101600068002100F061
:1037D0000100019001980E20FEF798F80E20FEF7E8
:1037E00083F80F2000210022FEF790F80F20FEF74B
:1037F0007BF8102000210022FEF788F81020FEF749
:1038000073F8112000210022FEF780F8112002B089
:10381000BDE88040FEF768B82DE9F04F85B04FF065
:10382000000841F21800CDE90388CDE90188C4F20F
:103830000200016840F6000B41F0100101600168D0
:10384000C4F2010B01F010010091009901680BF521
:10385000006741F0200101600168012201F02001B0
:103860000091009901684FF4604441F00401016047
:1038700001684FF0010901F004010091009901680D
:1038800041F00801016000684FF4604100F0080059
:10389000009000983846FDF705FB58464FF410415C
:1038A0000022FDF7FFFA0BF580652846382100223B
:1038B0004FF0380AFDF7F6FA01AECDE901490224CE
:1038C00038463146CDF80C900494FDF7DDF9002020
:1038D000C1F23100CDE90208584631460194FDF7A6
:1038E000D3F93020CDE90108584631460394FDF75D
:1038F000CBF94FF20400CDE9010828463146CDF856
:103900000C80FDF7C1F94FF48050CDE9010958460C
:103910003146CDE90344FDF7B7F94FF40040CDE956
:10392000010958463146CDE90384FDF7ADF9284633
:103930003146CDE901A9CDE90384FDF7A5F90720BA
:1039400000210022FDF7E2FF0720FDF7CDFF05B0C3
:10395000BDE8F08F80B540F21C2045F20041C2F274
:103960000000C4F2000148F2A06200234FF4804C32
:10397000C0F2010280E80E00C0E9033CC0E9053353
:10398000C0E90733FDF79AFA002808BF80BDBDE8FB
:103990008040FCF7F7BF000080B540F2702045F68C
:1039A0000001C2F20000C4F2000148F2A06200234C
:1039B0004FF4804CC0F2010280E80E00C0E9033CE5
:1039C000C0E90533C0E90733FDF778FA002808BFDE
:1039D00080BDBDE88040FCF7D5BF000070B598B051
:1039E00040F60004C4F2010440F2C420002104F5B2
:1039F0001052C2F200004FF6FF731191CDE90F1182
:103A0000CDE90D11CDE90B11CDE90911CDE9071172
:103A1000CDE90511CDE90311CDE90111C0E900217E
:103A2000C0E90213C0E904118161FFF72DF80028F5
:103A300018BFFCF7A7FF40F2C420C2F2000010A993
:103A4000FEF70EFB002818BFFCF79CFF60200990D2
:103A50000020CDE90A00CDE90C00CDE90E0040F2CE
:103A6000C420C2F2000009A90022FEF70BFF0028C3
:103A700018BFFCF787FF40F2C420C2F2000009A97A
:103A80000C22FEF7FFFE002818BFFCF77BFF40F278
:103A9000C4254FF40050C2F200050026069001A98B
:103AA00028460596CDE90366CDE901660896FEF73E
:103AB000B1FA002818BFFCF765FF286840F600013E
:103AC000C4F2000188421796CDE91566149615D008
:103AD00042F60041C4F20101884227D141F21800A8
:103AE000C4F20200016841F004010160006800F0C6
:103AF0000400139013984FF410600FE041F2180087
:103B0000C4F20200016804F5806441F0080101601C
:103B1000006800F0080013901398C0201490022051
:103B20001590179014A92046FDF7AEF818B070BD97
:103B300010B58AB040F2543040F200420021C2F287
:103B40000000C4F200024FF6FF730991CDE907119E
:103B5000CDE90411CDE90211CDE90011C0E9002140
:103B6000C0E9021301618161FEF7BAFA002818BFAB
:103B7000FCF708FF4FF48050069040F25430C2F238
:103B8000000006A9FEF7C0FB002818BFFCF7FAFEEC
:103B900040F25430C2F20000FEF74AFD002818BF80
:103BA000FCF7F0FE40F254300024C2F2000004A9F9
:103BB000CDE90444FEF754FA002818BFFCF7E2FEF2
:103BC0000120CDE9010440F25430C2F20000694600
:103BD000002200940394FEF769FC002818BFFCF74C
:103BE000D1FE40F25430C2F2000069460422FEF7D2
:103BF0005DFC002818BFFCF7C5FE40F25430C2F24D
:103C0000000069460822FEF751FC002818BFFCF7A7
:103C1000B9FE40F25430C2F2000069460C22FEF7B1
:103C200045FC002818BFFCF7ADFE0AB010BD00002F
:103C3000B0B594B040F6000540F29C30C4F20005E7
:103C40000021C2F200004FF6FF720E91CDE90C1177
:103C50000991CDE90711CDE90511CDE90311CDE9B0
:103C60000111C0E90051C0E9021201618161FEF752
:103C700037FA002818BFFCF785FE4FF480500B90F0
:103C800040F29C30C2F200000BA9FEF73DFB002879
:103C900018BFFCF777FE40F29C30C2F20000FEF73E
:103CA000F3FE002818BFFCF76DFE40F29C300024A4
:103CB000C2F2000008A9CDE90844FEF7D1F90028B6
:103CC00018BFFCF75FFE6020CDE9010440F29C3094
:103CD000C2F2000001A9002203940594FEF7D2FD70
:103CE000002818BFFCF74EFE40F29C34C2F20004DC
:103CF00001A920460422FEF7C5FD002818BFFCF7E5
:103D000041FE20680021A842CDE9121111911091C5
:103D100018D042F60041C4F20101884229D141F293
:103D20001800C4F20200016841F00401016000685B
:103D30004FF4106100F004000F900F9805F58030EB
:103D400010E000BF41F21800C4F20200016841F027
:103D5000080101600068C02100F008000F900F9872
:103D600005F58230109102211191139110A9FCF7F1
:103D70008BFF14B0B0BD000080B540F2E43043F6D4
:103D80000001C2F20000C4F2010100234FF00C0C4C
:103D90004FF4E13280E80E00C0E90333C0E905C307
:103DA000C361FEF713FF002808BF80BDBDE8804057
:103DB000FCF7E8BD80B540F22C4044F20041C2F26D
:103DC0000000C4F2000100234FF00C0C4FF4E1326C
:103DD00080E80E00C0E90333C0E905C3C361FEF704
:103DE000F5FE002808BF80BDBDE88040FCF7CABDD5
:103DF000FEE70000FEE700007047000040F24007C9
:103E0000C2F2000707F1080440F21C21C2F20001CF
:103E100020468022FFF730FC10B10CA000F05AFBC6
:103E200041F20005C4F201052046FFF77FFC642043
:103E300001F0E4F83E7928464FF400513246FDF790
:103E400031F886F001003871EEE700BF494E41328B
:103E5000313920496E6974204F4B210D0A00000052
:103E600080B500F01BFB01F09DFABDE8804000F03A
:103E700023BB0000B0B590B000240120CDE90B4475
:103E8000CDE9094406900A904FF4E0104FF48031D8
:103E900002250F9006A8CDE90714CDE90D51FDF7D5
:103EA0009FFE28B1EFF3108072B600BFFEE700BF9F
:103EB0000F20CDE901054FF48060CDE9040401A88D
:103EC00002210394FDF75EFD20B1EFF3108072B67E
:103ED000FEE700BF10B0B0BD41F20400C4F2020022
:103EE000016801F00C01082941F20021C0F27A01B9
:103EF0000FD102680368C2F38342DB0302F10202BE
:103F000002D503689B0303D540F60011C0F23D01C2
:103F1000514340F20802C2F200021160006846F20A
:103F20006003C0F30310C0F60003185C21FA00F030
:103F3000106070477047000040F20C30C2F2000081
:103F4000FEF7F6BBFEE70000002804BF0020704724
:103F5000C1B209B101200CE010F47F4102D0090A7E
:103F6000092006E010F47F0107BF010E1920090C9B
:103F7000112046F27A02C0F60002515C08447047F4
:103F800080B582B043F6FD514FF00A0C4FF0060E9B
:103F900009A0C0F6000100224FF48063CDE900ECD7
:103FA00000F0D4FF40F2C001C2F20001086001F04D
:103FB0005BF9002002B080BD53656E73657200002E
:103FC000B0B546F2242446F22020C0F60004C0F624
:103FD0000000A04209D246F22025C0F6000500BF2D
:103FE00055F8040B8047A542FAD3BDE8B040FFF76F
:103FF000C7BF0000B0B546F2202446F21820C0F634
:104000000004C0F60000A04228BFB0BD051F00BFDD
:1040100055F8040F8047281DA042F9D3B0BD000019
:1040200080B5FCF77FF840F2A001C2F200014A8897
:1040300001324A80BDE88040FCF778B8B0B5FCF7A3
:1040400071F840F2A004C2F20004618801390AB29A
:10405000002A618004DDBDE8B040FCF767B800BF0E
:1040600000216180FCF762F86068002808BFB0BDDD
:10407000FCF758F861880029EDD10546A068FFF7E4
:1040800063FF421E43F2FC10C2F2000050F83210EF
:104090006068A1F1140383420CD0227043F2F40251
:1040A0006360C2F2000212781C3001F108013AB1DB
:1040B000FCF73FF82846BDE8B040FCF737B800BF32
:1040C000FCF737F82846BDE8B040FCF72FB80000F1
:1040D0002DE9F041002855D040F26807C2F20007F0
:1040E00004467868A0424DD8B868A04298BFBDE8A1
:1040F000F08107F1180840464FF0FF31A4F10C069B
:1041000000F0C2FC34F80A0C18B13088B0F5F55F45
:104110000AD024A000F0DEF934F80A2C34F80C3C64
:1041200027A0314600F0D6F94FF4F55044F80C0CB6
:10413000D7F80CC066453CBFFE60B44654F8082C66
:1041400078683D691318F11A294439610ED05988ED
:1041500061B9B9688B4209D09C4504BFFE60B44682
:104160005A68311A831844F8082C996054F8043CB2
:10417000C518B54201D0698831B14046BDE8F0416B
:1041800000F05CBCBDE8F081B44508BFFD606A602A
:1041900054F8081C084483604046BDE8F04100F034
:1041A0004DBC00BF746F206672656520612062613E
:1041B00064206461746120626C6F636B3A0A000072
:1041C0006D656D3A203078253038782C2075736510
:1041D0006420666C61673A2025642C206D616769F4
:1041E0006320636F64653A203078253034780A00A4
:1041F00040F2F040C2F200007047000040F2F04090
:10420000C2F2000000F530507047000010B5FDF715
:10421000DDFAFFF72FFEFFF75FFEFFF7FDFAFFF76E
:10422000C9FAFFF797FBFFF7B7FBFFF7D7FBFFF7DD
:104230007FFCFFF7FDFCFFF79FFDFFF7BBFDFDF7E0
:10424000A1FC44F6D351C1F26201A0FB010188092F
:10425000FDF7C6FEFFF7CEFEFFF7CAFF0446FFF7E5
:10426000CDFF01462046BDE8104000F057BD0000DC
:10427000F0B581B004460D208DF8030040F2C40073
:10428000C2F20000002180F84010204600F0E2FC5D
:10429000F0B140F2C4060546C2F200060DF1030774
:1042A0000BE000BF3046214601224FF6FF73FEF7B8
:1042B000D5FD013D04F101040AD020780A28F1D18E
:1042C0003046394601224FF6FF73FEF7C7FDE9E796
:1042D00001B0F0BD10B540F2EC41C2F20001096836
:1042E000044621B120468847002808BF10BD216C34
:1042F00046F20220C0F6000000F0ECF8616A46F2D7
:10430000C110C0F6000000F0E5F8A16A46F2CE1038
:10431000C0F6000000F0DEF8E16A46F2DB10C0F6FD
:10432000000000F0D7F8216B46F2E810C0F600005C
:1043300000F0D0F8616846F2F510C0F6000000F019
:10434000C9F8A1681EA000F0C5F8E16820A000F03F
:10435000C1F8216922A000F0BDF8616924A000F035
:10436000B9F8A16926A000F0B5F8E16928A000F02D
:10437000B1F8216A2AA000F0ADF8616B2CA000F022
:10438000A9F8A16B2EA000F0A5F8E16B30A000F019
:10439000A1F82078400707D446F28A10C0F6000042
:1043A00000F098F80AE000BF00F01CFF014646F25A
:1043B000A410C0F6000000F08DF800BFFEE700BFBB
:1043C0007230353A203078253038780A0000000005
:1043D0007230363A203078253038780A00000000F4
:1043E0007230373A203078253038780A00000000E3
:1043F0007230383A203078253038780A00000000D2
:104400007230393A203078253038780A00000000C0
:104410007231303A203078253038780A00000000B8
:104420007231313A203078253038780A00000000A7
:104430007231323A203078253038780A0000000096
:10444000206C723A203078253038780A000000005D
:104450002070633A203078253038780A0000000058
:1044600004324BF6EF6C22F00702CDF6AD6C42F849
:1044700040CDC2E901CCC2E903CCC2E905CCC2E916
:1044800007C100214FF0807CC2E90D301046C2E91F
:104490000911C2E90B11C2F83CC0704780B5FBF7A7
:1044A00041FE43F2F401C2F200010A7801320A70BF
:1044B000BDE88040FBF73ABE80B5FBF733FE43F220
:1044C000F401C2F200010A78013A0A70BDE88040A6
:1044D000FBF72CBE83B010B581B043F2FC048446D8
:1044E00003A8C2F200040EC003AB2046FF216246BF
:1044F000009301F027F92046FFF7BAFEA00743F228
:10450000FC00C2F200004FF48071FBF78CFE01B09A
:10451000BDE8104003B07047002804BF002070477A
:104520002DE9F04381B040F26809C2F2000903307E
:10453000D9F8001020F003078F425ED809F118085F
:1045400040464FF0FF310C2F98BF0C2700F09CFA2B
:10455000D9E900C1D9F80CE0ACEB0704AEEB0103DC
:10456000A34247D2CE187288706822B903F10C05B5
:10457000421BBA4246D2A0423CD20E1872887368DF
:1045800022B900F10C055A1BBA4216D2A34231D20D
:10459000CE187288706822B903F10C05421BBA422A
:1045A00030D2A04226D20E1872887368002AD7D162
:1045B00000F10C055A1BBA42D2D30446184607F143
:1045C00018039A4223D3EB1907F10C02CD184FF4CC
:1045D000F557CF50C5E901047360686801240CF1F8
:1045E0000C07B84274801CBF08448360D9E90403F7
:1045F00012E000BF404600F021FA002001B0BDE803
:10460000F08300BF1C4607F118039A42DBD2012257
:104610007280D9E90423001B10448342C9F81000BA
:1046200038BFC9F814004FF4F5507645308030D1CA
:10463000BEF8020068B3D9F80820964529D0DEF804
:10464000040001EB000EBEF80200002818BF9645DA
:104650001DD0DEF8040001EB000EBEF802000028B9
:1046600018BF964513D0DEF8040001EB000EBEF82B
:104670000200002818BF964509D0DEF8040001EBBF
:10468000000EBEF80200002818BF9645D7D1C9F821
:104690000CE0404600F0D2F906F10C0001B0BDE894
:1046A000F083000010B5042A1ED310F003031BD1C1
:1046B000CBB24FF00134102A03FB04FC16D3A2F155
:1046C0001004012303EB141313F0030310D0012B88
:1046D000C0E900CCC0F808C0C0F80CC00CD100F193
:1046E000100322461BE000BF864656E0864631E0B6
:1046F0000346302C16D22BE0022BC0E904CCC0F8C4
:1047000018C0C0F81CC003D100F12003203A06E015
:1047100000F13003303AC0E908CCC0E90ACC9E462B
:10472000302C15D303F1400E403AC3E900CCC3E965
:1047300002CCC3E904CCC3E906CCC3E908CCC3E985
:104740000ACCC3E90CCCC3E90ECC0F2A7346E9D8D6
:10475000042A22D3734600BF141F042C4EF804CB46
:104760001AD3A2F10804042CC3F804C00ED3A2F19A
:104770000C04042CC3F808C00CD303F1100E103A3B
:10478000C3F80CC0032A7346E6D806E003F1080E0E
:1047900002E000BF03F10C0E2246002A08BF10BD44
:1047A0005FFA81FC0446704611466246FBF734FD11
:1047B000204610BD2DE9F041884640F20C01C2F2BE
:1047C00000010A78054682420F460AD00F4617F8C4
:1047D000100FA84205D011F8200FA84218BF0021E1
:1047E0000F46F868FFF798FE0646C0B1FA683046F3
:1047F00000210024FFF756FF30464146082235725B
:10480000747200F03FFAFBF78DFC57F8041F324634
:1048100042F80C1F4A603A605760FBF787FC30464D
:10482000BDE8F08110B5044600202072FBF77AFC49
:104830002246216952F80C3F59600B6022611260D8
:10484000FBF774FC2046BDE81040FFF741BC0000B8
:1048500010B5044600202072FBF764FC54F80C1FCE
:1048600062684A601160C4E90044BDE81040FBF78B
:104870005DBC0000F0B581B00E4640F20C01C2F202
:10488000000115460A780446B2420F460AD00F4688
:1048900017F8100FB04205D011F8200FB04218BF22
:1048A00000210F46FFF7BCFB043738460068B842CA
:1048B00008D00068B84205D00068B84202D000684D
:1048C000B842F3D1FFF7BAFB46F0800020722046D1
:1048D0002946082200F0D6F9FBF724FC396844F891
:1048E0000C1F4C603C60676001B0BDE8F040FBF716
:1048F0001DBC0000007AC0097047000070B5FBF7CE
:1049000011FC40F2A005C2F20005698821B1BDE8A2
:104910007040FBF70BBC00BFA96806460846FFF7CE
:1049200013FB01464A1E43F2FC11C2F2000151F88A
:1049300032106B68A1F1140430469C42E7D043F278
:10494000F4002A706C60C2F20000027803F11C00CF
:1049500001F1080132B1FBF7ECFB3046BDE87040D5
:10496000FBF7E4BBFBF7E5FB3046BDE87040FBF727
:10497000DDBB000010B50446FBF7D4FB94F83410FF
:1049800094F8352001F0F001013184F8341043F23D
:10499000FC11C2F2000101EBC2014A6840F2A00C16
:1049A00004F11403C2F2000C1360A2614B60A26B0D
:1049B000DCF80830616143EA0201CCF80810BDE878
:1049C0001040FBF7B3BB0000B0B50546FBF7AAFBF0
:1049D000294651F8142F4B6853601A6091F8212032
:1049E00043F2FC130960C2F2000353F8324003EBB8
:1049F000C2029442496003D0BDE8B040FBF796BBC9
:104A000040F2A002C2F20002A96B936823EA0101FE
:104A10009160BDE8B040FBF789BB000070B515465A
:104A20000A4602211C460646FFF724FF06F1140041
:104A3000C6E905000020B583747270BD10B5044648
:104A4000FBF770FB224652F8141F91420CD0143928
:104A50000446084600F0A4FB2046FBF767FBFFF77F
:104A60004DFF002010BD00BFA18B4FF6FF72914299
:104A700004D1FBF75BFB6FF0020010BD0131A18395
:104A8000FBF754FB002010BD2DE9F04381B00D462B
:104A900006460091FBF746FBB18B39B10139B18372
:104AA000FBF744FB002001B0BDE8F083002D3FD0B0
:104AB000804600F097FB044600202063777A20466A
:104AC00006F1140900F0FEFBD7B3012F404640D198
:104AD00049460968494555D094F8352091F8213068
:104AE0009A421AD3096849454CD094F8352091F878
:104AF00021309A4211D30968494543D094F83520B2
:104B000091F821309A4208D3096849453AD094F87F
:104B1000352091F821309A42DBD24A6804F114031F
:104B20001360A2614B606161012D14DA1EE000BFC9
:104B3000FBF7FCFA6FF0010001B0BDE8F08300BFA5
:104B4000B06904F114010160A061B161C4F814906E
:104B50004046012D0ADB04F144056A46284600213F
:104B600000F0E4FC284600F047FD4046FBF7DEFA83
:104B7000FFF7C4FE206B002808BF002001B0BDE88D
:104B8000F08300BFB16904F114020A60A161B2614F
:104B9000C4F81490012DDEDAE8E7000080B582B099
:104BA0000AA0FFF797FC0CA0FFF794FC0FF24C0C47
:104BB00015A0032101220523CDF800C0FFF78AFCD0
:104BC00019A002B0BDE88040FFF784BC0A205C2039
:104BD0007C202F0A000000002D205254202D202080
:104BE000202020546872656164204F706572617482
:104BF000696E672053797374656D0A00446563209C
:104C00003138203230323400202F207C205C2020AC
:104C100020202025642E25642E2564206275696C71
:104C2000642025730A0000002032303036202D2009
:104C30003230323020436F70797269676874206255
:104C4000792072742D746872656164207465616D79
:104C50000A000000014600BF0A7862B14A784AB1F2
:104C60008A785AB1CA780431002AF5D10139081A74
:104C7000704700BF0131081A704700BF0231081A9F
:104C800070470000002A08BF7047F0B581B0C2F13C
:104C9000000C00238646CC5CC454FCB10CEB03052D
:104CA0006C1C16D2CE187778C4186770E7B1AF1CA9
:104CB0000FD0B778A770EFB103350AD0F578E5705B
:104CC000F5B104330EF1040E1CEB0304A2F104024F
:104CD000E1D101B0BDE8F040704700BF0EF1010323
:104CE000511E11D1F5E700BF0EF10203013A511E2A
:104CF0000AD1EEE70EF10303023A511E04D1E8E7B0
:104D0000033A231D511EE4D004461846FBF78BFAE4
:104D1000204601B0BDE8F0407047000010B521F01A
:104D200003030A46192B014630D3C81C20F00300A8
:104D3000A3F11804844229D3191A40F26804A1F19E
:104D40001802C2F20004C4E900204FF4F5520C39F5
:104D50004FF0000CC0E90021C0F808C041F6A06087
:104D6000C0F201001A4642F80C0D43F8081C2068F6
:104D7000A2600C3043F8040C04F1180006A10122D3
:104D80000023FFF74BFE6068E06010BD04A0BDE8A3
:104D90001040FFF79FBB00BF686561700000000016
:104DA0006D656D20696E69742C206572726F72205A
:104DB000626567696E206164647265737320307820
:104DC00025782C20616E6420656E642061646472B5
:104DD00065737320307825780A00000010B543F21F
:104DE000FC12C2F2000202F11800C2E9060002F150
:104DF000200002F1080302F11001C2E9080002F1EB
:104E00004000C2E90233C2E9041102F1280102F1B3
:104E1000300302F13804C2E9100002F16000C2E977
:104E20000A11C2E90C33C2E90E4402F1480102F151
:104E3000500302F15804C2E9180002F18000C2E9EF
:104E40001211C2E91433C2E9164402F1680102F1F9
:104E5000700302F17804C2E9200002F1A000C2E967
:104E60001A11C2E91C33C2E91E4402F1880102F1A1
:104E7000900302F19804C2E9280002F1C00040F258
:104E8000A00EC2E92211C2E92433C2E9264402F18C
:104E9000A80102F1B00302F1B804C2E9300002F146
:104EA000E000C2F2000EC2E92A11C2E92C33C2E9C5
:104EB0002E4402F1C80102F1D00302F1D804C2E984
:104EC00038001F204FF0000CC2E93211C2E9343320
:104ED000C2E9364402F1E80102F1F00302F1F804FC
:104EE0008EF800000EF10C00AEF802C0C2E90022FC
:104EF000C2E93A11C2E93C33C2E93E44CEE901CCF1
:104F0000CEE9030010BD000010B540F2A004C2F2CB
:104F10000004A068FFF718F843F2FC11C2F2000188
:104F200001EBC00050F8080CA0F1140108306160DA
:104F3000BDE81040FBF72BB940F2B400C2F200000C
:104F4000011DC0E901117047704700002DE9F043D1
:104F500083B00F46014601201D461646FFF72AFC86
:104F600000283DD004462846FFF7D6FA00283DD059
:104F700004F11401DDE90A98C4E9051123212A4648
:104F8000C4E90876C4E90A05FFF78CFB04F12003A5
:104F90000FCB1A4445F20903043AC0F60003FFF7A9
:104FA0005FFA45F20932E061002704F14400C0F6DF
:104FB00000022146234684F8369084F83590C4E9EF
:104FC0000E78C4F84080276384F83470C4E91C77F5
:104FD0000097019700F0F6FA204603B0BDE8F08391
:104FE0000024204603B0BDE8F08300BF2046FFF751
:104FF00019FC0024204603B0BDE8F08380B500F022
:10500000F7F8002080BD000070B540F2A400C2F2A5
:1050100000000568FBF786F80446FBF783F8296F64
:1050200019B10646284688473046FBF77FF82846E0
:10503000FFF7CAFC042085F8340005F1440000F0B5
:10504000A9FA2846FFF756FC012809D12846FFF7A0
:10505000FFFBFFF753FC2046BDE87040FBF766B846
:1050600040F2AC00C2F20000016845F8141F4D6028
:1050700005606860FFF742FC2046BDE87040FBF722
:1050800055B8000040F2AC06C2F2000603E000BFD3
:105090002046FBF74BF8FBF745F831680446B14270
:1050A000F6D0D1E900234869A1F1140553601A60D4
:1050B000C1E90011FFF70CF82846FFF7B3FBE7E75B
:1050C00010B584B043F2FC224FF48071C2F20002AA
:1050D00040F274441F20CDE90021C2F2000445F2E1
:1050E00085024FF0200C029007A1C0F60002204676
:1050F0000023CDF80CC000F00BF8204604B0BDE84A
:10510000104000F0B1B800BF7469646C6500000025
:105110002DE9F04782B00DF1280A16460A46DDF85F
:1051200034909AE8800501211D460446FFF7A2FB52
:1051300004F11400C4E90500384623214246C4E9BD
:105140000865C4E90A78FFF7ADFA04F120030FCB34
:105150001A4445F20903043AC0F60003FFF780F948
:1051600045F20932E061002704F14400C0F6000274
:105170002146234684F836A084F835A0C4E90E7988
:10518000C4F84090276384F83470C4E91C77009712
:10519000019700F017FA002002B0BDE8F087000088
:1051A00090F8341001F00F0102291CBF4FF0FF30BE
:1051B0007047B0B50446FAF7B5FF2246A16952F828
:1051C000143F054604F1440059600B60A26112606F
:1051D00000F078FA2846FAF7A9FF2046FFF7CAFB45
:1051E0000020B0BD40F2A400C2F200000068704789
:1051F000F0B581B00090FAF795FF40F2A401C2F239
:1052000000010C68054694F8341001F00F010129E3
:1052100013D1FAF787FF06462046FFF7D5FB94F82F
:10522000340000F0F000023084F8340004F144004F
:1052300000F048FA3046FAF779FF04F144066A466E
:1052400030460021002700F071F9304600F0D4F913
:105250002846FAF76BFFFFF751FB206B023008BFBF
:105260002763002001B0F0BDB0B5044690F83600C9
:10527000012184F8350001FA00F0A063022084F8CF
:105280003400FAF74FFF2246A16952F8143F054651
:1052900004F1440059600B60A261126000F012FA40
:1052A0002846FAF743FF2046FFF764FB40F2A400CC
:1052B000C2F200000068002818BFFFF71FFB0020A3
:1052C000B0BD0000B0B5044690F8340000F00F0007
:1052D00001281CBF4FF0FF30B0BDFAF723FF054691
:1052E0002046FFF771FB94F8340000F0F000023024
:1052F00084F8340004F1440000F0E4F92846FAF799
:1053000015FF0020B0BD000080B50346826953F848
:10531000141F6FF0010CC0F830C04A601160836147
:105320001B60FFF727FBBDE88040FFF7E7BA0000EE
:1053300010B5FAF7F7FE40F2A401C2F200010968C5
:1053400091F8342002F00F02012A21D10A4652F8C6
:1053500014CF53689C451BD091F835E043F2FC1400
:10536000C2F2000404EBCE04CCF804308A61D4F815
:1053700004E0C3F800C0CEF80020C1F818E0626075
:105380004C61FAF7D3FEFFF7B9FA002010BD00BF59
:10539000FAF7CCFE002010BD43F20040C2F200003C
:1053A0000068704780B543F20040C2F20000016817
:1053B00001310160FFF716FF016C0139016403D070
:1053C000BDE8804000F008B8C16B0164FFF7B0FF92
:1053D000BDE88040AFF300802DE9F04F83B00DF1C0
:1053E0000408CDE90188FFF7D7FF0546FAF79AFED2
:1053F00040F2B404C2F20004214651F8046F009058
:105400008E4200F08D804FF6FE79C7F6FF796FF07F
:10541000004B16E00F68084621687E60013121606C
:1054200016F80B1C37600660706041F0010006F84A
:105430000B0C5046FAF77AFE204650F8046F86426D
:105440006ED07069281A48456AD8D6E9002116F846
:105450000B0C51600A60810736605CBF00F0FC00F5
:1054600006F80B0C019846603060D6E902100196F0
:10547000C6F804808847FFF78FFF0199054641452C
:10548000DAD0D6E900104860016016F80B0C3660DF
:1054900000F0030103297660CED100F0FE0006F88B
:1054A0000B0CFAF73FFE824616F80B0CD6E90021EA
:1054B00000F0FE0051600A603660766006F80B0C62
:1054C000FFF76AFF3169231D0A18A16872618B42D8
:1054D000A0D018684769BF1A01D05F451AD3884227
:1054E00098D003685F69BF1A01D05F4516D38B421D
:1054F00090D018684769BF1A01D05F450AD3884227
:105500003FF488AF03685F69BF1AE0D04F451F467C
:10551000DDD881E7074618467EE700BF1F467BE7D8
:105520000098FAF703FE03B0BDE8F08F70B514469B
:105530000E460546FAF7F6FD042E07D8DFE806F01A
:105540000424141C0A0000BF21686962FAF7EEFD0A
:10555000002070BD697AC9070CBF002101212160BC
:10556000FAF7E4FD002070BD697A01F0FD0169726F
:10557000FAF7DCFD002070BD697A41F00201697222
:10558000FAF7D4FD002070BD696A2160FAF7CEFDFC
:10559000002070BD10B50446FAF7C4FD2246A1698B
:1055A00052F8143F59600B60617AA26101F0FE016C
:1055B00012606172FAF7BAFD2046FFF749F9002040
:1055C00010BD00002DE9F04115460A46DDE90687C9
:1055D0000A211C460646FFF74DF907F0FE007072DF
:1055E000002006F11401C6E90511C6E90754C6E911
:1055F0000980BDE8F08100002DE9F0410446FAF78A
:1056000091FD264656F8141F804616F80B0C72685A
:1056100000F0FE004A6011603660766006F80B0C00
:10562000FFF7BAFE40F2B40E3169C2F2000EDEF8A6
:1056300008304FF6FE7C0A180EF104076FF00045A3
:10564000C7F6FF7C72619F4220D039684869801A92
:1056500001D0A8421ED3994218D00F687869801AE9
:1056600001D0A8421AD39F4210D039684869801AE5
:1056700001D0A8420ED3994208D00F687869801AE9
:10568000E1D060453846DED809E000BF1868194609
:1056900005E000BF0846394601E000BF38464660D5
:1056A0006061607ADEF8002040F001000132607233
:1056B0004046CEF800200E60A161FAF737FD0020C9
:1056C000BDE8F08110B50446407AC00704BF4FF032
:1056D000FF3010BDFAF726FD54F8141F62684A60C7
:1056E000116014F80B1C246001F0FE01646004F8E2
:1056F0000B1CFAF71BFD002010BD000000207047B6
:1057000000207047002070470020704780B540F2AD
:10571000C40043F60001C2F20000C4F201010023FC
:105720004FF00C0C4FF4E13280E80E00C0E9033377
:10573000C0E905C3C361FDF749FA08B1FEE700BF40
:10574000002080BD7CB50C001D461646014601D0E8
:10575000601E00E00020CDE90010064B6A46294695
:10576000304600F0DBF8002C02D0009A00211170C6
:105770007CBD00004B60000802E008C8121F08C191
:10578000002AFAD170477047002001E001C1121FC2
:10579000002AFBD1704700002DE9FF5F82B0002195
:1057A000DDE90430020DDDF840B0034318D044F6C3
:1057B0001050A2F2FF3242431514119801281FD055
:1057C000A5EB0B00401C5FEA000A4FF000064E4FAD
:1057D000DFF83891B046504615D5CAF1000413E001
:1057E000119801244AA3012801D16FEA0B01029804
:1057F000119AC0E90031C0E9024206B0BDE8F09F4D
:10580000CBF10000DFE704460021404A491842EB93
:105810000450CDE9001012E0E00707D032463B46C5
:1058200040464946FAF7ADFE8046894632463B4639
:1058300010461946FAF7A5FE06460F466410002CDE
:10584000EAD1DDE90401DDE90023BAF1000F06DA4F
:10585000FAF797FE42464B46FAF793FE05E0FAF751
:1058600002FF42464B46FAF7FEFE04460E46002271
:10587000284BFAF77FFF03D84FF0FF30014607E0CF
:105880000022254B20463146FAF7D4FDFAF75AFF9D
:10589000102409E0002C0ADB0A220023FAF762FD3B
:1058A000039B30321A55641E50EA0102F2D1641C87
:1058B000039AC4F111031444119A012A03D001225E
:1058C00008430DD10AE0084304D000204FF0110B2B
:1058D000119072E7A3EB0B056D1E0DE05B4504DD37
:1058E0004FF0000205F1010504E003DA4FF0000279
:1058F000A5F10105002AECD002981199C0E9023106
:10590000C0E9004579E70000000014400000F03FC6
:10591000300000000000F0430000E03F2DE9FF4FA1
:1059200095B09B468946064600250FE2252877D18B
:1059300000242746F84A0121059400E0044316F8A4
:10594000013F203B01FA03F01042F7D130782A28BA
:1059500011D06FF02F033078A0F13002092A16D849
:10596000059A44F0020402EB820203EB4202104467
:10597000761C0590EFE759F8042B0592002A03DA0C
:10598000504244F40054059044F00204761C3078F0
:105990002E2816D116F8010F44F004042A280DD041
:1059A0006FF02F023078A0F13003092B09D807EBF4
:1059B000870302EB4303C718761CF3E759F8047B0F
:1059C000761C30786C280FD006DC4C2817D068285D
:1059D0000DD06A2814D104E0742810D07A280FD191
:1059E0000DE044F400140AE044F4801401E044F4AF
:1059F00040147278824202D104F58014761C761C21
:105A0000307866280BD013DC582877D009DC0028C2
:105A100075D04528F6D04628F4D047281AD19DE104
:105A200018E0632835D0642879D0652812D195E133
:105A3000702873D008DC6728F1D069286FD06E28F1
:105A40000DD06F2806D1B5E073282CD0752875D0FD
:105A5000782874D05A46179990476D1C75E1C4F3A5
:105A60000250022809D003280DD0D9F800100428CC
:105A70000DD00D6009F1040967E1D9F80010EA17AB
:105A8000C1E90052F6E7D9F800100D80F2E70D7079
:105A9000F0E719F8041B8DF8001000208DF80100C4
:105AA000EA46012003E059F804AB4FF0FF306107EC
:105AB0004FF0000102D40DE008F101018846B9421F
:105AC0000FDA8045F8DB1AF808100029F4D108E055
:105AD00008F1010188468142FADB1AF80810002912
