:020000040800F2
:10000000B0380020010100089D3C0008C90100082B
:10001000993B0008DD070008413E00080000000091
:10002000000000000000000000000000A13C0008EB
:10003000110800080000000053010008513D0008AD
:100040001B0100081B0100081B0100081B01000820
:100050001B0100081B0100081B0100081B01000810
:100060001B0100081B0100081B0100081B01000800
:100070001B0100081B010008E1070008ED0700084C
:10008000F9070008050800081B0100081B0100080B
:100090001B0100081B0100081B0100081B010008D0
:1000A0001B0100081B0100081B0100081B010008C0
:1000B000293E0008353E00081B0100081B0100080E
:1000C0001B0100081B0100081B0100081B010008A0
:1000D0001B0100081B0100081B0100081B01000890
:1000E000150800081B0100081B010008DFF80CD0F0
:1000F00000F0A4FA0048004789070008B038002043
:100100000648804706480047FEE7FEE7FEE7FEE7B1
:10011000FEE7FEE7FEE7FEE7FEE7FEE7253E000816
:10012000ED000008EFF3108072B6704780F310887E
:100130007047324A1368012B04D04FF0010313605B
:100140002F4A10602F4A11602F484FF080510160F4
:100150007047EFF3108272B62848016891B14FF0F2
:10016000000101602648016829B1EFF3098121E906
:10017000F00F00680160234909680968B1E8F00FD1
:1001800081F3098882F310884EF0040E70471D49F0
:1001900008601B494FF00000086018494FF001004B
:1001A00008601A481A49D0F8002041EA02010160AB
:1001B00015484FF08051016016480068006880F3D0
:1001C000088861B662B670471EF0040F0CBFEFF3EB
:1001D0000880EFF3098020E9F00F40F804ED1EF0ED
:1001E000040F0CBF80F3088880F3098800B504F081
:1001F00001F85DF804EB4EF0040E7047A0340020C7
:10020000943100209C31002004ED00E020ED00E05E
:100210000000FFFF08ED00E0D2B201E000F8012B82
:10022000491EFBD270470022F6E710B513460A4676
:1002300004461946FFF7F0FF204610BD30B50B46C7
:10024000014600202022012409E021FA02F59D4206
:1002500005D303FA02F5491B04FA02F52844151EDA
:10026000A2F10102F1DC30BD2DE9F05F054600206E
:1002700092469B4688460646814640241BE0284617
:1002800041464746224600F000FA53465A46C01AF5
:10029000914110D311461846224600F0E7F92D1A75
:1002A00067EB01084F4622460120002100F0DEF9ED
:1002B00017EB00094E41201EA4F10104DFDC484683
:1002C00031462A464346BDE8F09F2DE9FE4F804661
:1002D00081EA0300C00F0C46009021F0004123F09A
:1002E0000045B8EB0200A94105D2404621469046A0
:1002F0001C460B46024623F00040104347D0270D12
:10030000C7F30A00C3F30A510290401A0190402833
:100310006BDAC3F3130040F4801B0098924620B1BF
:100320000023D2EB030A63EB0B0B01985946C0F193
:100330004002504600F09AF906460D46504659468E
:10034000019A00F0B2F910EB08006141002487EA3D
:10035000115284EAE7731A4340D0009A62B3019ABB
:10036000012A4FEA075215DC001B61EB02014FF036
:10037000004202EA0752CDE90042001C41F580111B
:1003800032462B4600F0B2F903B0BDE8F08F40468C
:100390002146F9E7001B61EB0201001C41F58013C7
:1003A00000185B412018A2F5001747EB030140EA53
:1003B000D570B6196D4111E06D084FEA360645EA71
:1003C000C0754FEA0752001B61EB0201001C41F5AA
:1003D000801149084FEA30000019514132462B463E
:1003E00003B0BDE8F04F00F072B900980122400060
:1003F0000023D0EB020263EBE073009821464FEA42
:10040000E074B8EB000061EB0401E9E783F000431E
:100410005BE781F0004158E72DE9FE4F81EA0304D4
:1004200004F0004421F0004100944FF0000B23F051
:10043000004350EA01045ED052EA03045BD0C3F3E8
:100440000A54C1F30A552C44A4F2F3340194A0FBDE
:100450000254C1F3130141F48011C3F3130343F4B5
:10046000801301FB024400FB034E840A970A44EA0E
:10047000815447EA8357A4FB076802958D0A05FB60
:1004800007854FEA932C04FB0C542705029D4FEA85
:10049000065847EA1637B5EB08056EEB070C870ED2
:1004A000920E47EA811742EA8312A7FB0201B6EBDC
:1004B0000B0164EB00042B0D43EA0C335E1844EB94
:1004C0001C50DA465146E7FB0201C5F313044FEA1C
:1004D0000B3343EA14534FEA0432019C43EA060308
:1004E000A4F10C040294009CCDE900B400F0FEF8E5
:1004F00003B0BDE8F08F00200146F9E72DE9F04D8B
:1005000081EA030404F0004B21F0004514464FF04B
:10051000000A23F0004150EA050220D054EA01020B
:100520001DD0C5F30A570246C5F31303C1F31300E8
:10053000C1F30A5640F4801543F48013A7EB060874
:10054000101BD64608F2FD3873EB050002D308F104
:10055000010801E092185B41B8F1000F03DA0020B6
:100560000146BDE8F08D00204FF480110646844618
:100570000EE0171B73EB050705D3121B63EB050396
:1005800006434CEA010C49084FEA300092185B41DF
:1005900050EA0107EDD152EA030012D082EA0400CA
:1005A00083EA0501084305D0101BAB4106D20122A6
:1005B000002306E000224FF0004302E06FF001024A
:1005C00053101AEB06004CEB085110EB0A0041EBFC
:1005D0000B01BDE8F04D00F07AB8C1F30A52C1F347
:1005E000130140F2FF3341F480119A4202DA0020F5
:1005F0000146704740F233439A42A2F2334202DC92
:10060000524200F042B800F031B8000030B5041E8C
:1006100071F1000404DB4FF00044404264EB01013F
:10062000141E73F1000405DB1C464FF000435242D8
:1006300063EB0403994208BF904230BD1CB50948E2
:100640000090094801900546009C06E0E06840F0F3
:10065000010394E8070098471034AC42F6D3FFF743
:1006600049FD000094610008B4610008202A04DB01
:10067000203A00FA02F1002070479140C2F12003B5
:1006800020FA03F3194390407047202A04DB203AF4
:1006900021FA02F00021704721FA02F3D040C2F1A2
:1006A00020029140084319467047202A06DBCB17E9
:1006B000203A41FA02F043EAE07306E041FA02F31D
:1006C000D040C2F12002914008431946704710B54E
:1006D000141E73F1000408DA401C41F10001921865
:1006E0005B411A4301D120F0010010BD2DE9F04D0E
:1006F00092469B4611B1B1FA81F202E0B0FA80F263
:1007000020329046FFF7B2FF04460F4640EA0A0047
:1007100041EA0B0153465A46084313D0114653EAA7
:10072000010019D0C8F140025046FFF7AEFF054660
:100730000E46504659464246FFF798FF084305D0FB
:10074000012004E020463946BDE8F08D0020054335
:1007500046EAE0762C4337430A986305E40AA0EBA7
:1007600008000022FD0A44EA47540A3002D500205E
:100770000146E9E7010510196941DDE9084500195D
:100780006941BDE8F04DA2E780B582B0FFF7CAFC31
:1007900003F0CCFC04F092F904F05EFB04F0AEFA36
:1007A00046F2791043F6E1614FF0140C4FF00A0E57
:1007B000C0F60000C0F6000100224FF48063CDE9CE
:1007C00000EC04F053FB04F0E7FC04F04DFB04F0F4
:1007D00007FC04F029FB002002B080BDFEE700000A
:1007E00040F28410C2F2000000F02EB840F2401037
:1007F000C2F2000000F028B840F2C810C2F20000B7
:1008000000F022B840F20C20C2F2000000F01CB848
:100810007047000080B54FF4805000F03DF94FF470
:10082000005000F039F94FF4804000F035F94FF4F2
:100830000040BDE8804000F02FB90000EFF31080C9
:1008400072B600BFFEE7000010B5D0E90FCE016818
:10085000DCF800300A6823FA0EF35C072AD512F0A0
:10086000040427D00A68920603D40A6822F004021E
:100870000A602F22C4F20202914240F20402C4F242
:1008800002025BDD3023C4F20203994272D044239A
:10089000C4F20203994273D05823C4F2020399426E
:1008A00040F07A804FF480231360C16A002940F041
:1008B00098806FE09C0727D512F0020424D00A68C4
:1008C000920606D40A6822F00A020A60012280F821
:1008D00021202F22C4F20202914240F20402C4F20B
:1008E00002023BDD3023C4F20203994260D044236C
:1008F000C4F2020399425FD05823C4F20203994222
:1009000060D14FF4003365E01B0743D512F00802B5
:1009100008BF10BD0A6822F00E020A60012101FA28
:100920000EF2CCF80420816380F82110016B0022C4
:10093000002980F8202054D12CE000BF0823C4F205
:100940000203994222D01C23C4F20203994223D10C
:1009500040231360C16A002943D11BE00823C4F27D
:10096000020399422CD01C23C4F20203994229D1DC
:1009700020232FE04FF480631360C16A89BB09E034
:100980004FF480431360C16A59BB03E00423136032
:10099000C16A31BB10BD00BF02F168044FF0806333
:1009A000A14208BF4FF480031360C16AC9B9F1E7DF
:1009B0004FF400730EE000BF4FF400530AE000BF95
:1009C000022307E002F168044FF00073A14208BF60
:1009D0004FF400131360816A0022002980F8202060
:1009E000D8D0BDE810400847014600284FF001006C
:1009F00008BF70472DE9F043D1F800C04FF6F873F7
:100A0000CBF6FD734CF6CD426344CCF6CC42A3FB4F
:100A100002236FF0030202EA93020023C4F20203EE
:100A200001F10C08C1E90F320222D1E9019E98E8D8
:100A3000F00181F82120DCF8002043F6F0739A439E
:100A400042EA090242EA0E0222432A4332433A436F
:100A500042EA0802CCF8002000228A6381F82100D3
:100A600081F820200020BDE8F0437047B0B504466F
:100A700000F032F9054640F20000C2F200000078B2
:100A8000611C18BF044400BF00F026F9401BA042BF
:100A9000FAD3B0BD7047000040F21441C4F2010126
:100AA0000A68024214BF08607047FFF7F3BF0000F6
:100AB0002DE9F04F82B00E68002E00F0FD8041F26B
:100AC0000042C4F20102042340F2004E904208BFEB
:100AD00003234FF6FF7CC4F2010E00930024012390
:100AE000C1F2100C4FF0000A4FF000094BE000BFBC
:100AF00041F20002C4F20102009F904208BF0227A7
:100B000004F00C030F229A402BEA020207FA03F3C7
:100B10004FEA9A051A4346F825204E6840F20C45E4
:100B2000F202DEF8082054BF22EA080242EA080274
:100B3000C4F20105CEF808202A68B30254BF22EAA5
:100B4000080242EA08022A60B303DEF8042054BF18
:100B500022EA080242EA0802F303CEF80420DEF893
:100B600000204FF0010354BF22EA080242EA0802C3
:100B7000CEF800200E680AF1010A36FA0AF204F1F2
:100B8000040400F0998003FA0AFB16EA0B08F1D07E
:100B90004E68664512DC122E56D8DFE806F0350B9B
:100BA0004D49555555555555555555555555554519
:100BB000510000BFD1F80C9046E000BF4FF6FF7225
:100BC000C1F2210296420FDC0022C1F211029642CC
:100BD0001AD00022C1F21202964215D00022C1F2B0
:100BE0002102964210D02FE00022C1F2220296424A
:100BF0000AD00022C1F23102964205D00022C1F291
:100C00003202964220D100BF8A684AB1012A14BF3D
:100C1000C0F814B0C0F810B04FF0080914E000BFDD
:100C20004FF0040910E000BFCA6802F104090BE0AC
:100C30004FF0000908E000BFCA6802F1080903E0AC
:100C4000CA6802F10C0900BF02462646B8F5807F4B
:100C500024BF0432203E17680F25B54027EA05055A
:100C600009FA06F635431560CA79D2067FF582AFD8
:100C700041F21803C4F202031A68AEF57E7642F020
:100C800001021A601A6802F001020192019A2AF028
:100C9000030256F802B040F60002C4F2010290428C
:100CA00008D040F60042C4F2010290427FF420AF27
:100CB000012725E7002723E702B0BDE8F08F0000F9
:100CC0008068084018BF012070470000002A08BF54
:100CD000090401617047000043F2A840C2F200001D
:100CE00000687047002804BF01207047F0B581B04C
:100CF000044690F83D0028B9002084F83C002046C6
:100D000000F05AFA242084F83D002068016821F0A0
:100D100001010160016841F400410160016821F4B2
:100D20000041016000F0A0FC636848F2A16CC0F2D1
:100D3000010C40F60011C0F23D0163453CBF48F292
:100D40008041C0F21E01884202D2012001B0F0BDF4
:100D50004DF68361C4F21B31A0FB01122168970C90
:100D6000D1F804E04FF496762EF03F0545EA92451F
:100D70004D60774348F638160D6AC0F24106A7FB6E
:100D8000067625F03F07634538BF960C721C3A4340
:100D90000A62CA6948F2A0664CF6FF77C0F2010603
:100DA000B34222EA07020BD801385B00B0FBF3F034
:100DB00001306FF31F30042898BF04201BE000BFF0
:100DC000A768013857B119277B43B0FBF3F0013016
:100DD0006FF31F3070B100F5804007E003EB430371
:100DE000B0FBF3F001306FF31F3018B100F5004095
:100DF00001E000BF01201043C8610868D4E907235F
:100E000020F0C000104318430860886848F2FF32A1
:100E100004F10C0790438CCF18431043A6698860F7
:100E2000C86820F0FF0038433043C860086840F0CD
:100E30000100086000202021206484F83D10206318
:100E400084F83E0001B0F0BD2DE9F04F83B01E469E
:100E5000924688460446FFF73FFF94F83D1020294C
:100E600024D12168054600BF886980071AD5FFF79D
:100E700033FF401B21681A28F6D388698007F3D511
:100E800000202021206384F83D1084F83E00216C6E
:100E900041F02001216484F83C00022003B0BDE849
:100EA000F08F00BF94F83C00012803D1022003B06A
:100EB000BDE8F08F4FF0010984F83C900868C00746
:100EC00003D1086840F0010008600868002720F49A
:100ED00000600860242084F83D000020CFF6FF70F9
:100EE0002764E06208F0FE08BAF1010F88BFD1461E
:100EF0004FF0A00A4FF0200B04E000BF01374F4530
:100F000000F0A2800868002240F48070086020464B
:100F10004FF001113346009502F00AF921680028CC
:100F200056D1C1F81080FFF7D7FE21684B694A6996
:100F300094F83D50A02D054605D013F0020008BFDF
:100F400012F480601AD084F83DB048690A688007BE
:100F500042F400720A6045D46FF48060486100BFBB
:100F600088698007CAD5FFF7B7FE401B21681A2899
:100F7000F6D388698007F3D54AE000BFB6B100BF59
:100F8000FFF7AAFE401BB04288BF84F83DA021684D
:100F90004A69486994F83D30A02BD4D012F002027F
:100FA00008BF10F48060EBD0CDE700BFFFF794FEE0
:100FB00084F83DA021684A69486994F83D30A02B27
:100FC000C1D012F00202BED110F48060EED0BAE7B8
:100FD0000868C00544BF4FF400702064032003B0CC
:100FE000BDE8F08F00200290486902908869029065
:100FF0000298886901E000BF806980071AD5FFF771
:101000006BFE411B20681A29F6D381698907F3D545
:1010100000202021206384F83D1084F83E00216CDC
:1010200041F02001216484F83C00012003B0BDE8B8
:10103000F08F00BF202084F83D00002084F83C00A1
:1010400003B0BDE8F08F00BF202084F83D000020F1
:1010500084F83C00012003B0BDE8F08F2DE9F04397
:1010600083B0994616460F460446FFF735FE94F8BE
:101070003D10202924D10546206800BF81698907D9
:101080001AD5FFF729FE411B20681A29F6D381697A
:101090008907F3D500202021206384F83D1084F8CF
:1010A0003E00216C41F02001216484F83C000220C4
:1010B00003B0BDE8F08300BF94F83C10012903D1D0
:1010C000022003B0BDE8F083012284F83C200368CD
:1010D000DDE90B180A9ADB0703D1036843F001032B
:1010E0000360036823F400630360212084F83D005B
:1010F000402084F83E000020206462626185608D9B
:10110000394620850020CFF6FF70E0622046324647
:101110004B46CDE9008501F049FF18B1012003B02D
:10112000BDE8F083208D98B9204641462A4601F05B
:10113000A1FF88B3206C0428F0D12068016841F435
:1011400000710160012003B0BDE8F0830004EBD022
:10115000204641462A4602F03DF90028EAD1616A5C
:101160002268084610F8013B1361238D6062581E07
:101170002085678D013F678557697F07E6D507049E
:10118000E4D048781061881C6062981E2085618DCB
:1011900001396185DAE700BF2068016841F4007118
:1011A0000160202084F83D00002084F83E0084F88F
:1011B0003C0003B0BDE8F08310B586B0006845F68A
:1011C0000001C4F2000188424FF00001CDE9041192
:1011D000CDE9021132D045F20041C4F2000188424B
:1011E00050D141F21804C4F20204206802A940F070
:1011F00008002060206800F00800019001984FF47A
:1012000040700290122003900320059040F60040A9
:10121000C4F20100FFF74CFC0420C4F20100016895
:1012200041F0E06141F002010160606840F40010AB
:101230006060606800F4001022E000BF41F2180412
:10124000C4F20204206802A940F00800206020686F
:1012500000F00800019001984FF4406002901220C5
:1012600003900320059040F60040C4F20100FFF710
:101270001FFC606840F480006060606800F48000DB
:101280000190019806B010BD40F2000043F2A84161
:10129000C2F20000C2F2000100780A68104408603F
:1012A0007047000080B542F20000C4F202000168FD
:1012B00041F010010160032000F0C0F80F2000F0A1
:1012C00005F800F05BF8002080BD0000B0B586B0E6
:1012D00041F21C01C4F202010A68044642F0010214
:1012E0000A60096801A801F00101019101996946AC
:1012F00000F092F9049D002D18BF012500F0B4F90B
:101300004DF68361A840C4F21B31A0FB01014FF0F0
:10131000FF3000EB914140F24030C2F200004FF04C
:10132000804240F2E7330025C0E90021C0E90253C2
:101330000561856100F040FC10B106B0B0BD00BF92
:1013400040F24030C2F2000000F01AFD0028F4D153
:101350001C2000F035F80F2C0CD81C202146002250
:1013600000F040F840F204010020C2F200010C60DD
:1013700006B0B0BD012006B0B0BD000082B041F2A1
:101380001800C4F202000168022241F0010101606C
:10139000016801F0010101910199416841F080511A
:1013A0004160406800F08050009000980420C4F232
:1013B0000100016862F31A61016002B07047000029
:1013C000002848BF704700F01F01012202FA01F116
:1013D0001C2202EAD0004EF20012CEF2000281502E
:1013E0007047000010B54EF60C5CCEF2000CDCF835
:1013F0000030C3F3022E8EF00704042C28BF04240F
:10140000BEF103034FF0FF3E0EFA04F438BF002391
:10141000A14399400EFA03F39A43114300F00F02DF
:1014200000F160430901043A03F564436244002873
:1014300048BF02F10C03197010BD00004EF60C51AC
:10144000CEF200010A684FF6FF031A4060F30A2249
:1014500042F0806040F0FD7008607047002804BFD3
:10146000012070472DE9F04381B042F20008C4F238
:1014700002080446D8F800000D4600F00700884234
:101480000CD2D8F8000020F007002843C8F800006C
:10149000D8F8000000F00700A8426CD1206841F2A3
:1014A00004098107C4F2020917D5410705D5D9F807
:1014B000001041F4E061C9F80010010705D5D9F822
:1014C000001041F46051C9F80010D9F80010A2686A
:1014D00021F0F0011143C9F80010C00742D1D8F83B
:1014E000000000F00700A8420CD9D8F8000020F056
:1014F00007002843C8F80000D8F8000000F00700F3
:10150000A84238D12068410707D5D9F80010E26811
:1015100021F4E0611143C9F80010000708D5D9F89B
:101520000000216920F4605040EAC100C9F80000C1
:10153000D9F8002002F00C00082841F20020C0F287
:101540007A004DD146F2B203C2F38341C0F60003E4
:10155000595CD20338D440F60010C0F23D00484335
:101560003EE000BF606859F8041C022808D001283A
:1015700026D1890306D4012001B0BDE8F08300BF65
:101580008901F8D5D9F8001021F003010843C9F802
:101590000000FFF7A1FB064641F28837D9F80000AA
:1015A000616800F00C00B0EB810F98D0FFF794FB5E
:1015B000801BB842F2D9032001B0BDE8F08300BF20
:1015C0008907D8D5DEE700BFD9F8002045F6B0730B
:1015D000C2F34042C0F600039A5C4843B0FBF2F00D
:1015E000D9F8001045F69872C1F30311C0F6000255
:1015F000515C40F2080220FA01F140F20400C2F20C
:1016000000000068C2F200021160FFF75FFE0020D8
:1016100001B0BDE8F08300000F22026041F2040235
:10162000C4F20202136803F003034360136803F07B
:10163000F0038360136803F4E063C36012684FF43F
:10164000E06303EAD202026142F20000C4F2020047
:10165000006800F0070008607047000040F20800D2
:10166000C2F200000068704740F2080041F2040135
:10167000C2F20000C4F202010068096845F6A872CF
:10168000C1F30221C0F60002515CC840704700005F
:1016900040F2080041F20401C2F20000C4F202016B
:1016A0000068096845F6A872C1F3C221C0F60002BD
:1016B000515CC84070470000002804BF01207047FB
:1016C0002DE9F04182B00446007841F20006C007DF
:1016D000C4F202060CD0706800F00C00042840F040
:1016E00081803068800303D56068002800F046815F
:1016F000207880071BD5706810F00C0F09D0706837
:1017000000F00C00082840F087807068C00300F1EA
:1017100083803068800703D52069012840F02E813E
:101720003068616920F0F80040EAC100306020783C
:10173000000713D4207840072CD4E569002D00F071
:101740001881706800F00C00082840F0A780012D77
:1017500040F00481012002B0BDE8F081A0690028BA
:1017600000F084800020C4F242200121C0F88014DF
:10177000FFF7B2FA054600BF706A800700F1B28039
:10178000FFF7AAFA401B0228F6D9032002B0BDE8F1
:10179000F08100BFF0695FEAC00808D4F06940F04A
:1017A0008050F061F06900F080500090009847F29E
:1017B0000007C4F200073868C00549D4386840F40F
:1017C00080703860FFF788FA054600BF3868C005AA
:1017D0003ED4FFF781FA401B6428F7D9032002B0FA
:1017E000BDE8F081706800F00C00082803D1706833
:1017F000C0033FF576AF61683068002900F00C81C6
:10180000B1F5A02F00F00081B1F5803F40F01A81C2
:1018100040F480301CE100BF2069002840F2000045
:10182000C4F2422000F0888001210160FFF754FAE1
:10183000054600BF306880073FF572AFFFF74CFAEE
:10184000401B0228F6D9032002B0BDE8F08100BF9A
:10185000E168306A002900F09D80052900F092803F
:10186000012940F0AF8040F00100B1E00020C4F257
:1018700042200021C0F88014FFF72EFA054600BF71
:10188000706A80077FF556AFFFF726FA401B0228E3
:10189000F6D9032002B0BDE8F08100BF0027C4F2F2
:1018A000422700203866FFF717FA022D05460DD1B2
:1018B0003068800140F1DE80FFF70EFA401B0228FD
:1018C0004FF00300F4D902B0BDE8F0813068800128
:1018D0004FD5FFF701FA401B02284FF00300F5D95E
:1018E000F1E700BF40F20800C2F20000006844F6D1
:1018F000D351C1F26201A0FB0101480A019000BF6F
:1019000000BF0198411E002801913FF413AF00BFB2
:101910000198411E002801913FF40CAF00BF0198CF
:10192000411E002801913FF405AF00BF0198411E00
:1019300000280191E4D1FDE600210160FFF7CCF918
:10194000054600BF306880077FF5F1AEFFF7C4F9A8
:10195000401B02284FF00300F4D9B4E77068216AF5
:1019600000F480328A4209D1616A00F47010884222
:1019700004D1002002B0BDE8F08100BF012002B018
:10198000BDE8F08140F004003062306A40F00100B0
:101990001EE000BF20F001003062306A20F0040039
:1019A0003062FFF799F9054641F28837306A8007BF
:1019B00020D5FFF791F9401BB8424FF00300F5D94D
:1019C00081E700BF20F001003062306A20F004009F
:1019D0003062FFF781F9054641F28837306A8007A7
:1019E00008D4FFF779F9401BB842F7D9032002B0B9
:1019F000BDE8F081B8F1000F3FF59FAEF06920F02F
:101A00008050F06199E600BF40F48020306030687B
:101A100040F480301CE000BF20F48030306030683B
:101A200020F480203060FFF757F9054630688003C6
:101A30007FF55EAEFFF750F9401B64284FF00300BE
:101A4000F4D940E720F480303060306820F4802002
:101A50003060FFF741F90546306880033FF548AE36
:101A6000FFF73AF9401B6428F6D9032002B0BDE81D
:101A7000F08100BF206AB0F5803F05D17168A2688F
:101A800021F40031114371607168626A21F47411AC
:101A900011430843706001203866FFF71DF90446C2
:101AA000306880013FF565AFFFF716F9001B02288B
:101AB0004FF00300F4D906E7411E0020B0EB116F90
:101AC0001CBF012070474EF21002CEF2000251609E
:101AD0004EF62351CEF20001F0230B7007219060E7
:101AE00011607047704700007047000090F83C207C
:101AF000012A04BF02207047B0B501F108053CCDB2
:101B0000D1E900CE23F47C5322F470521A432EF410
:101B1000F0431A432CF4E0431A4324F4C0431A431D
:101B20002A43C96922F480420368114359640021A1
:101B300080F83C100020B0BD90F83C20012A4FF006
:101B4000020236D010B580F83D200268D2F804E0D9
:101B5000D2F808C00C682EF07003234340F2FF74E3
:101B6000C4F20004A24253600ADCB2F1804F13D0E9
:101B700040F20043C4F200039A420DD011E000BFCE
:101B800042F60043C4F201039A4205D040F6000336
:101B9000C4F200039A4204D149682CF0800319432F
:101BA00091600121002280F83D1080F83C20BDE8C2
:101BB0001040104670470000002804BF0120704705
:101BC00010B590F83D1031B9002180F83C10044662
:101BD00000F070F82046022180F83D10016840F2C4
:101BE000FF740B68C4F2000442F6004CA142C4F238
:101BF000010C15DCB1F1804F1AD040F20042C4F262
:101C00000002914214D0A14218DCB1F1804F1DD0E6
:101C100040F20042C4F20002914217D01AE000BF25
:101C2000614505D040F60002C4F200029142EAD1BB
:101C3000826823F070031343A142E6DD614505D0BD
:101C400040F60002C4F20002914203D1026923F47B
:101C500040731343846923F08002D0F804E0C36822
:101C6000224361450A60CB62C1F828E002D1426993
:101C7000CCF8302001224A610B69DB0703D00B69E5
:101C800023F001030B6180F8462080F83E2080F8A5
:101C90003F2080F8402080F8412080F8422080F8E2
:101CA000432080F8442080F8452080F83D20002023
:101CB00010BD000070B586B0006840F60001C4F2A7
:101CC000000188424FF00001CDE90411CDE9021175
:101CD00046D040F20041C4F2000188424DD141F2A9
:101CE0001800C4F20200416840F6000441F002010D
:101CF00041604168C4F2010401F0020101910199BF
:101D0000016802AD41F0040101600168002601F0A4
:101D1000040101910199016841F008010160006826
:101D2000294600F0080001900198C020029020464A
:101D3000CDE90366FEF7BCFE0320CDE9020604F5FB
:101D4000806029460496FEF7B3FE1D200021002284
:101D5000FFF748FB1D20FFF733FB06B070BD00BF47
:101D600041F21800C4F20200416841F004014160F0
:101D7000406800F004000190019806B070BD0000BA
:101D800090F83D1001291CBF01207047022180F806
:101D90003D10006840F2FF72C168C4F20002904238
:101DA00041F00101C16009DCB0F1804F12D040F276
:101DB0000041C4F2000188420CD012E042F600411A
:101DC000C4F20101884205D040F60001C4F20001CE
:101DD000884206D1816801F00701062904BF00206E
:101DE0007047016841F00101016000207047000068
:101DF00090F83C20012A4FF002026CD080B580F8A8
:101E00003D20D0F800C04FF67772DCF8083023EAA6
:101E10000202CCF808200B684F2B29DC1F2B45DD74
:101E2000202B46D0302B44D0402B40F0AF80D1F84F
:101E300004E0C968DCF82030DCF8202022F0010240
:101E4000CCF82020DCF8182022F0F00242EA011140
:101E500023F00A0242EA0E02CCF81810CCF8202037
:101E6000DCF8081041F0470121F0300128E000BF04
:101E70006F2B33DDB3F5005F74D0B3F5805F21D0F5
:101E8000702B40F08380D1E901E3C968DCF80820B9
:101E900043EA0E0322F47F4243EA01211143CCF8C6
:101EA0000810DCF8081041F0770109E00BB1102BA5
:101EB0006CD1DCF8081021F07001194341F00701E2
:101EC000CCF808100022012180F83D10002180F894
:101ED0003C10BDE880401046704700BF502B21D019
:101EE000602B53D1D1F804E0C968DCF82030DCF86D
:101EF000202022F01002CCF82020DCF8182022F458
:101F0000704242EA013123F0A00242EA0E12CCF8FC
:101F10001810CCF82020DCF8081041F0670121F0FF
:101F20001001CDE7D1F804E0C968DCF82030DCF816
:101F3000202022F00102CCF82020DCF8182022F02A
:101F4000F00242EA011123F00A0242EA0E02CCF842
:101F50001810CCF82020DCF8081041F0570121F0CF
:101F60002001ADE7D1E901E3C968DCF8082043EAC4
:101F70000E0322F47F4243EA01211143CCF80810FA
:101F8000DCF8081041F480419AE700BF01229AE78B
:101F900080B540F22042C4F200020168A2F12003A1
:101FA000994201D080BD00BF007F0138072888BF5B
:101FB00080BDDFE800F0075B052F0505058500BF44
:101FC000F0E700BF40F22053C2F20003D2F814E061
:101FD000987E40F2C801C2F2000101F1080C02280B
:101FE00003F10C0100F0EC80012800F0B98068B921
:101FF000106820F00A001060106840F002001060C5
:10200000002018830120C3F800E098760868ACF837
:10201000000080BD40F22053C2F20003D2F81CE061
:1020200093F8520040F2C801C2F2000101F1200C05
:10203000022803F1440100F0898001286CD00028B7
:10204000E4D1106820F400701060106840F4007053
:1020500010600020A3F850000120C3F838E083F896
:1020600052000868ACF8000080BD00BF40F2205369
:10207000C2F20003D2F818E093F8360040F2C8012B
:10208000C2F2000101F1140C022803F1280100F052
:102090009F8001287CD00028B8D1106820F0A000D3
:1020A0001060106840F02000106000209886012029
:1020B000C3F81CE083F836000868ACF8000080BD67
:1020C00040F22053C2F20003D2F820E093F86E00F1
:1020D00040F2C801C2F2000101F12C0C022803F108
:1020E000600100F0978001287AD000288ED1106816
:1020F00020F400501060106840F400501060002080
:10210000A3F86C00C3F854E0012083F86E0008685F
:10211000ACF8000080BD00BF106820F400701060B3
:1021200010681060C3F840E0B3F85000D26802FBBA
:1021300000E09A6B801A58640020A3F85000022037
:1021400083F852000868ACF8000080BD0020A3F8B6
:10215000500083F852000868ACF8000080BD00BF52
:10216000106820F00A00106010681060C3F808E0E2
:10217000188BD26802FB00E01A68801AD860002031
:102180001883022098760868ACF8000080BD00BF74
:10219000106820F0A000106010681060C3F824E000
:1021A000988ED26802FB00E0DA69801A98620020FB
:1021B0009886022083F836000868ACF8000080BDDD
:1021C0000020188398760868ACF8000080BD00BF36
:1021D0000020988683F836000868ACF8000080BDBF
:1021E000106820F40050106010681060C3F85CE0C4
:1021F000B3F86C00D26802FB00E05A6D801A1866D2
:102200000020A3F86C00022083F86E000868ACF888
:10221000000080BD0020A3F86C0083F86E00086801
:10222000ACF8000080BD000090F83C30012B04BFEA
:10223000022070474FEAB202032A00F28580F0B50F
:10224000DFE802F0025C203E0368D1E900C5D1F866
:102250000CE01C6A1A6A40F2FF7722F001021A624F
:102260001A4652F8186FC4F20007BB4272DCB3F191
:10227000804F7BD040F20047C4F20007BB4275D0CC
:1022800090E000BF0768D1E900C5D1E902313C6A9E
:102290003A6A61F3071522F480723A623A4652F8BC
:1022A0001C6F26F0F30645EA06014FEA5C0666F36A
:1022B000492411603C62116821F00C01116066E054
:1022C0000368D1E900E6D1E902C11C6A1A6A360244
:1022D00022F480521A621A4652F81C5F4FF2FF072E
:1022E000BE4325F4734561F30F364FEA5E0746EAB5
:1022F000050167F34D3411601C621EE00368D1E9EB
:1023000000E6D1E902C11C6A1A6A360222F0100204
:102310001A621A4652F8185F4FF2FF07BE4325F4BF
:10232000734561F30F3624F0A0040EF00A0746EA65
:10233000050144EA071711601F6211684FEA0C2378
:1023400021F44061116022E00121002280F83C204C
:102350000846704742F60047C4F20107BB4205D069
:1023600040F60007C4F20007BB421BD126F003066B
:10237000354324F00A070CF00A066EF307153744BC
:102380009D611F629F6927F00C079F618B68116830
:10239000194311600021BDE8F040002280F83C2084
:1023A0000846704746F00105E3E70000002804BF37
:1023B0000120704710B590F83D1031B9002180F828
:1023C0003C10044600F070F82046022180F83D10D1
:1023D000016840F2FF740B68C4F2000442F6004C3E
:1023E000A142C4F2010C15DCB1F1804F1AD040F2C9
:1023F0000042C4F20002914214D0A14218DCB1F1B3
:10240000804F1DD040F20042C4F20002914217D02A
:102410001AE000BF614505D040F60002C4F2000298
:102420009142EAD1826823F070031343A142E6DDB2
:10243000614505D040F60002C4F20002914203D18A
:10244000026923F440731343846923F08002D0F8B7
:1024500004E0C368224361450A60CB62C1F828E00A
:1024600002D14269CCF8302001224A610B69DB07B6
:1024700003D00B6923F001030B6180F8462080F83C
:102480003E2080F83F2080F8402080F8412080F8EE
:10249000422080F8432080F8442080F8452080F8CE
:1024A0003D20002010BD00007047000031B304291A
:1024B00008D0082919BF4FF0450C41234FF0440CB8
:1024C000402302E04FF0430C3F23C25C10F80C3075
:1024D000012A4FF0010208BF012B5FD10222082917
:1024E00022D0042950D180F83F2080F843204FEAC1
:1024F000B103032B4FF0010220D94FE090F83E20AA
:1025000090F84230012A4FF0010208BF012B45D15B
:10251000022280F83E2080F842204FEAB103032BCC
:102520004FF001020AD939E080F8402080F84420B9
:102530004FEAB103032B4FF001022FD846F2C40C2F
:102540000068C0F6000C5CF823C0C36801F01F01EE
:1025500043EA0C03C360036A02FA01F123EA0102B1
:102560000262026A114340F2FF72C4F2000290421A
:10257000016215DCB0F1804F1ED040F20041C4F280
:102580000001884218D01EE080F8412080F84520E4
:102590004FEAB103032B4FF00102CFD91046704729
:1025A00042F60041C4F20101884205D040F6000124
:1025B000C4F20001884206D1816801F007010629B2
:1025C00004BF00207047016841F001010160002054
:1025D0007047000070B504460068C5680669B10719
:1025E00016D515F0020113D06FF00201016101212F
:1025F00021778069800703D02046FFF7C9FC05E0FA
:10260000204600F08FF8204600F026FA00202077C0
:10261000700719D515F0040016D020686FF004017A
:10262000016102212177806910F4407F04D02046A7
:10263000FFF7AEFC06E000BF204600F073F820462E
:1026400000F00AFA00202077300717D515F00800AF
:1026500014D020686FF00801016104212177C0695E
:10266000800703D02046FFF793FC05E0204600F0EA
:1026700059F8204600F0F0F900202077F00619D52F
:1026800015F0100016D020686FF0100101610821CC
:102690002177C06910F4407F04D02046FFF778FC12
:1026A00006E000BF204600F03DF8204600F0D4F9D7
:1026B00000202077F00718BF15F0010002D1300686
:1026C00009D412E020686FF001010161204600F09A
:1026D00033FA300609D515F0800006D020686FF077
:1026E000800101612046FFF7FDF9700609D515F05C
:1026F000400006D020686FF040010161204600F0E4
:1027000041FAB00658BF70BD15F0200008D021680E
:102710006FF0200220460A61BDE87040FFF7E4B97F
:1027200070BD00007047000090F83C30012B04BFE2
:10273000022070474FEAB202032A00F2F1802DE92D
:10274000F043DFE802F003A53B7500BF036842F6E3
:1027500000461D6A1A6AC4F2010622F001021A62DA
:102760001A465C6852F818CFB3428E68D1F800E080
:1027700025F0020545EA06050CD1CE68D1E90578B9
:1027800024F4407425F00C0526F004063C43354340
:1027900044EA08042CF0730747EA0E075C609F6167
:1027A0004F6809695F631D629F6947F008079F6171
:1027B0009F6927F004079F61A6E000BF036842F607
:1027C00000461D6A1A6AC4F2010622F480721A6277
:1027D0001A46D3F804C052F81CEFB3428E680C6856
:1027E00025F4007545EA06250FD1CE68D1E9059894
:1027F000360240F2FF4725F44065BE4335432CF4D2
:10280000405748EA090647EA061C2EF0730727439B
:10281000C3F804C0DF614F680969DF631D62DF69C7
:1028200047F00807DF61DF6927F00407DF616BE02D
:10283000036842F60047D3F820C01A6AC4F20107C1
:1028400022F480521A621A465C6852F81C5FD1F872
:1028500000E08E68BB4204D14F6924F4804444EA0E
:1028600087142CF4005747EA063725F4E64646EA73
:102870000E265C60DE614E6809691E641F62DF69B6
:1028800047F40067DF61DF6927F48067DF613AE0C2
:10289000036842F600461D6A1A6AC4F2010622F075
:1028A00010021A621A46D3F804C052F8184FB34205
:1028B0008E68D1F800E025F0200545EA06150FD115
:1028C000CE68D1E905986FF0400725F0C00507EA0A
:1028D000061635432CF4406748EA090647EA860C99
:1028E00024F4E64444EA0E27C3F804C09F614F680D
:1028F00009699F631D629F6947F400679F619F6933
:1029000027F480679F610902136819431160002151
:10291000BDE8F043002280F83C200846704700BF25
:102920000121002280F83C2008467047002804BF9F
:102930000120704710B590F83D1031B9002180F8A2
:102940003C10044600F070F82046022180F83D104B
:10295000016840F2FF740B68C4F2000442F6004CB8
:10296000A142C4F2010C15DCB1F1804F1AD040F243
:102970000042C4F20002914214D0A14218DCB1F12D
:10298000804F1DD040F20042C4F20002914217D0A5
:102990001AE000BF614505D040F60002C4F2000213
:1029A0009142EAD1826823F070031343A142E6DD2D
:1029B000614505D040F60002C4F20002914203D105
:1029C000026923F440731343846923F08002D0F832
:1029D00004E0C368224361450A60CB62C1F828E085
:1029E00002D14269CCF8302001224A610B69DB0731
:1029F00003D00B6923F001030B6180F8462080F8B7
:102A00003E2080F83F2080F8402080F8412080F868
:102A1000422080F8432080F8442080F8452080F848
:102A20003D20002010BD0000006842F60041C4F2C5
:102A30000101884218BF704781B041F21800C4F20A
:102A40000200016841F400610160006800F4006068
:102A50000090009801B0704770470000C1B1042990
:102A600008D0082914BF41224022825C012A05D0E7
:102A700016E000BF3F22825C012A11D10222082900
:102A800010D0042914BF80F8412080F83F200BE0CB
:102A900090F83E20012A03D1022280F83E2003E074
:102AA0000120704780F84020006801F01F010122DA
:102AB000036A8A4023EA02010162036A42F6444142
:102AC000C4F201011A43A1F14403984202620FD0FB
:102AD00040F2FF71C4F20001884213DCB0F1804F74
:102AE0001CD040F20041C4F20001884216D01CE024
:102AF0000A6842F400420A6040F2FF71C4F2000129
:102B00008842EBDD42F60041C4F20101884205D063
:102B100040F60001C4F20001884206D1816801F04C
:102B20000701062904BF00207047016841F0010138
:102B3000016000207047000010B504460068B0F145
:102B4000804F02D1FEF7A0FB206840F20041C4F2A2
:102B50000001884218BF10BD40F22050C2F20000B0
:102B6000018B828E01310183511CB0F85020818687
:102B7000511CB0F86C20A0F85010511CA0F86C103B
:102B800010BD000070470000002804BF01207047FE
:102B900010B5044690F8410028B9002084F84000A0
:102BA000204600F063F8242084F841002068D4E92E
:102BB0000212C36823F40053C360036923F4405333
:102BC0001A430261D4E904231143C268194341F254
:102BD0000C639A431143C1604169A26921F44071B9
:102BE000114343F60002C4F201029042416103D056
:102BF000FEF73AFD02E000BFFEF74AFDD4E90023EC
:102C0000192148439900B0FBF1F048F21F5CC5F26E
:102C1000EB1CA0FB0C314FF69C734909C0F6FF7307
:102C200001FB0300322303EB0010A0FB0C03F02098
:102C300000EA531000EB0110C3F343110844906005
:102C40001069202120F490401061506920F02A0082
:102C50005061D06840F40050D0600020606484F877
:102C6000411084F84210606310BD00002DE9F0416E
:102C700086B00446006844F20041C4F20001002717
:102C800088420597CDE90377029761D043F60001AA
:102C9000C4F20101884240F0BB8041F21800C4F246
:102CA0000200016840F6000541F4804101600168BE
:102CB000C4F2010501F4804101910199016802AE5D
:102CC00041F004010160006840F2440800F0040093
:102CD000019001984FF400700290022003900320AD
:102CE000059028463146C4F20208FDF7E1FE4FF494
:102CF00080600290002728463146CDE90377FDF732
:102D0000D7FE40F2401508F11400C2F200058026FB
:102D1000C5E900072846C5E90276C5E90477C5E993
:102D20000677FDF761FE002818BFFDF787FDE56314
:102D30006C6240F28415C2F200051020C5E90080E3
:102D4000C5E90276C5E90477C5E9067757E000BF13
:102D500041F21800C4F20200416840F6000541F457
:102D6000003141604168C4F2010501F40031019174
:102D70000199016802AE41F004010160006840F26F
:102D8000440800F004000190019804200290022001
:102D900003900320059028463146C4F20208FDF74F
:102DA00087FE0820CDE90207284631460497FDF743
:102DB0007FFE40F2C81508F12800C2F20005802607
:102DC000C5E900072846C5E90276C5E90477C5E9E3
:102DD0000677FDF709FE002818BFFDF72FFDE56314
:102DE0006C6240F20C2508F13C00C2F200050022A2
:102DF000102185E84700C5E90422C5E906222846D6
:102E0000FDF7F2FD002818BFFDF718FDA5636C6201
:102E100006B0BDE8F08100002DE9F04381B0044622
:102E200090F84100202809D100294FF0010018BF77
:102E3000002A07D101B0BDE8F08300BF022001B035
:102E4000BDE8F0830020606421201D460E4684F812
:102E500041001746FDF740FFA784E784A16881463B
:102E6000B1F5805F02D1206900285DD0374600208F
:102E7000E28C2168002A5DD06A1C24D0002D4AD043
:102E8000804600BF0868000608D4FDF725FFA0EBC8
:102E90000900A8427AD82168C868F3E717B117F883
:102EA000010B04E038F8020B00276FF35F20486045
:102EB000E08C0138E084E08C0028E3D13AE000BFE8
:102EC0000A68120609D40A68120606D40A681206AD
:102ED0005CBF0A685FEA0262F2D51FB117F8012BE6
:102EE00005E000BF30F8022B00276FF35F224A6035
:102EF000E28C013AE284E28C002AE4D11AE000BFBD
:102F000030F8022B00276FF35F224A60E28C013A0F
:102F1000E284E28C72B10A68120635D5002FEFD038
:102F200017F8012BF1E700BF00273046E28C21683B
:102F3000002AA1D1086840061ED42DB3681C14D104
:102F4000086840062AD40868400627D40868400666
:102F500024D4086840064FF00000F1D50DE000BF12
:102F60002068C1680068400618D4FDF7B5FEA0EBE4
:102F70000900A842F4D909E00020202184F841107A
:102F800001B0BDE8F08300BFFDF7A6FE03202021BD
:102F900084F8411001B0BDE8F08300BF002020217B
:102FA00084F8411001B0BDE8F08300002DE9F04342
:102FB00083B0044600680F4601680A9D0B9E41F4E9
:102FC000807199469046016020464FF00111002221
:102FD0002B46009600F0ACF850B120680068C005A0
:102FE00044BF4FF400702064032003B0BDE8F083B9
:102FF000206807F0FE0101610221C0F201012046B4
:103000002A46334600F07AF920B1012003B0BDE82A
:10301000F08300BF0020029020683246416902918F
:103020008069294602900298204600F0D3F958B1F1
:10303000206C0428E9D12068016841F40071016026
:10304000012003B0BDE8F0832068B9F1010F0AD078
:103050004FEA1821016120462946324600F0BAF9AC
:103060000028E5D120685FFA88F10161002003B0F3
:10307000BDE8F08370B50368044653F8140F4007A9
:1030800011D40E46481C29D086BB00BF18684005E5
:1030900027D4FDF721FE236853F8140F400737D5D6
:1030A00018684007F2D5002070BD00BF18684007BF
:1030B000F9D41868400514D418684007F3D4186888
:1030C00040050ED418684007EDD41868400508D4B0
:1030D000186840074FF0000048BF70BD18684005F1
:1030E000E4D56FF480601860042012E0154603E018
:1030F00053F8140F4007D6D418684005F1D4FDF7F3
:10310000EBFD401B2368B042F2D958694007EFD469
:10311000202000212022216384F83D2084F83E10E5
:10312000226C10432064012084F83C1070BD000024
:103130002DE9F041054600681E46144601F47F0261
:1031400001338FB242D0DDF81880B2F5803F40F0F5
:10315000878040693840C01BB0FA80F04009A04227
:1031600040F0C8804EB924E040693840C01BB0FA36
:1031700080F04009A04240F0BD80FDF7ADFDA0EB1E
:1031800008012868B142EFD941693940C91BB1FA39
:1031900081F14909A142E7D19BE000BF4069384075
:1031A000C01BB0FA80F04009A0424FF0000040F090
:1031B000A280FDF791FD286841693940C91BB1FA29
:1031C00081F14909A142E9D183E000BFB2F5803F16
:1031D00024D100BF41693940C91BB1FA81F14909C5
:1031E000A14240F0878041693940C91BB1FA81F1A1
:1031F0004909A14240F07E8041693940C91BB1FABA
:1032000081F14909A14275D141693940C91BB1FA1F
:1032100081F14909A142DDD06CE000BF81693940EC
:10322000C91BB1FA81F14909A14263D181693940D1
:10323000C91BB1FA81F14909A1425BD181693940C9
:10324000C91BB1FA81F14909A14253D181693940C1
:10325000C91BB1FA81F14909A142DFD04AE000BFA0
:1032600080693840C01BB0FA80F04009A04241D1CB
:1032700046B923E080693840C01BB0FA80F04009AD
:10328000A04237D1FDF728FDA0EB08012868B14224
:10329000F0D981693940C91BB1FA81F14909A142CC
:1032A000E8D116E080693840C01BB0FA80F04009D0
:1032B000A0424FF0000018BFBDE8F081FDF70CFD03
:1032C000286881693940C91BB1FA81F14909A142D5
:1032D000E8D100202021286385F83D1085F83E00C4
:1032E000296C41F02001296485F83C000120BDE8EB
:1032F000F08100BF0020BDE8F0810000F0B581B092
:10330000044600681D4643698FB203EA0701B942CB
:1033100002D1002001B0F0BD4169164601323CD017
:10332000490512D47EB300BFFDF7D6FC411B2068CF
:10333000B14203D941693940B9422BD14169394081
:10334000B942E6D041694905EED5016841F4007102
:1033500001606FF48061416104200021202221631B
:1033600084F83D2084F83E10226C1043206484F8D9
:103370003C10012001B0F0BD41693940B942C8D0CC
:1033800041694905E1D4FDF7A7FC2068416939404E
:10339000B942F1D02020E0E741694905D5D441691F
:1033A0003940B942B5D041694905CED44169394067
:1033B000B942AED041694905C7D441693940B942E3
:1033C000A7D041694905C0D441693940B942E3D128
:1033D0009FE7000070B50368044653F8140F000619
:1033E00011D40E46481C29D086BB00BF1868400582
:1033F00027D4FDF771FC236853F8140F000637D566
:1034000018680006F2D5002070BD00BF18680006DD
:10341000F9D41868400514D418680006F3D4186865
:1034200040050ED418680006EDD41868400508D48D
:10343000186800064FF0000048BF70BD18684005CE
:10344000E4D56FF480601860042012E0154603E0B4
:1034500053F8140F0006D6D418684005F1D4FDF7D0
:103460003BFC401B2368B042F2D958690006EFD4F8
:10347000202000212022216384F83D2084F83E1082
:10348000226C10432064012084F83C1070BD0000C1
:103490002DE9F04186B00B4640F264070446016016
:1034A0000271C2F2000700255100184603220223D0
:1034B0003D60BD600226FDF7C7FC18B1284606B086
:1034C000BDE8F08180212068ADF812100DF11201E5
:1034D0004FF47A788DE842018021002201230125F2
:1034E000FDF7BCFD0120FDF7C1FA00200021C4F268
:1034F0002060C4F2A001C7E9001028214FF07A52E1
:103500002068ADF8141005A9BA60CDE90016802135
:1035100005220123CDF80880FDF7A0FD49F60171D1
:103520002068ADF816100DF11601CDE900168021C6
:1035300000220123CDF80880FDF790FD284606B053
:10354000BDE8F08180B582B041F21400C4F20200FF
:103550000168002241F0010101600068002100F0D3
:103560000100019001980E20FDF73CFF0E20FDF7B1
:1035700027FF0F2000210022FDF734FF0F20FDF769
:103580001FFF102000210022FDF72CFF1020FDF767
:1035900017FF112000210022FDF724FF112002B0A7
:1035A000BDE88040FDF70CBF2DE9F04F85B04FF02E
:1035B000000B41F21800CDE903BBCDE901BBC4F219
:1035C0000200016840F6000841F010010160016846
:1035D000C4F2010801F0100100910099016808F59A
:1035E000006741F0200101600168012201F0200123
:1035F0000091009901684FF4604441F004010160BA
:1036000001684FF0010901F004010091009901687F
:1036100041F00801016000684FF4604100F00800CB
:10362000009000983846FDF751FB40464FF410419A
:103630000022FDF74BFB08F5806528463821002263
:103640004FF0380AFDF742FB01AECDE901490224F3
:1036500038463146CDF80C900494FDF729FA4046DF
:103660003146CDE9014BCDF80C90FDF721FA302021
:10367000CDE9010B404631460394FDF719FA0420C9
:10368000CDE9010B28463146CDF80CB0FDF710FA14
:103690004FF4704001900020C1F23100CDE9020BDF
:1036A00028463146FDF704FA4FF48050CDE9010970
:1036B00040463146CDE90344FDF7FAF94FF40040A6
:1036C00001A981E8010A404631460494FDF7F0F96A
:1036D00028463146CDE901A9CDE903B4FDF7E8F963
:1036E000282000210022FDF77DFE2820FDF768FE3E
:1036F00005B0BDE8F08F000080B540F2502045F2E3
:103700000041C2F20000C4F2000148F2A0620023AE
:103710004FF4804CC0F2010280E80E00C0E9033C87
:10372000C0E90533C0E90733FDF7DCFA002808BF1C
:1037300080BDBDE88040FDF781B8000080B540F253
:10374000A42045F60001C2F20000C4F2000148F2D4
:10375000A06200234FF4804CC0F2010280E80E000A
:10376000C0E9033CC0E90533C0E90733FDF7BAFA05
:10377000002808BF80BDBDE88040FDF75FB80000AD
:1037800070B598B040F60004C4F2010440F2F8208D
:10379000002104F51052C2F2000047233126119196
:1037A000CDE90F11CDE90D11CDE90B11CDE90911CD
:1037B000CDE90711CDE90511CDE90311CDE90111DD
:1037C000C0E90023C0E90216C0E904118161FFF7D6
:1037D000ADF8002818BFFDF731F840F2F820C2F22A
:1037E000000010A9FEF7A8F9002818BFFDF726F879
:1037F00060200990002002210A90CDE90B10CDE94C
:103800000D000F9040F2F820C2F2000009A900223A
:10381000FEF78AFF002818BFFDF710F840F2F820E5
:10382000C2F2000009A90C22FEF77EFF002818BF93
:10383000FDF704F840F2F8254FF40050C2F20005FD
:103840000026069001A928460596CDE90366CDE934
:1038500001660896FEF74AF9002818BFFCF7EEFF4C
:10386000286840F60001C4F2000188421796CDE9AD
:103870001566149616D042F60041C4F20101884242
:1038800028D141F21800C4F20200016841F004019D
:103890000160006800F00400139013984FF410606A
:1038A00010E000BF41F21800C4F20200016804F504
:1038B000806441F008010160006800F00800139086
:1038C0001398C020149002201590179014A9204638
:1038D000FDF7EEF818B070BD10B58AB040F2883030
:1038E00040F200420021C2F20000C4F200024FF692
:1038F000FF730991CDE90711CDE90411CDE902115A
:10390000CDE90011C0E90021C0E902130161816124
:10391000FEF752F9002818BFFCF790FF4FF48050D3
:10392000069040F28830C2F2000006A9FEF760FA65
:10393000002818BFFCF782FF40F28830C2F2000076
:10394000FEF734FD002818BFFCF778FF40F28830FE
:103950000024C2F2000004A9CDE90444FEF7ECF80B
:10396000002818BFFCF76AFF0120CDE9010440F2EE
:103970008830C2F200006946002200940394FEF7EA
:1039800053FC002818BFFCF759FF40F28830C2F200
:10399000000069460422FEF747FC002818BFFCF728
:1039A0004DFF40F28830C2F2000069460822FEF75F
:1039B0003BFC002818BFFCF741FF40F28830C2F200
:1039C000000069460C22FEF72FFC002818BFFCF708
:1039D00035FF0AB010BD0000B0B594B040F6000548
:1039E00040F2D030C4F200050021C2F200004722AC
:1039F00031230E91CDE90C110991CDE90711CDE9E3
:103A00000511CDE90311CDE90111C0E90052C0E96A
:103A1000021301618161FEF7CFF8002818BFFCF79F
:103A20000DFF4FF480500B9040F2D030C2F20000F6
:103A30000BA9FEF7DDF9002818BFFCF7FFFE40F2E6
:103A4000D030C2F20000FEF771FF002818BFFCF76B
:103A5000F5FE40F2D0300024C2F2000008A9CDE902
:103A60000844FEF769F8002818BFFCF7E7FE60205D
:103A7000CDE901040220039040F2D030C2F20000F0
:103A800001A900220594FEF74FFE002818BFFCF79D
:103A9000D5FE40F2D034C2F2000401A9204604222F
:103AA000FEF742FE002818BFFCF7C8FE2068002180
:103AB000A842CDE912111191109117D042F60041A0
:103AC000C4F20101884228D141F21800C4F2020078
:103AD000016841F00401016000684FF4106100F0DA
:103AE00004000F900F9805F580300FE041F21800A8
:103AF000C4F20200016841F0080101600068C021C1
:103B000000F008000F900F9805F582301091022107
:103B10001191139110A9FCF7CBFF14B0B0BD0000B8
:103B200080B540F2184043F60001C2F20000C4F232
:103B3000010100234FF00C0C4FF4E13280E80E003D
:103B4000C0E90333C0E905C3C361FFF71DF80028CE
:103B500008BF80BDBDE88040FCF770BE80B540F274
:103B6000604044F20041C2F20000C4F200010023B0
:103B70004FF00C0C4FF4E13280E80E00C0E9033343
:103B8000C0E905C3C361FEF7FFFF002808BF80BD81
:103B9000BDE88040FCF752BEFEE7000082B040F274
:103BA000F824C2F2000420460021FEF757FF204609
:103BB0000C21FEF753FF40F2D034C2F2000420463D
:103BC0000021FEF74BFF20460421FEF747FF40F699
:103BD0000044C4F20104A4F580604FF400410122C6
:103BE000FDF774F8204608210122FDF76FF8204602
:103BF00010210122FDF76AF8204620210122FDF75D
:103C000065F842F63440C4F2010014210160192124
:103C1000C16040F63400C4F200000160416015A0AC
:103C200000F0E8FB40F28834C2F200042046FEF7C0
:103C3000A7F820460021FEF739FC20460421FEF7B4
:103C400035FC20460821FEF731FC20460C21FEF70A
:103C50002DFC40F2C805C2F200050CA62989AA8AEB
:103C60002B8CAC8D3046009400F0C4FB142001F086
:103C700055F9F3E74D6F746F722054687265616493
:103C800020496E6974204F4B210D0A0025642C25B4
:103C9000642C25642C25640D0A000000FEE700005A
:103CA0007047000040F24807C2F2000740F250217E
:103CB00040F6000407F10800C2F200018022C4F2BD
:103CC0000104FFF7E5FB10B118A000F093FB04F529
:103CD000006500BF1E2001F021F93E7928464FF40F
:103CE00000513246FCF7F2FF86F0010038712046A1
:103CF0000221FCF7E5FF0028ECD1142001F0E0F9E7
:103D000020460221FCF7DCFF0028E3D103E000BFDE
:103D1000012001F0D5F920460221FCF7D1FF00284F
:103D2000F6D00520387006A0CFE700BF494E4132DB
:103D3000313920496E6974204F4B210D0A00000073
:103D40004B657953686F727450726573730D0A0016
:103D500080B500F033FB01F0C1FABDE8804000F00F
:103D60003BBB0000B0B590B000240120CDE90B446E
:103D7000CDE9094406900A904FF4E0104FF48031E9
:103D800002250F9006A8CDE90714CDE90D51FDF7E6
:103D900093FC28B1EFF3108072B600BFFEE700BFBE
:103DA0000F20CDE901054FF48060CDE9040401A89E
:103DB00002210394FDF752FB20B1EFF3108072B69D
:103DC000FEE700BF10B0B0BD41F20400C4F2020033
:103DD000016801F00C01082941F20021C0F27A01CA
:103DE0000FD102680368C2F38342DB0302F10202CF
:103DF00002D503689B0303D540F60011C0F23D01D4
:103E0000514340F20802C2F200021160006845F618
:103E10009873C0F30310C0F60003185C21FA00F099
:103E2000106070477047000040F24030C2F200005E
:103E3000FEF7D0BB40F28830C2F20000FEF7CABBEA
:103E4000FEE70000002804BF00207047C1B209B19E
:103E500001200CE010F47F4102D0090A092006E09D
:103E600010F47F0107BF010E1920090C112045F63F
:103E7000B272C0F60002515C0844704770B582B05F
:103E800043F6A5410A24062511A0C0F60001002230
:103E90004FF48063CDE9005400F0E8FF40F24006A3
:103EA000C2F20006306001F077F943F69D310AA0B6
:103EB000C0F6000100224FF48063CDE9005400F009
:103EC000D5FF706001F068F9002002B070BD00BF3E
:103ED00053656E73657200004D6F746F72730000EE
:103EE000B0B546F2901446F28C10C0F60004C0F64D
:103EF0000000A04209D246F28C15C0F6000500BFB2
:103F000055F8040B8047A542FAD3BDE8B040FFF74F
:103F1000B5BF0000B0B546F28C1446F28410C0F66E
:103F20000004C0F60000A04228BFB0BD051F00BFBE
:103F300055F8040F8047281DA042F9D3B0BD0000FA
:103F400080B5FCF7EFF840F2A801C2F200014A8800
:103F500001324A80BDE88040FCF7E8B8B0B5FCF714
:103F6000E1F840F2A804C2F20004618801390AB203
:103F7000002A618004DDBDE8B040FCF7D7B800BF7F
:103F800000216180FCF7D2F86068002808BFB0BD4E
:103F9000FCF7C8F861880029EDD10546A068FFF755
:103FA00051FF421E43F2A020C2F2000050F832102E
:103FB0006068A1F1140383420CD0227043F298127E
:103FC0006360C2F2000212781C3001F108013AB1BC
:103FD000FCF7AFF82846BDE8B040FCF7A7B800BF33
:103FE000FCF7A7F82846BDE8B040FCF79FB80000F2
:103FF0002DE9F041002855D040F27007C2F20007C9
:1040000004467868A0424DD8B868A04298BFBDE881
:10401000F08107F1180840464FF0FF31A4F10C067B
:1040200000F0C2FC34F80A0C18B13088B0F5F55F26
:104030000AD024A000F0DEF934F80A2C34F80C3C45
:1040400027A0314600F0D6F94FF4F55044F80C0C97
:10405000D7F80CC066453CBFFE60B44654F8082C47
:1040600078683D691318F11A294439610ED05988CE
:1040700061B9B9688B4209D09C4504BFFE60B44663
:104080005A68311A831844F8082C996054F8043C93
:10409000C518B54201D0698831B14046BDE8F0414C
:1040A00000F05CBCBDE8F081B44508BFFD606A600B
:1040B00054F8081C084483604046BDE8F04100F015
:1040C0004DBC00BF746F206672656520612062611F
:1040D00064206461746120626C6F636B3A0A000053
:1040E0006D656D3A203078253038782C20757365F1
:1040F0006420666C61673A2025642C206D616769D5
:104100006320636F64653A203078253034780A0084
:1041100040F29450C2F200007047000040F2945008
:10412000C2F2000000F530507047000010B5FDF7F6
:10413000B9F8FFF717FEFFF747FEFFF735FAFFF76D
:1041400001FAFFF7D9FAFFF7F9FAFFF719FBFFF7C2
:10415000C3FBFFF741FCFFF7E3FCFFF7FFFCFDF7B4
:104160007DFA44F6D351C1F26201A0FB0101880936
:10417000FDF7A2FCFFF7CEFEFFF7CAFF0446FFF7EC
:10418000CDFF01462046BDE8104000F057BD0000BD
:10419000F0B581B004460D208DF8030040F2F80020
:1041A000C2F20000002180F84010204600F0E2FC3E
:1041B000F0B140F2F8060546C2F200060DF1030721
:1041C0000BE000BF3046214601224FF6FF73FEF799
:1041D00023FE013D04F101040AD020780A28F1D120
:1041E0003046394601224FF6FF73FEF715FEE9E728
:1041F00001B0F0BD10B540F29051C2F20001096863
:10420000044621B120468847002808BF10BD216C14
:1042100046F26C10C0F6000000F0ECF8616A46F25D
:104220002B10C0F6000000F0E5F8A16A46F2381045
:10423000C0F6000000F0DEF8E16A46F24510C0F674
:10424000000000F0D7F8216B46F25210C0F60000D3
:1042500000F0D0F8616846F25F10C0F6000000F090
:10426000C9F8A1681EA000F0C5F8E16820A000F020
:10427000C1F8216922A000F0BDF8616924A000F016
:10428000B9F8A16926A000F0B5F8E16928A000F00E
:10429000B1F8216A2AA000F0ADF8616B2CA000F003
:1042A000A9F8A16B2EA000F0A5F8E16B30A000F0FA
:1042B000A1F82078400707D446F2F400C0F60000C9
:1042C00000F098F80AE000BF00F024FF014646F233
:1042D0000E10C0F6000000F08DF800BFFEE700BF32
:1042E0007230353A203078253038780A00000000E6
:1042F0007230363A203078253038780A00000000D5
:104300007230373A203078253038780A00000000C3
:104310007230383A203078253038780A00000000B2
:104320007230393A203078253038780A00000000A1
:104330007231303A203078253038780A0000000099
:104340007231313A203078253038780A0000000088
:104350007231323A203078253038780A0000000077
:10436000206C723A203078253038780A000000003E
:104370002070633A203078253038780A0000000039
:1043800004324BF6EF6C22F00702CDF6AD6C42F82A
:1043900040CDC2E901CCC2E903CCC2E905CCC2E9F7
:1043A00007C100214FF0807CC2E90D301046C2E900
:1043B0000911C2E90B11C2F83CC0704780B5FBF788
:1043C000B1FE43F29811C2F200010A7801320A707C
:1043D000BDE88040FBF7AABE80B5FBF7A3FE43F221
:1043E0009811C2F200010A78013A0A70BDE88040D3
:1043F000FBF79CBE83B010B581B043F2A014844695
:1044000003A8C2F200040EC003AB2046FF2162469F
:10441000009301F033F92046FFF7BAFEA00743F2FC
:10442000A010C2F200004FF48071FBF7FCFE01B057
:10443000BDE8104003B07047002804BF002070475B
:104440002DE9F04381B040F27009C2F20009033057
:10445000D9F8001020F003078F425ED809F1180840
:1044600040464FF0FF310C2F98BF0C2700F09CFA0C
:10447000D9E900C1D9F80CE0ACEB0704AEEB0103BD
:10448000A34247D2CE187288706822B903F10C0596
:10449000421BBA4246D2A0423CD20E1872887368C0
:1044A00022B900F10C055A1BBA4216D2A34231D2EE
:1044B000CE187288706822B903F10C05421BBA420B
:1044C00030D2A04226D20E1872887368002AD7D143
:1044D00000F10C055A1BBA42D2D30446184607F124
:1044E00018039A4223D3EB1907F10C02CD184FF4AD
:1044F000F557CF50C5E901047360686801240CF1D9
:104500000C07B84274801CBF08448360D9E90403D7
:1045100012E000BF404600F021FA002001B0BDE8E3
:10452000F08300BF1C4607F118039A42DBD2012238
:104530007280D9E90423001B10448342C9F810009B
:1045400038BFC9F814004FF4F5507645308030D1AB
:10455000BEF8020068B3D9F80820964529D0DEF8E5
:10456000040001EB000EBEF80200002818BF9645BB
:104570001DD0DEF8040001EB000EBEF8020000289A
:1045800018BF964513D0DEF8040001EB000EBEF80C
:104590000200002818BF964509D0DEF8040001EBA0
:1045A000000EBEF80200002818BF9645D7D1C9F802
:1045B0000CE0404600F0D2F906F10C0001B0BDE875
:1045C000F083000010B5042A1ED310F003031BD1A2
:1045D000CBB24FF00134102A03FB04FC16D3A2F136
:1045E0001004012303EB141313F0030310D0012B69
:1045F000C0E900CCC0F808C0C0F80CC00CD100F174
:10460000100322461BE000BF864656E0864631E096
:104610000346302C16D22BE0022BC0E904CCC0F8A4
:1046200018C0C0F81CC003D100F12003203A06E0F6
:1046300000F13003303AC0E908CCC0E90ACC9E460C
:10464000302C15D303F1400E403AC3E900CCC3E946
:1046500002CCC3E904CCC3E906CCC3E908CCC3E966
:104660000ACCC3E90CCCC3E90ECC0F2A7346E9D8B7
:10467000042A22D3734600BF141F042C4EF804CB27
:104680001AD3A2F10804042CC3F804C00ED3A2F17B
:104690000C04042CC3F808C00CD303F1100E103A1C
:1046A000C3F80CC0032A7346E6D806E003F1080EEF
:1046B00002E000BF03F10C0E2246002A08BF10BD25
:1046C0005FFA81FC0446704611466246FBF7A4FD82
:1046D000204610BD2DE9F041884640F20C01C2F29F
:1046E00000010A78054682420F460AD00F4617F8A5
:1046F000100FA84205D011F8200FA84218BF0021C2
:104700000F46F868FFF798FE0646C0B1FA683046D3
:1047100000210024FFF756FF30464146082235723B
:10472000747200F03FFAFBF7FDFC57F8041F3246A5
:1047300042F80C1F4A603A605760FBF7F7FC3046BE
:10474000BDE8F08110B5044600202072FBF7EAFCBA
:104750002246216952F80C3F59600B6022611260B9
:10476000FBF7E4FC2046BDE81040FFF741BC000029
:1047700010B5044600202072FBF7D4FC54F80C1F3F
:1047800062684A601160C4E90044BDE81040FBF76C
:10479000CDBC0000F0B581B00E4640F20C01C2F273
:1047A000000115460A780446B2420F460AD00F4669
:1047B00017F8100FB04205D011F8200FB04218BF03
:1047C00000210F46FFF7BCFB043738460068B842AB
:1047D00008D00068B84205D00068B84202D000682E
:1047E000B842F3D1FFF7BAFB46F0800020722046B2
:1047F0002946082200F0D6F9FBF794FC396844F802
:104800000C1F4C603C60676001B0BDE8F040FBF7F6
:104810008DBC0000007AC0097047000070B5FBF73E
:1048200081FC40F2A805C2F20005698821B1BDE80B
:104830007040FBF77BBC00BFA96806460846FFF73F
:1048400001FB01464A1E43F2A021C2F2000151F8C9
:1048500032106B68A1F1140430469C42E7D043F259
:1048600098102A706C60C2F20000027803F11C00FC
:1048700001F1080132B1FBF75CFC3046BDE8704045
:10488000FBF754BCFBF755FC3046BDE87040FBF726
:104890004DBC000010B50446FBF744FC94F83410FE
:1048A00094F8352001F0F001013184F8341043F21E
:1048B000A021C2F2000101EBC2014A6840F2A80C3B
:1048C00004F11403C2F2000C1360A2614B60A26BEE
:1048D000DCF80830616143EA0201CCF80810BDE859
:1048E0001040FBF723BC0000B0B50546FBF71AFCEF
:1048F000294651F8142F4B6853601A6091F8212013
:1049000043F2A0230960C2F2000353F8324003EBE4
:10491000C2029442496003D0BDE8B040FBF706BC38
:1049200040F2A802C2F20002A96B936823EA0101D7
:104930009160BDE8B040FBF7F9BB000070B51546CB
:104940000A4602211C460646FFF724FF06F1140022
:10495000C6E905000020B583747270BD10B5044629
:10496000FBF7E0FB224652F8141F91420CD0143999
:104970000446084600F0ACFB2046FBF7D7FBFFF7E8
:104980004DFF002010BD00BFA18B4FF6FF7291427A
:1049900004D1FBF7CBFB6FF0020010BD0131A18306
:1049A000FBF7C4FB002010BD2DE9F04381B00D469C
:1049B00006460091FBF7B6FBB18B39B10139B183E3
:1049C000FBF7B4FB002001B0BDE8F083002D3FD021
:1049D000804600F09FFB044600202063777A204643
:1049E00006F1140900F006FCD7B3012F404640D170
:1049F00049460968494555D094F8352091F8213049
:104A00009A421AD3096849454CD094F8352091F858
:104A100021309A4211D30968494543D094F8352092
:104A200091F821309A4208D3096849453AD094F860
:104A3000352091F821309A42DBD24A6804F1140300
:104A40001360A2614B606161012D14DA1EE000BFAA
:104A5000FBF76CFB6FF0010001B0BDE8F08300BF15
:104A6000B06904F114010160A061B161C4F814904F
:104A70004046012D0ADB04F144056A462846002120
:104A800000F0F0FC284600F053FD4046FBF74EFBDB
:104A9000FFF7C4FE206B002808BF002001B0BDE86E
:104AA000F08300BFB16904F114020A60A161B26130
:104AB000C4F81490012DDEDAE8E7000080B582B07A
:104AC0000AA0FFF797FC0CA0FFF794FC0FF24C0C28
:104AD00015A0032101220523CDF800C0FFF78AFCB1
:104AE00019A002B0BDE88040FFF784BC0A205C201A
:104AF0007C202F0A000000002D205254202D202061
:104B0000202020546872656164204F706572617462
:104B1000696E672053797374656D0A00446563207C
:104B20003138203230323400202F207C205C20208D
:104B300020202025642E25642E2564206275696C52
:104B4000642025730A0000002032303036202D20EA
:104B50003230323020436F70797269676874206236
:104B6000792072742D746872656164207465616D5A
:104B70000A000000014600BF0A7862B14A784AB1D3
:104B80008A785AB1CA780431002AF5D10139081A55
:104B9000704700BF0131081A704700BF0231081A80
:104BA00070470000002A08BF7047F0B581B0C2F11D
:104BB000000C00238646CC5CC454FCB10CEB03050E
:104BC0006C1C16D2CE187778C4186770E7B1AF1C8A
:104BD0000FD0B778A770EFB103350AD0F578E5703C
:104BE000F5B104330EF1040E1CEB0304A2F1040230
:104BF000E1D101B0BDE8F040704700BF0EF1010304
:104C0000511E11D1F5E700BF0EF10203013A511E0A
:104C10000AD1EEE70EF10303023A511E04D1E8E790
:104C2000033A231D511EE4D004461846FBF7FBFA55
:104C3000204601B0BDE8F0407047000010B521F0FB
:104C400003030A46192B014630D3C81C20F0030089
:104C5000A3F11804844229D3191A40F27004A1F177
:104C60001802C2F20004C4E900204FF4F5520C39D6
:104C70004FF0000CC0E90021C0F808C041F6A06068
:104C8000C0F201001A4642F80C0D43F8081C2068D7
:104C9000A2600C3043F8040C04F1180006A10122B4
:104CA0000023FFF74BFE6068E06010BD04A0BDE884
:104CB0001040FFF79FBB00BF6865617000000000F7
:104CC0006D656D20696E69742C206572726F72203B
:104CD000626567696E206164647265737320307801
:104CE00025782C20616E6420656E64206164647296
:104CF00065737320307825780A00000010B543F200
:104D0000A022C2F2000202F11800C2E9060002F17C
:104D1000200002F1080302F11001C2E9080002F1CB
:104D20004000C2E90233C2E9041102F1280102F194
:104D3000300302F13804C2E9100002F16000C2E958
:104D40000A11C2E90C33C2E90E4402F1480102F132
:104D5000500302F15804C2E9180002F18000C2E9D0
:104D60001211C2E91433C2E9164402F1680102F1DA
:104D7000700302F17804C2E9200002F1A000C2E948
:104D80001A11C2E91C33C2E91E4402F1880102F182
:104D9000900302F19804C2E9280002F1C00040F239
:104DA000A80EC2E92211C2E92433C2E9264402F165
:104DB000A80102F1B00302F1B804C2E9300002F127
:104DC000E000C2F2000EC2E92A11C2E92C33C2E9A6
:104DD0002E4402F1C80102F1D00302F1D804C2E965
:104DE00038001F204FF0000CC2E93211C2E9343301
:104DF000C2E9364402F1E80102F1F00302F1F804DD
:104E00008EF800000EF10C00AEF802C0C2E90022DC
:104E1000C2E93A11C2E93C33C2E93E44CEE901CCD1
:104E2000CEE9030010BD000010B540F2A804C2F2A4
:104E30000004A068FFF706F843F2A021C2F20001C7
:104E400001EBC00050F8080CA0F1140108306160BB
:104E5000BDE81040FBF79BB940F2BC00C2F2000075
:104E6000011DC0E901117047704700002DE9F043B2
:104E700083B00F46014601201D461646FFF72AFC67
:104E800000283DD004462846FFF7D6FA00283DD03A
:104E900004F11401DDE90A98C4E9051123212A4629
:104EA000C4E90876C4E90A05FFF78CFB04F1200386
:104EB0000FCB1A4444F62973043AC0F60003FFF7F7
:104EC0005FFA45F23922E061002704F14400C0F6A0
:104ED00000022146234684F8369084F83590C4E9D0
:104EE0000E78C4F84080276384F83470C4E91C77D6
:104EF0000097019700F002FB204603B0BDE8F08365
:104F00000024204603B0BDE8F08300BF2046FFF731
:104F100019FC0024204603B0BDE8F08380B500F002
:104F2000FFF8002080BD000070B540F2AC00C2F276
:104F300000000568FBF7F6F80446FBF7F3F8296F65
:104F400019B10646284688473046FBF7EFF8284651
:104F5000FFF7CAFC042085F8340005F1440000F096
:104F6000B5FA2846FFF756FC012809D12846FFF775
:104F7000FFFBFFF753FC2046BDE87040FBF7D6B8B7
:104F800040F2B400C2F20000016845F8141F4D6001
:104F900005606860FFF742FC2046BDE87040FBF703
:104FA000C5B8000040F2B406C2F2000603E000BF3C
:104FB0002046FBF7BBF8FBF7B5F831680446B14271
:104FC000F6D0D1E900234869A1F1140553601A60B5
:104FD000C1E90011FFF70CF82846FFF7B3FBE7E73C
:104FE00010B584B043F2A0324FF48071C2F20002D7
:104FF00040F2A8441F20CDE90021C2F2000444F68B
:10500000A5724FF0200C029007A1C0F600022046C6
:105010000023CDF80CC000F00BF8204604B0BDE82A
:10502000104000F0B9B800BF7469646C65000000FE
:105030002DE9F04782B00DF1280A16460A46DDF840
:1050400034909AE8800501211D460446FFF7A2FB33
:1050500004F11400C4E90500384623214246C4E99E
:105060000865C4E90A78FFF7ADFA04F120030FCB15
:105070001A4444F62973043AC0F60003FFF780F996
:1050800045F23922E061002704F14400C0F6000235
:105090002146234684F836A084F835A0C4E90E7969
:1050A000C4F84090276384F83470C4E91C770097F3
:1050B000019700F023FA002002B0BDE8F08700005D
:1050C00080B500F001F900F02BF8002080BD000051
:1050D00090F8341001F00F0102291CBF4FF0FF308F
:1050E0007047B0B50446FBF71DF82246A16952F897
:1050F000143F054604F1440059600B60A261126040
:1051000000F07CFA2846FBF711F82046FFF7C2FBB7
:105110000020B0BD40F2AC00C2F200000068704751
:10512000F0B581B00090FAF7FDFF40F2AC01C2F299
:1051300000010C68054694F8341001F00F010129B4
:1051400013D1FAF7EFFF06462046FFF7CDFB94F8A0
:10515000340000F0F000023084F8340004F1440020
:1051600000F04CFA3046FAF7E1FF04F144066A46D3
:1051700030460021002700F075F9304600F0D8F9DC
:105180002846FAF7D3FFFFF749FB206B023008BF30
:105190002763002001B0F0BDB0B5044690F836009A
:1051A000012184F8350001FA00F0A063022084F8A0
:1051B0003400FAF7B7FF2246A16952F8143F0546BA
:1051C00004F1440059600B60A261126000F016FA0D
:1051D0002846FAF7ABFF2046FFF75CFB40F2AC0035
:1051E000C2F200000068002818BFFFF717FB00207C
:1051F000B0BD0000B0B5044690F8340000F00F00D8
:1052000001281CBF4FF0FF30B0BDFAF78BFF0546F9
:105210002046FFF769FB94F8340000F0F0000230FC
:1052200084F8340004F1440000F0E8F92846FAF765
:105230007DFF0020B0BD000080B50346826953F8B1
:10524000141F6FF0010CC0F830C04A601160836118
:105250001B60FFF71FFBBDE88040FFF7DFBA0000CF
:1052600010B5FAF75FFF40F2AC01C2F20001096825
:1052700091F8342002F00F02012A21D10A4652F897
:1052800014CF53689C451BD091F835E043F2A0241D
:10529000C2F2000404EBCE04CCF804308A61D4F8E6
:1052A00004E0C3F800C0CEF80020C1F818E0626046
:1052B0004C61FAF73BFFFFF7B1FA002010BD00BFC9
:1052C000FAF734FF002010BD40EAE070704700009C
:1052D00043F2A440C2F200000068704780B543F278
:1052E000A440C2F20000016801310160FFF712FF23
:1052F000016C0139016403D0BDE8804000F008B8BA
:10530000C16B0164FFF7ACFFBDE88040AFF30080E4
:105310002DE9F04F83B00DF10408CDE90188FFF7C6
:10532000D7FF0546FAF7FEFE40F2BC04C2F20004C5
:10533000214651F8046F00908E4200F08D804FF6A8
:10534000FE79C7F6FF796FF0004B16E00F6808464C
:1053500021687E600131216016F80B1C3760066001
:10536000706041F0010006F80B0C5046FAF7DEFEC3
:10537000204650F8046F86426ED07069281A48455E
:105380006AD8D6E9002116F80B0C51600A60810733
:1053900036605CBF00F0FC0006F80B0C019846601C
:1053A0003060D6E902100196C6F804808847FFF7FE
:1053B0008FFF019905464145DAD0D6E900104860D3
:1053C000016016F80B0C366000F0030103297660CB
:1053D000CED100F0FE0006F80B0CFAF7A3FE8246D1
:1053E00016F80B0CD6E9002100F0FE0051600A60AF
:1053F0003660766006F80B0CFFF76AFF3169231DF3
:105400000A18A16872618B42A0D018684769BF1A58
:1054100001D05F451AD3884298D003685F69BF1AEC
:1054200001D05F4516D38B4290D018684769BF1AE8
:1054300001D05F450AD388423FF488AF03685F69B3
:10544000BF1AE0D04F451F46DDD881E70746184612
:105450007EE700BF1F467BE70098FAF767FE03B0C0
:10546000BDE8F08F70B514460E460546FAF75AFEB1
:10547000042E07D8DFE806F00424141C0A0000BF3D
:1054800021686962FAF752FE002070BD697AC90787
:105490000CBF002101212160FAF748FE002070BDF9
:1054A000697A01F0FD016972FAF740FE002070BDD3
:1054B000697A41F002016972FAF738FE002070BD86
:1054C000696A2160FAF732FE002070BD10B504460B
:1054D000FAF728FE2246A16952F8143F59600B6082
:1054E000617AA26101F0FE0112606172FAF71EFE9C
:1054F0002046FFF73DF9002010BD00002DE9F041E6
:1055000015460A46DDE906870A211C460646FFF7CE
:1055100041F907F0FE007072002006F11401C6E99F
:105520000511C6E90754C6E90980BDE8F08100000D
:105530002DE9F0410446FAF7F5FD264656F8141F0A
:10554000804616F80B0C726800F0FE004A6011608D
:105550003660766006F80B0CFFF7BAFE40F2BC0E20
:105560003169C2F2000EDEF808304FF6FE7C0A18F0
:105570000EF104076FF00045C7F6FF7C72619F4291
:1055800020D039684869801A01D0A8421ED39942B8
:1055900018D00F687869801A01D0A8421AD39F42A8
:1055A00010D039684869801A01D0A8420ED39942B8
:1055B00008D00F687869801AE1D060453846DED897
:1055C00009E000BF1868194605E000BF08463946E3
:1055D00001E000BF384646606061607ADEF8002076
:1055E00040F00100013260724046CEF800200E60AB
:1055F000A161FAF79BFD0020BDE8F08110B50446DB
:10560000407AC00704BF4FF0FF3010BDFAF78AFDA3
:1056100054F8141F62684A60116014F80B1C24606F
:1056200001F0FE01646004F80B1CFAF77FFD002016
:1056300010BD000000207047002070470020704718
:105640000020704780B540F2F80043F60001C2F236
:105650000000C4F2010100234FF00C0C4FF4E132C2
:1056600080E80E00C0E90333C0E905C3C361FDF75C
:105670008BFA08B1FEE700BF002080BD7CB50C00AE
:105680001D461646014601D0601E00E00020CDE90F
:105690000010064B6A462946304600F0DBF8002C25
:1056A00002D0009A002111707CBD0000835F0008C9
:1056B00002E008C8121F08C1002AFAD170477047DB
:1056C000002001E001C1121F002AFBD17047000039
:1056D0002DE9FF5F82B00021DDE90430020DDDF825
:1056E00040B0034318D044F61050A2F2FF324243B8
:1056F0001514119801281FD0A5EB0B00401C5FEA80
:10570000000A4FF000064E4FDFF83891B046504681
:1057100015D5CAF1000413E0119801244AA3012809
:1057200001D16FEA0B010298119AC0E90031C0E97A
:10573000024206B0BDE8F09FCBF10000DFE704466F
:105740000021404A491842EB0450CDE9001012E014
:10575000E00707D032463B4640464946FAF75CFE32
:105760008046894632463B4610461946FAF754FEB3
:1057700006460F466410002CEAD1DDE90401DDE99C
:105780000023BAF1000F06DAFAF746FE42464B460E
:10579000FAF742FE05E0FAF7B1FE42464B46FAF749
:1057A000ADFE04460E460022284BFAF72FFF03D821
:1057B0004FF0FF30014607E00022254B20463146DE
:1057C000FAF783FDFAF709FF102409E0002C0ADB41
:1057D0000A220023FAF748FD039B30321A55641E53
:1057E00050EA0102F2D1641C039AC4F1110314447B
:1057F000119A012A03D0012208430DD10AE008437F
:1058000004D000204FF0110B119072E7A3EB0B05B1
:105810006D1E0DE05B4504DD4FF0000205F1010552
:1058200004E003DA4FF00002A5F10105002AECD0F4
:1058300002981199C0E90231C0E9004579E70000FA
:10584000000014400000F03F300000000000F04372
:105850000000E03F2DE9FF4F95B09B468946064684
:1058600000250FE2252877D100242746F84A012198
:10587000059400E0044316F8013F203B01FA03F0D1
:105880001042F7D130782A2811D06FF02F033078EA
:10589000A0F13002092A16D8059A44F0020402EB5E
:1058A000820203EB42021044761C0590EFE759F8A0
:1058B000042B0592002A03DA504244F40054059068
:1058C00044F00204761C30782E2816D116F8010F09
:1058D00044F004042A280DD06FF02F023078A0F194
:1058E0003003092B09D807EB870302EB4303C718E2
:1058F000761CF3E759F8047B761C30786C280FD0BF
:1059000006DC4C2817D068280DD06A2814D104E092
:10591000742810D07A280FD10DE044F400140AE066
:1059200044F4801401E044F440147278824202D1BD
:1059300004F58014761C761C307866280BD013DCB6
:10594000582877D009DC002875D04528F6D046289D
:10595000F4D047281AD19DE118E0632835D0642897
:1059600079D0652812D195E1702873D008DC6728BA
:10597000F1D069286FD06E280DD06F2806D1B5E020
:1059800073282CD0752875D0782874D05A4617996A
:1059900090476D1C75E1C4F30250022809D003281A
:1059A0000DD0D9F8001004280DD00D6009F10409BC
:1059B00067E1D9F80010EA17C1E90052F6E7D9F813
:1059C00000100D80F2E70D70F0E719F8041B8DF858
:1059D000001000208DF80100EA46012003E059F88C
:1059E00004AB4FF0FF3061074FF0000102D40DE02F
:1059F00008F101018846B9420FDA8045F8DB1AF850
:105A000008100029F4D108E008F10101884681421C
:105A1000FADB1AF808100029F6D105985B46A0EBCE
:105A2000080721463846179A00F094FA284400EBFC
:105A3000080507E04DE029E10DE01AF8010B5A4690
:105A400017999047B8F10108F7D25B4621463846CE
:105A5000179A13E142E00A220092C4F302524FF077
:105A6000000A022A08D059F804CB032A4FEAEC7145
:105A70000AD00DE029E02AE009F1070121F0070230
:105A8000F2E802C1914609E00FFA8CFC4FEAEC7192
:105A9000042A03D14FFA8CFC4FEAEC71002907DA93
:105AA0000A460021DCF1000C61EB02012D2202E02C
:105AB000220504D52B228DF80420012203E0E20701
:105AC00001D02022F7E7904659E00A2102E0102297
:105AD0000DE010214FF0000A00910BE010224FF072
