:020000040800F2
:1000000010390020010100087D3D0008C9010008E9
:10001000113B000849090008554100080000000094
:10002000000000000000000000000000AD3F0008DC
:100030007D09000800000000530100086540000829
:100040001B0100081B0100081B0100081B01000820
:100050001B0100081B0100081B0100081B01000810
:100060001B0100081B0100081B0100081B01000800
:100070001B0100081B0100084D0900085909000870
:1000800065090008710900081B0100081B01000830
:100090001B0100081B0100081B0100081B010008D0
:1000A0001B0100081B0100081B0100081B010008C0
:1000B0003D410008494100081B0100081B010008E0
:1000C0001B0100081B0100081B0100081B010008A0
:1000D0001B0100081B0100081B0100081B01000890
:1000E000810900081B0100081B010008DFF80CD083
:1000F00000F0B6FB00480047F50800081039002062
:100100000648804706480047FEE7FEE7FEE7FEE7B1
:10011000FEE7FEE7FEE7FEE7FEE7FEE739410008FF
:10012000ED000008EFF3108072B6704780F310887E
:100130007047324A1368012B04D04FF0010313605B
:100140002F4A10602F4A11602F484FF080510160F4
:100150007047EFF3108272B62848016891B14FF0F2
:10016000000101602648016829B1EFF3098121E906
:10017000F00F00680160234909680968B1E8F00FD1
:1001800081F3098882F310884EF0040E70471D49F0
:1001900008601B494FF00000086018494FF001004B
:1001A00008601A481A49D0F8002041EA02010160AB
:1001B00015484FF08051016016480068006880F3D0
:1001C000088861B662B670471EF0040F0CBFEFF3EB
:1001D0000880EFF3098020E9F00F40F804ED1EF0ED
:1001E000040F0CBF80F3088880F3098800B504F081
:1001F00091F95DF804EB4EF0040E704700350020D5
:10020000F4310020FC31002004ED00E020ED00E09E
:100210000000FFFF08ED00E0D2B201E000F8012B82
:10022000491EFBD270470022F6E710B513460A4676
:1002300004461946FFF7F0FF204610BD30B480EAAF
:10024000010202F0004530F0004221F0004013D0DE
:1002500090B1C30DD40DC2F31601C0F31600E41A19
:1002600041F4000140F400027D34914201D3641C4A
:1002700000E04900002C02DA30BC002070474FF447
:1002800000000023914201D3891A034340084FEA3A
:100290004101F7D151B1914202D14FF0004105E047
:1002A00002D24FF0010101E06FF0010103EBC450F5
:1002B000284430BC00F0FAB82DE9FE4F81EA03046F
:1002C00004F0004421F0004100944FF0000B23F0B3
:1002D000004350EA01045ED052EA03045BD0C3F34A
:1002E0000A54C1F30A552C44A4F2F3340194A0FB40
:1002F0000254C1F3130141F48011C3F3130343F417
:10030000801301FB024400FB034E840A970A44EA6F
:10031000815447EA8357A4FB076802958D0A05FBC1
:1003200007854FEA932C04FB0C542705029D4FEAE6
:10033000065847EA1637B5EB08056EEB070C870E33
:10034000920E47EA811742EA8312A7FB0201B6EB3D
:100350000B0164EB00042B0D43EA0C335E1844EBF5
:100360001C50DA465146E7FB0201C5F313044FEA7D
:100370000B3343EA14534FEA0432019C43EA060369
:10038000A4F10C040294009CCDE900B400F0D4F870
:1003900003B0BDE8F08F00200146F9E79623002264
:1003A000114600F08CB80EB540F2334102910021A5
:1003B000CDE900110A460B4600F0BEF803B000BDBF
:1003C00000F0004230F000400AD0C10D01F560712C
:1003D000C0F3160042EA0151C208400711437047BA
:1003E00000200146704701F0004330B421F0004185
:1003F00050EA010206D00A0DA2F56072C1F31301A2
:10040000002A02DC30BC00207047440F44EAC104DB
:10041000C100E01830BC00EBC25000F047B830B566
:100420000B46014600202022012409E021FA02F5B2
:100430009D4205D303FA02F5491B04FA02F528444C
:10044000151EA2F10102F1DC30BD2DE9F05F054679
:10045000002092469B4688460646814640241BE083
:10046000284641464746224600F021FA53465A465E
:10047000C01A914110D311461846224600F008FADE
:100480002D1A67EB01084F4622460120002100F09B
:10049000FFF917EB00094E41201EA4F10104DFDC37
:1004A000484631462A464346BDE8F09F0029A8BF8A
:1004B0007047401C490008BF20F00100704710B48D
:1004C000B0FA80FC00FA0CF050EA010404BF10BC42
:1004D000704749B1CCF1200421FA04F411FA0CF16F
:1004E00018BF012121430843A3EB0C01CB1D4FEAA8
:1004F00000614FEA102042BF002010BC704700EBA3
:10050000C35010440029A4BF10BC7047401C4900D0
:1005100008BF20F0010010BC704710B5141E73F125
:10052000000408DA401C41F1000192185B411A43B3
:1005300001D120F0010010BD2DE9F04D92469B46FF
:1005400011B1B1FA81F202E0B0FA80F220329046A5
:1005500000F09EF904460F4640EA0A0041EA0B010A
:1005600053465A46084313D0114653EA010019D0A6
:10057000C8F14002504600F09AF905460E46504632
:100580005946424600F084F9084305D0012004E0B2
:1005900020463946BDE8F08D0020054346EAE07666
:1005A0002C4337430A986305E40AA0EB08000022B5
:1005B000FD0A44EA47540A3002D500200146E9E723
:1005C000010510196941DDE9084500196941BDE8D7
:1005D000F04DA2E72DE9FE4F804681EA0300C00FEF
:1005E0000C46009021F0004123F00045B8EB0200DA
:1005F000A94105D24046214690461C460B4602467C
:1006000023F00040104347D0270DC7F30A00C3F37F
:100610000A510290401A019040286BDAC3F313008C
:1006200040F4801B0098924620B10023D2EB030ACD
:1006300063EB0B0B01985946C0F14002504600F0A5
:1006400027F906460D4650465946019A00F03FF9F3
:1006500010EB08006141002487EA115284EAE77335
:100660001A4340D0009A62B3019A012A4FEA075216
:1006700015DC001B61EB02014FF0004202EA075259
:10068000CDE90042001C41F5801132462B46FFF7B0
:1006900053FF03B0BDE8F08F40462146F9E7001B49
:1006A00061EB0201001C41F5801300185B4120182A
:1006B000A2F5001747EB030140EAD570B6196D416A
:1006C00011E06D084FEA360645EAC0754FEA075259
:1006D000001B61EB0201001C41F5801149084FEA43
:1006E00030000019514132462B4603B0BDE8F04FAF
:1006F000FFF713BF0098012240000023D0EB020255
:1007000063EBE073009821464FEAE074B8EB000019
:1007100061EB0401E9E783F000435BE781F000410E
:1007200058E72DE9F04D81EA030404F0004B21F075
:10073000004514464FF0000A23F0004150EA05023C
:1007400020D054EA01021DD0C5F30A570246C5F372
:100750001303C1F31300C1F30A5640F4801543F4A8
:100760008013A7EB0608101BD64608F2FD3873EB82
:10077000050002D308F1010801E092185B41B8F1CD
:10078000000F03DA00200146BDE8F08D00204FF491
:100790008011064684460EE0171B73EB050705D350
:1007A000121B63EB050306434CEA010C49084FEAB0
:1007B000300092185B4150EA0107EDD152EA030084
:1007C00012D082EA040083EA0501084305D0101B19
:1007D000AB4106D20122002306E000224FF0004385
:1007E00002E06FF0010253101AEB06004CEB0851C7
:1007F00010EB0A0041EB0B01BDE8F04DFFF78DBE99
:10080000C1F30A52C1F3130140F2FF3341F48011E6
:100810009A4202DA00200146704740F233439A427E
:10082000A2F2334202DC524200F041B800F030B88C
:1008300030B5041E71F1000404DB4FF00044404267
:1008400064EB0101141E73F1000405DB1C464FF03C
:100850000043524263EB0403994208BF904230BD0B
:100860001CB509480090094801900546009C06E027
:10087000E06840F0010394E8070098471034AC4268
:10088000F6D3FFF737FC0000B4640008D464000816
:10089000202A04DB203A00FA02F100207047914040
:1008A000C2F1200320FA03F3194390407047202A35
:1008B00004DB203A21FA02F00021704721FA02F30A
:1008C000D040C2F120029140084319467047202AC7
:1008D00006DBCB17203A41FA02F043EAE07306E068
:1008E00041FA02F3D040C2F1200291400843194678
:1008F0007047000080B582B0FFF714FC03F0A6FD3E
:1009000004F06CFA04F038FC04F088FB46F29940DD
:1009100044F201214FF0140C4FF00A0EC0F6000013
:10092000C0F6000100224FF48063CDE900EC04F032
:100930002DFC04F0C1FD04F027FC04F0E1FC04F000
:1009400003FC002002B080BDFEE7000040F254200E
:10095000C2F2000000F02EB840F21020C2F20000F7
:1009600000F028B840F29820C2F2000000F022B84F
:1009700040F2DC20C2F2000000F01CB8704700001A
:1009800080B54FF4805000F049F94FF4005000F06A
:1009900045F94FF4804000F041F94FF40040BDE8C4
:1009A000804000F03BB90000EFF3108072B600BF4A
:1009B000FEE7000010B5D0E90FCE0168DCF800308A
:1009C0000A6823FA0EF35C072AD512F0040427D034
:1009D0000A68920603D40A6822F004020A602F22F1
:1009E000C4F20202914240F20402C4F202025BDD50
:1009F0003023C4F20203994272D04423C4F20203AA
:100A0000994273D05823C4F20203994240F07A808D
:100A10004FF480231360C16A002940F098806FE092
:100A20009C0727D512F0020424D00A68920606D447
:100A30000A6822F00A020A60012280F821202F228F
:100A4000C4F20202914240F20402C4F202023BDD0F
:100A50003023C4F20203994260D04423C4F202035B
:100A600099425FD05823C4F20203994260D14FF4F7
:100A7000003365E01B0743D512F0080208BF10BD24
:100A80000A6822F00E020A60012101FA0EF2CCF887
:100A90000420816380F82110016B0022002980F876
:100AA000202054D12CE000BF0823C4F20203994255
:100AB00022D01C23C4F20203994223D140231360A5
:100AC000C16A002943D11BE00823C4F20203994202
:100AD0002CD01C23C4F20203994229D120232FE0F9
:100AE0004FF480631360C16A89BB09E04FF480430F
:100AF0001360C16A59BB03E004231360C16A31BBB0
:100B000010BD00BF02F168044FF08063A14208BF2E
:100B10004FF480031360C16AC9B9F1E74FF4007361
:100B20000EE000BF4FF400530AE000BF022307E0CD
:100B300002F168044FF00073A14208BF4FF40013A4
:100B40001360816A0022002980F82020D8D0BDE8F7
:100B500010400847014600284FF0010008BF7047C9
:100B60002DE9F043D1F800C04FF6F873CBF6FD73D2
:100B70004CF6CD426344CCF6CC42A3FB02236FF08B
:100B8000030202EA93020023C4F2020301F10C08FB
:100B9000C1E90F320222D1E9019E98E8F00181F803
:100BA0002120DCF8002043F6F0739A4342EA090260
:100BB00042EA0E0222432A4332433A4342EA0802FF
:100BC000CCF8002000228A6381F8210081F82020DF
:100BD0000020BDE8F0437047B0B5044600F03EF990
:100BE000054640F20000C2F200000078611C18BF08
:100BF000044400BF00F032F9401BA042FAD3B0BD5C
:100C000010B5044603F06AFDB4F5807F02D9204692
:100C100003F004F9BDE8104003F06EBD40F214414A
:100C2000C4F201010A68024214BF08607047FFF76E
:100C3000E7BF00002DE9F04F82B00E68002E00F0F3
:100C4000FD8041F20042C4F20102042340F2004E52
:100C5000904208BF03234FF6FF7CC4F2010E0093BD
:100C600000240123C1F2100C4FF0000A4FF00009DC
:100C70004BE000BF41F20002C4F20102009F90422B
:100C800008BF022704F00C030F229A402BEA02024D
:100C900007FA03F34FEA9A051A4346F825204E68EF
:100CA00040F20C45F202DEF8082054BF22EA0802A6
:100CB00042EA0802C4F20105CEF808202A68B3020D
:100CC00054BF22EA080242EA08022A60B303DEF8AF
:100CD000042054BF22EA080242EA0802F303CEF8D5
:100CE0000420DEF800204FF0010354BF22EA08027E
:100CF00042EA0802CEF800200E680AF1010A36FA2C
:100D00000AF204F1040400F0998003FA0AFB16EADF
:100D10000B08F1D04E68664512DC122E56D8DFE87B
:100D200006F0350B4D4955555555555555555555A5
:100D300055555545510000BFD1F80C9046E000BF15
:100D40004FF6FF72C1F2210296420FDC0022C1F27F
:100D5000110296421AD00022C1F21202964215D018
:100D60000022C1F22102964210D02FE00022C1F2EF
:100D7000220296420AD00022C1F23102964205D0E8
:100D80000022C1F23202964220D100BF8A684AB1E5
:100D9000012A14BFC0F814B0C0F810B04FF0080911
:100DA00014E000BF4FF0040910E000BFCA6802F170
:100DB00004090BE04FF0000908E000BFCA6802F127
:100DC000080903E0CA6802F10C0900BF0246264682
:100DD000B8F5807F24BF0432203E17680F25B54048
:100DE00027EA050509FA06F635431560CA79D206E1
:100DF0007FF582AF41F21803C4F202031A68AEF520
:100E00007E7642F001021A601A6802F00102019235
:100E1000019A2AF0030256F802B040F60002C4F22A
:100E20000102904208D040F60042C4F20102904212
:100E30007FF420AF012725E7002723E702B0BDE8B4
:100E4000F08F00008068084018BF01207047000044
:100E5000002A08BF090401617047000043F20850EE
:100E6000C2F2000000687047002804BF01207047EC
:100E7000F0B581B0044690F83D0028B9002084F810
:100E80003C00204600F05AFA242084F83D002068F7
:100E9000016821F001010160016841F40041016035
:100EA000016821F40041016000F0A0FC636848F291
:100EB000A16CC0F2010C40F60011C0F23D01634587
:100EC0003CBF48F28041C0F21E01884202D201209C
:100ED00001B0F0BD4DF68361C4F21B31A0FB0112DD
:100EE0002168970CD1F804E04FF496762EF03F0578
:100EF00045EA92454D60774348F638160D6AC0F2D0
:100F00004106A7FB067625F03F07634538BF960CE0
:100F1000721C3A430A62CA6948F2A0664CF6FF772F
:100F2000C0F20106B34222EA07020BD801385B0087
:100F3000B0FBF3F001306FF31F30042898BF04209A
:100F40001BE000BFA768013857B119277B43B0FBEE
:100F5000F3F001306FF31F3070B100F5804007E00F
:100F600003EB4303B0FBF3F001306FF31F3018B114
:100F700000F5004001E000BF01201043C86108688F
:100F8000D4E9072320F0C0001043184308608868A4
:100F900048F2FF3204F10C0790438CCF1843104302
:100FA000A6698860C86820F0FF0038433043C860F5
:100FB000086840F00100086000202021206484F8C7
:100FC0003D10206384F83E0001B0F0BD2DE9F04FE4
:100FD00083B01E46924688460446FFF73FFF94F8CA
:100FE0003D10202924D12168054600BF886980076B
:100FF0001AD5FFF733FF401B21681A28F6D38869FA
:101000008007F3D500202021206384F83D1084F868
:101010003E00216C41F02001216484F83C00022054
:1010200003B0BDE8F08F00BF94F83C00012803D165
:10103000022003B0BDE8F08F4FF0010984F83C9026
:101040000868C00703D1086840F00100086008681C
:10105000002720F400600860242084F83D00002070
:10106000CFF6FF702764E06208F0FE08BAF1010FC6
:1010700088BFD1464FF0A00A4FF0200B04E000BF1C
:1010800001374F4500F0A2800868002240F48070CC
:10109000086020464FF001113346009502F004F835
:1010A0002168002856D1C1F81080FFF7D7FE2168CB
:1010B0004B694A6994F83D50A02D054605D013F0C0
:1010C000020008BF12F480601AD084F83DB048696D
:1010D0000A68800742F400720A6045D46FF48060A9
:1010E000486100BF88698007CAD5FFF7B7FE401B7B
:1010F00021681A28F6D388698007F3D54AE000BF33
:10110000B6B100BFFFF7AAFE401BB04288BF84F80B
:101110003DA021684A69486994F83D30A02BD4D09D
:1011200012F0020208BF10F48060EBD0CDE700BFE0
:10113000FFF794FE84F83DA021684A69486994F855
:101140003D30A02BC1D012F00202BED110F480605D
:10115000EED0BAE70868C00544BF4FF400702064C1
:10116000032003B0BDE8F08F002002904869029090
:10117000886902900298886901E000BF8069800751
:101180001AD5FFF76BFE411B20681A29F6D3816937
:101190008907F3D500202021206384F83D1084F8CE
:1011A0003E00216C41F02001216484F83C000120C4
:1011B00003B0BDE8F08F00BF202084F83D00002080
:1011C00084F83C0003B0BDE8F08F00BF202084F815
:1011D0003D00002084F83C00012003B0BDE8F08F02
:1011E0002DE9F04383B0994616460F460446FFF7B3
:1011F00035FE94F83D10202924D10546206800BF13
:10120000816989071AD5FFF729FE411B20681A2931
:10121000F6D381698907F3D500202021206384F863
:101220003D1084F83E00216C41F02001216484F8D7
:101230003C00022003B0BDE8F08300BF94F83C10EE
:10124000012903D1022003B0BDE8F083012284F814
:101250003C200368DDE90B180A9ADB0703D1036819
:1012600043F001030360036823F40063036021205B
:1012700084F83D00402084F83E0000202064626233
:101280006185608D394620850020CFF6FF70E062D1
:10129000204632464B46CDE9008501F043FE18B1A9
:1012A000012003B0BDE8F083208D98B92046414667
:1012B0002A4601F09BFE88B3206C0428F0D12068F8
:1012C000016841F400710160012003B0BDE8F083C2
:1012D0000004EBD0204641462A4602F037F80028A9
:1012E000EAD1616A2268084610F8013B1361238D38
:1012F0006062581E2085678D013F678557697F07AB
:10130000E6D50704E4D048781061881C6062981E16
:101310002085618D01396185DAE700BF20680168A9
:1013200041F400710160202084F83D00002084F821
:101330003E0084F83C0003B0BDE8F08310B586B0F1
:10134000006845F60001C4F2000188424FF0000138
:10135000CDE90411CDE9021132D045F20041C4F2C9
:101360000001884250D141F21804C4F202042068FE
:1013700002A940F008002060206800F008000190F9
:1013800001984FF4407002901220039003200590C2
:1013900040F60040C4F20100FFF74CFC0420C4F208
:1013A0000100016841F0E06141F002010160606804
:1013B00040F400106060606800F4001022E000BF9C
:1013C00041F21804C4F20204206802A940F00800A7
:1013D0002060206800F00800019001984FF4406000
:1013E0000290122003900320059040F60040C4F2C2
:1013F0000100FFF71FFC606840F4800060606068D7
:1014000000F480000190019806B010BD40F2000089
:1014100043F20851C2F20000C2F2000100780A68EB
:10142000104408607047000080B542F20000C4F22A
:101430000200016841F010010160032000F0C0F8D3
:101440000F2000F005F800F05BF8002080BD0000E0
:10145000B0B586B041F21C01C4F202010A6804462C
:1014600042F001020A60096801A801F0010101913E
:101470000199694600F092F9049D002D18BF0125DD
:1014800000F0B4F94DF68361A840C4F21B31A0FB13
:1014900001014FF0FF3000EB914140F21040C2F2E9
:1014A00000004FF0804240F2E7330025C0E9002100
:1014B000C0E902530561856100F040FC10B106B03F
:1014C000B0BD00BF40F21040C2F2000000F01AFDB3
:1014D0000028F4D11C2000F035F80F2C0CD81C206B
:1014E0002146002200F040F840F204010020C2F240
:1014F00000010C6006B0B0BD012006B0B0BD000018
:1015000082B041F21800C4F202000168022241F0E8
:1015100001010160016801F0010101910199416837
:1015200041F080514160406800F080500090009888
:101530000420C4F20100016862F31A61016002B084
:1015400070470000002848BF704700F01F010122CB
:1015500002FA01F11C2202EAD0004EF20012CEF291
:10156000000281507047000010B54EF60C5CCEF2C0
:10157000000CDCF80030C3F3022E8EF00704042CBC
:1015800028BF0424BEF103034FF0FF3E0EFA04F41B
:1015900038BF0023A14399400EFA03F39A43114345
:1015A00000F00F0200F160430901043A03F56443BF
:1015B0006244002848BF02F10C03197010BD0000FE
:1015C0004EF60C51CEF200010A684FF6FF031A40A6
:1015D00060F30A2242F0806040F0FD7008607047BE
:1015E000002804BF012070472DE9F04381B042F28A
:1015F0000008C4F202080446D8F800000D4600F0C6
:10160000070088420CD2D8F8000020F007002843D9
:10161000C8F80000D8F8000000F00700A8426CD11C
:10162000206841F204098107C4F2020917D5410775
:1016300005D5D9F8001041F4E061C9F800100107A0
:1016400005D5D9F8001041F46051C9F80010D9F857
:101650000010A26821F0F0011143C9F80010C00782
:1016600042D1D8F8000000F00700A8420CD9D8F801
:10167000000020F007002843C8F80000D8F8000058
:1016800000F00700A84238D12068410707D5D9F8F3
:101690000010E26821F4E0611143C9F8001000076E
:1016A00008D5D9F80000216920F4605040EAC10053
:1016B000C9F80000D9F8002002F00C00082841F217
:1016C0000020C0F27A004DD146F2D233C2F38341FA
:1016D000C0F60003595CD20338D440F60010C0F2C3
:1016E0003D0048433EE000BF606859F8041C0228F2
:1016F00008D0012826D1890306D4012001B0BDE815
:10170000F08300BF8901F8D5D9F8001021F003015A
:101710000843C9F80000FFF7A1FB064641F28837ED
:10172000D9F80000616800F00C00B0EB810F98D090
:10173000FFF794FB801BB842F2D9032001B0BDE84B
:10174000F08300BF8907D8D5DEE700BFD9F80020B5
:1017500046F2D023C2F34042C0F600039A5C4843ED
:10176000B0FBF2F0D9F8001046F2B822C1F3031131
:10177000C0F60002515C40F2080220FA01F140F28A
:101780000400C2F200000068C2F200021160FFF71C
:101790005FFE002001B0BDE8F08300000F22026070
:1017A00041F20402C4F20202136803F0030343602F
:1017B000136803F0F0038360136803F4E063C3600D
:1017C00012684FF4E06303EAD202026142F20000C1
:1017D000C4F20200006800F00700086070470000D3
:1017E00040F20800C2F200000068704740F20800B2
:1017F00041F20401C2F20000C4F20201006809686B
:1018000046F2C822C1F30221C0F60002515CC84072
:101810007047000040F2080041F20401C2F20000EB
:10182000C4F202010068096846F2C822C1F3C2216D
:10183000C0F60002515CC84070470000002804BF99
:10184000012070472DE9F04182B00446007841F252
:101850000006C007C4F202060CD0706800F00C004D
:10186000042840F081803068800303D56068002838
:1018700000F04681207880071BD5706810F00C0FAF
:1018800009D0706800F00C00082840F0878070686C
:10189000C00300F183803068800703D520690128E8
:1018A00040F02E813068616920F0F80040EAC10004
:1018B00030602078000713D4207840072CD4E569E5
:1018C000002D00F01881706800F00C00082840F02E
:1018D000A780012D40F00481012002B0BDE8F08115
:1018E000A069002800F084800020C4F24220012179
:1018F000C0F88014FFF7B2FA054600BF706A80078F
:1019000000F1B280FFF7AAFA401B0228F6D90320A3
:1019100002B0BDE8F08100BFF0695FEAC00808D4FA
:10192000F06940F08050F061F06900F08050009064
:10193000009847F20007C4F200073868C00549D490
:10194000386840F480703860FFF788FA054600BFB9
:101950003868C0053ED4FFF781FA401B6428F7D9E8
:10196000032002B0BDE8F081706800F00C00082888
:1019700003D17068C0033FF576AF61683068002915
:1019800000F00C81B1F5A02F00F00081B1F5803F8F
:1019900040F01A8140F480301CE100BF206900282B
:1019A00040F20000C4F2422000F088800121016072
:1019B000FFF754FA054600BF306880073FF572AF65
:1019C000FFF74CFA401B0228F6D9032002B0BDE80D
:1019D000F08100BFE168306A002900F09D80052990
:1019E00000F09280012940F0AF8040F00100B1E0AA
:1019F0000020C4F242200021C0F88014FFF72EFA24
:101A0000054600BF706A80077FF556AFFFF726FADC
:101A1000401B0228F6D9032002B0BDE8F08100BFC8
:101A20000027C4F2422700203866FFF717FA022D7C
:101A300005460DD13068800140F1DE80FFF70EFAD7
:101A4000401B02284FF00300F4D902B0BDE8F0813A
:101A5000306880014FD5FFF701FA401B02284FF094
:101A60000300F5D9F1E700BF40F20800C2F2000020
:101A7000006844F6D351C1F26201A0FB0101480A9B
:101A8000019000BF00BF0198411E002801913FF462
:101A900013AF00BF0198411E002801913FF40CAF25
:101AA00000BF0198411E002801913FF405AF00BF1F
:101AB0000198411E00280191E4D1FDE6002101605A
:101AC000FFF7CCF9054600BF306880077FF5F1AE1F
:101AD000FFF7C4F9401B02284FF00300F4D9B4E724
:101AE0007068216A00F480328A4209D1616A00F488
:101AF0007010884204D1002002B0BDE8F08100BF20
:101B0000012002B0BDE8F08140F004003062306A8C
:101B100040F001001EE000BF20F001003062306A9A
:101B200020F004003062FFF799F9054641F288374A
:101B3000306A800720D5FFF791F9401BB8424FF07B
:101B40000300F5D981E700BF20F001003062306A60
:101B500020F004003062FFF781F9054641F2883732
:101B6000306A800708D4FFF779F9401BB842F7D9EB
:101B7000032002B0BDE8F081B8F1000F3FF59FAE41
:101B8000F06920F08050F06199E600BF40F48020B9
:101B90003060306840F480301CE000BF20F48030BA
:101BA0003060306820F480203060FFF757F9054638
:101BB000306880037FF55EAEFFF750F9401B642864
:101BC0004FF00300F4D940E720F4803030603068F3
:101BD00020F480203060FFF741F90546306880032B
:101BE0003FF548AEFFF73AF9401B6428F6D90320C9
:101BF00002B0BDE8F08100BF206AB0F5803F05D19A
:101C00007168A26821F40031114371607168626AE1
:101C100021F4741111430843706001203866FFF706
:101C20001DF90446306880013FF565AFFFF716F9EE
:101C3000001B02284FF00300F4D906E7411E0020E4
:101C4000B0EB116F1CBF012070474EF21002CEF2B4
:101C5000000251604EF62351CEF20001F0230B70CA
:101C600007219060116070477047000070470000C6
:101C700090F83C20012A04BF02207047B0B501F162
:101C800008053CCDD1E900CE23F47C5322F47052F8
:101C90001A432EF4F0431A432CF4E0431A4324F47D
:101CA000C0431A432A43C96922F48042036811439E
:101CB0005964002180F83C100020B0BD90F83C2011
:101CC000012A4FF0020236D010B580F83D2002689C
:101CD000D2F804E0D2F808C00C682EF07003234359
:101CE00040F2FF74C4F20004A24253600ADCB2F175
:101CF000804F13D040F20043C4F200039A420DD04B
:101D000011E000BF42F60043C4F201039A4205D03D
:101D100040F60003C4F200039A4204D149682CF053
:101D20008003194391600121002280F83D1080F862
:101D30003C20BDE81040104670470000002804BF5A
:101D40000120704710B590F83D1031B9002180F89E
:101D50003C10044600F070F82046022180F83D1047
:101D6000016840F2FF740B68C4F2000442F6004CB4
:101D7000A142C4F2010C15DCB1F1804F1AD040F23F
:101D80000042C4F20002914214D0A14218DCB1F129
:101D9000804F1DD040F20042C4F20002914217D0A1
:101DA0001AE000BF614505D040F60002C4F200020F
:101DB0009142EAD1826823F070031343A142E6DD29
:101DC000614505D040F60002C4F20002914203D101
:101DD000026923F440731343846923F08002D0F82E
:101DE00004E0C368224361450A60CB62C1F828E081
:101DF00002D14269CCF8302001224A610B69DB072D
:101E000003D00B6923F001030B6180F8462080F8B2
:101E10003E2080F83F2080F8402080F8412080F864
:101E2000422080F8432080F8442080F8452080F844
:101E30003D20002010BD0000F0B585B0006840F6E0
:101E40000001C4F2000188424FF00001CDE9031106
:101E5000CDE9011146D040F20041C4F200018842B0
:101E60004DD141F21800C4F20200416840F600046E
:101E700041F0020141604168C4F2010401F0020135
:101E800000910099016801AD41F004010160016811
:101E9000002601F00401009100990168012741F03A
:101EA000080101600068294600F0080000900098D1
:101EB000C0200190204602960397FEF7BBFE032048
:101EC00001A9C1C104F580602946FEF7B3FE1D20BB
:101ED00000210022FFF748FB1D20FFF733FB05B070
:101EE000F0BD00BF41F21800C4F20200416841F0A9
:101EF00004014160406800F004000090009805B0C3
:101F0000F0BD000090F83D1001291CBF0120704772
:101F1000022180F83D10006840F2FF72C168C4F2EF
:101F20000002904241F00101C16009DCB0F1804F34
:101F300012D040F20041C4F2000188420CD012E0FD
:101F400042F60041C4F20101884205D040F600018A
:101F5000C4F20001884206D1816801F00701062918
:101F600004BF00207047016841F0010101600020BA
:101F70007047000090F83C20012A4FF002026CD01C
:101F800080B580F83D20D0F800C04FF67772DCF8BD
:101F9000083023EA0202CCF808200B684F2B29DC1A
:101FA0001F2B45DD202B46D0302B44D0402B40F05A
:101FB000AF80D1F804E0C968DCF82030DCF82020DC
:101FC00022F00102CCF82020DCF8182022F0F002E8
:101FD00042EA011123F00A0242EA0E02CCF818107C
:101FE000CCF82020DCF8081041F0470121F0300146
:101FF00028E000BF6F2B33DDB3F5005F74D0B3F57D
:10200000805F21D0702B40F08380D1E901E3C96863
:10201000DCF8082043EA0E0322F47F4243EA012160
:102020001143CCF80810DCF8081041F0770109E002
:102030000BB1102B6CD1DCF8081021F070011943A2
:1020400041F00701CCF808100022012180F83D1072
:10205000002180F83C10BDE880401046704700BF6A
:10206000502B21D0602B53D1D1F804E0C968DCF8A3
:102070002030DCF8202022F01002CCF82020DCF800
:10208000182022F4704242EA013123F0A00242EA11
:102090000E12CCF81810CCF82020DCF8081041F013
:1020A000670121F01001CDE7D1F804E0C968DCF840
:1020B0002030DCF8202022F00102CCF82020DCF8CF
:1020C000182022F0F00242EA011123F00A0242EA4B
:1020D0000E02CCF81810CCF82020DCF8081041F0E3
:1020E000570121F02001ADE7D1E901E3C968DCF82F
:1020F000082043EA0E0322F47F4243EA0121114300
:10210000CCF80810DCF8081041F480419AE700BFD1
:1021100001229AE7016840F20042C4F200029142B3
:1021200018BF704710B5017F012903D0022903D1E0
:10213000012405E0002403E00324042908BF02244D
:10214000A10000F0CFFC40F27401C2F2000101EBEB
:102150008402536893B1526890420FD90A1D02EB72
:102160004403B3F820C052F82430CCEB0C4CC31A13
:10217000634402EB8402136101239362043141F84A
:10218000240001EB440000210184BDE810407047A9
:1021900090F83C30012B04BF022070474FEAB20296
:1021A000032A00F28580F0B5DFE802F0025C203EF1
:1021B0000368D1E900C5D1F80CE01C6A1A6A40F244
:1021C000FF7722F001021A621A4652F8186FC4F221
:1021D0000007BB4272DCB3F1804F7BD040F2004776
:1021E000C4F20007BB4275D090E000BF0768D1E998
:1021F00000C5D1E902313C6A3A6A61F3071522F45D
:1022000080723A623A4652F81C6F26F0F30645EAAD
:1022100006014FEA5C0666F3492411603C621168CE
:1022200021F00C01116066E00368D1E900E6D1E914
:1022300002C11C6A1A6A360222F480521A621A46D5
:1022400052F81C5F4FF2FF07BE4325F4734561F35C
:102250000F364FEA5E0746EA050167F34D34116019
:102260001C621EE00368D1E900E6D1E902C11C6AE4
:102270001A6A360222F010021A621A4652F8185FE1
:102280004FF2FF07BE4325F4734561F30F3624F088
:10229000A0040EF00A0746EA050144EA0717116098
:1022A0001F6211684FEA0C2321F44061116022E0A3
:1022B0000121002280F83C200846704742F6004782
:1022C000C4F20107BB4205D040F60007C4F2000784
:1022D000BB421BD126F00306354324F00A070CF05D
:1022E0000A066EF3071537449D611F629F6927F048
:1022F0000C079F618B681168194311600021BDE8CC
:10230000F040002280F83C200846704746F0010566
:10231000E3E70000002804BF0120704710B590F8E3
:102320003D1031B9002180F83C10044600F070F8EF
:102330002046022180F83D10016840F2FF740B68CE
:10234000C4F2000442F6004CA142C4F2010C15DCB8
:10235000B1F1804F1AD040F20042C4F20002914223
:1023600014D0A14218DCB1F1804F1DD040F20042E0
:10237000C4F20002914217D01AE000BF614505D0B7
:1023800040F60002C4F200029142EAD1826823F0D2
:1023900070031343A142E6DD614505D040F600021B
:1023A000C4F20002914203D1026923F44073134343
:1023B000846923F08002D0F804E0C36822436145B9
:1023C0000A60CB62C1F828E002D14269CCF8302023
:1023D00001224A610B69DB0703D00B6923F001037B
:1023E0000B6180F8462080F83E2080F83F2080F87E
:1023F000402080F8412080F8422080F8432080F877
:10240000442080F8452080F83D20002010BD0000C9
:102410007047000031B3042908D0082919BF4FF0D4
:10242000450C41234FF0440C402302E04FF0430C95
:102430003F23C25C10F80C30012A4FF0010208BFA4
:10244000012B5FD10222082922D0042950D180F823
:102450003F2080F843204FEAB103032B4FF00102E5
:1024600020D94FE090F83E2090F84230012A4FF0FA
:10247000010208BF012B45D1022280F83E2080F8DE
:1024800042204FEAB103032B4FF001020AD939E091
:1024900080F8402080F844204FEAB103032B4FF02E
:1024A00001022FD846F2E43C0068C0F6000C5CF84C
:1024B00023C0C36801F01F0143EA0C03C360036A31
:1024C00002FA01F123EA01020262026A114340F2B8
:1024D000FF72C4F200029042016215DCB0F1804F3D
:1024E0001ED040F20041C4F20001884218D01EE024
:1024F00080F8412080F845204FEAB103032B4FF0CC
:102500000102CFD91046704742F60041C4F20101E2
:10251000884205D040F60001C4F20001884206D18D
:10252000816801F00701062904BF00207047016897
:1025300041F00101016000207047000070B50446C1
:102540000068C5680669B10716D515F0020113D0F9
:102550006FF002010161012121778069800703D0BA
:102560002046FFF7D7FD05E0204600F08FF8204613
:1025700000F026FA00202077700719D515F0040026
:1025800016D020686FF00401016102212177806973
:1025900010F4407F04D02046FFF7BCFD06E000BFEA
:1025A000204600F073F8204600F00AFA0020207759
:1025B000300717D515F0080014D020686FF0080117
:1025C000016104212177C069800703D02046FFF70D
:1025D000A1FD05E0204600F059F8204600F0F0F992
:1025E00000202077F00619D515F0100016D02068CD
:1025F0006FF01001016108212177C06910F4407F5C
:1026000004D02046FFF786FD06E000BF204600F01C
:102610003DF8204600F0D4F900202077F00718BFDD
:1026200015F0010002D1300609D412E020686FF0E5
:1026300001010161204600F033FA300609D515F09A
:10264000800006D020686FF0800101612046FFF70E
:102650000BFB700609D515F0400006D020686FF01E
:1026600040010161204600F049FAB00658BF70BD34
:1026700015F0200008D021686FF0200220460A6182
:10268000BDE87040FFF7F2BA70BD0000704700006F
:1026900090F83C30012B04BF022070474FEAB20291
:1026A000032A00F2F1802DE9F043DFE802F003A5F0
:1026B0003B7500BF036842F600461D6A1A6AC4F201
:1026C000010622F001021A621A465C6852F818CF1D
:1026D000B3428E68D1F800E025F0020545EA060510
:1026E0000CD1CE68D1E9057824F4407425F00C05AE
:1026F00026F004063C43354344EA08042CF07307F3
:1027000047EA0E075C609F614F6809695F631D625D
:102710009F6947F008079F619F6927F004079F6141
:10272000A6E000BF036842F600461D6A1A6AC4F2BA
:10273000010622F480721A621A46D3F804C052F8D5
:102740001CEFB3428E680C6825F4007545EA062537
:102750000FD1CE68D1E90598360240F2FF4725F443
:102760004065BE4335432CF4405748EA090647EA22
:10277000061C2EF073072743C3F804C0DF614F68BF
:102780000969DF631D62DF6947F00807DF61DF6900
:1027900027F00407DF616BE0036842F60047D3F8D7
:1027A00020C01A6AC4F2010722F480521A621A4643
:1027B0005C6852F81C5FD1F800E08E68BB4204D11F
:1027C0004F6924F4804444EA87142CF4005747EA04
:1027D000063725F4E64646EA0E265C60DE614E6862
:1027E00009691E641F62DF6947F40067DF61DF6902
:1027F00027F48067DF613AE0036842F600461D6A0D
:102800001A6AC4F2010622F010021A621A46D3F8BC
:1028100004C052F8184FB3428E68D1F800E025F09A
:10282000200545EA06150FD1CE68D1E905986FF06D
:10283000400725F0C00507EA061635432CF440672B
:1028400048EA090647EA860C24F4E64444EA0E27DF
:10285000C3F804C09F614F6809699F631D629F6947
:1028600047F400679F619F6927F480679F610902B1
:102870001368194311600021BDE8F043002280F87D
:102880003C200846704700BF0121002280F83C2010
:1028900008467047002804BF0120704710B590F823
:1028A0003D1031B9002180F83C10044600F070F86A
:1028B0002046022180F83D10016840F2FF740B6849
:1028C000C4F2000442F6004CA142C4F2010C15DC33
:1028D000B1F1804F1AD040F20042C4F2000291429E
:1028E00014D0A14218DCB1F1804F1DD040F200425B
:1028F000C4F20002914217D01AE000BF614505D032
:1029000040F60002C4F200029142EAD1826823F04C
:1029100070031343A142E6DD614505D040F6000295
:10292000C4F20002914203D1026923F440731343BD
:10293000846923F08002D0F804E0C3682243614533
:102940000A60CB62C1F828E002D14269CCF830209D
:1029500001224A610B69DB0703D00B6923F00103F5
:102960000B6180F8462080F83E2080F83F2080F8F8
:10297000402080F8412080F8422080F8432080F8F1
:10298000442080F8452080F83D20002010BD000044
:10299000006842F60041C4F20101884218BF704746
:1029A00081B041F21800C4F20200016841F40061F4
:1029B0000160006800F400600090009801B070476A
:1029C00070470000C1B1042908D0082914BF412272
:1029D0004022825C012A05D016E000BF3F22825CC3
:1029E000012A11D10222082910D0042914BF80F82D
:1029F000412080F83F200BE090F83E20012A03D1CF
:102A0000022280F83E2003E00120704780F8402039
:102A1000006801F01F010122036A8A4023EA0201D3
:102A20000162036A42F64441C4F201011A43A1F172
:102A30004403984202620FD040F2FF71C4F20001D9
:102A4000884213DCB0F1804F1CD040F20041C4F248
:102A50000001884216D01CE00A6842F400420A6075
:102A600040F2FF71C4F200018842EBDD42F6004102
:102A7000C4F20101884205D040F60001C4F2000111
:102A8000884206D1816801F00701062904BF0020B1
:102A90007047016841F001010160002070470000AB
:102AA00010B504460068B0F1804F02D1FEF7AEFCCD
:102AB000206840F20041C4F20001884218BF10BDF6
:102AC00040F27800C2F20000018C01310184418C97
:102AD00001314184818C01318184C18C0131C184F7
:102AE00010BD00004FEAB101032984BF00207047E8
:102AF000006800EB8100406B7047000070470000E9
:102B0000002804BF0120704710B5044690F841002A
:102B100028B9002084F84000204600F063F8242003
:102B200084F841002068D4E90212C36823F40053FA
:102B3000C360036923F440531A430261D4E90423B8
:102B40001143C268194341F20C639A431143C160B7
:102B50004169A26921F44071114343F60002C4F2B5
:102B600001029042416103D0FEF740FE02E000BF47
:102B7000FEF750FED4E90023192148439900B0FB29
:102B8000F1F048F21F5CC5F2EB1CA0FB0C314FF6D4
:102B90009C734909C0F6FF7301FB0300322303EB6A
:102BA0000010A0FB0C03F02000EA531000EB011012
:102BB000C3F34311084490601069202120F4904031
:102BC0001061506920F02A005061D06840F4005034
:102BD000D0600020606484F8411084F84210606383
:102BE00010BD00002DE9F04186B00446006844F2B3
:102BF0000041C4F20001002788420597CDE9037720
:102C0000029761D043F60001C4F20101884240F00E
:102C1000BB8041F21800C4F20200016840F60005D2
:102C200041F4804101600168C4F2010501F4804172
:102C300001910199016802AE41F004010160006850
:102C400040F2440800F00400019001984FF4007035
:102C50000290022003900320059028463146C4F2DA
:102C60000208FDF7E7FF4FF4806002900027284636
:102C70003146CDE90377FDF7DDFF40F2102508F17D
:102C80001400C2F200058026C5E900072846C5E900
:102C90000276C5E90477C5E90677FDF75BFF0028F2
:102CA00018BFFDF781FEE5636C6240F25425C2F265
:102CB00000051020C5E90080C5E90276C5E9047762
:102CC000C5E9067757E000BF41F21800C4F20200E0
:102CD000416840F6000541F4003141604168C4F2AA
:102CE000010501F4003101910199016802AE41F042
:102CF00004010160006840F2440800F00400019003
:102D00000198042002900220039003200590284699
:102D10003146C4F20208FDF78DFF0820CDE9020715
:102D2000284631460497FDF785FF40F2982508F1C3
:102D30002800C2F200058026C5E900072846C5E93B
:102D40000276C5E90477C5E90677FDF703FF002899
:102D500018BFFDF729FEE5636C6240F2DC2508F13F
:102D60003C00C2F200050022102185E84700C5E9B9
:102D70000422C5E906222846FDF7ECFE002818BF0C
:102D8000FDF712FEA5636C6206B0BDE8F08100009D
:102D90002DE9F04381B0044690F84100202809D184
:102DA00000294FF0010018BF002A07D101B0BDE88B
:102DB000F08300BF022001B0BDE8F0830020606412
:102DC00021201D460E4684F841001746FEF746F8BE
:102DD000A784E784A1688146B1F5805F02D12069AC
:102DE00000285DD037460020E28C2168002A5DD0A3
:102DF0006A1C24D0002D4AD0804600BF0868000617
:102E000008D4FEF72BF8A0EB0900A8427AD8216875
:102E1000C868F3E717B117F8010B04E038F8020BA4
:102E200000276FF35F204860E08C0138E084E08C7D
:102E30000028E3D13AE000BF0A68120609D40A6804
:102E4000120606D40A6812065CBF0A685FEA0262CC
:102E5000F2D51FB117F8012B05E000BF30F8022BA7
:102E600000276FF35F224A60E28C013AE284E28C31
:102E7000002AE4D11AE000BF30F8022B00276FF3DC
:102E80005F224A60E28C013AE284E28C72B10A6805
:102E9000120635D5002FEFD017F8012BF1E700BF50
:102EA00000273046E28C2168002AA1D1086840063C
:102EB0001ED42DB3681C14D1086840062AD40868B3
:102EC000400627D40868400624D4086840064FF01E
:102ED0000000F1D50DE000BF2068C1680068400621
:102EE00018D4FDF7BBFFA0EB0900A842F4D909E014
:102EF0000020202184F8411001B0BDE8F08300BF1C
:102F0000FDF7ACFF0320202184F8411001B0BDE89B
:102F1000F08300BF0020202184F8411001B0BDE8FB
:102F2000F08300002DE9F04383B0044600680F46AB
:102F300001680A9D0B9E41F480719946904601609C
:102F400020464FF0011100222B46009600F0ACF80D
:102F500050B120680068C00544BF4FF40070206481
:102F6000032003B0BDE8F083206807F0FE01016193
:102F70000221C0F2010120462A46334600F07AF9C8
:102F800020B1012003B0BDE8F08300BF0020029013
:102F90002068324641690291806929460290029870
:102FA000204600F0D3F958B1206C0428E9D12068FC
:102FB000016841F400710160012003B0BDE8F083B5
:102FC0002068B9F1010F0AD04FEA182101612046AB
:102FD0002946324600F0BAF90028E5D120685FFAA8
:102FE00088F10161002003B0BDE8F08370B503688B
:102FF000044653F8140F400711D40E46481C29D03C
:1030000086BB00BF1868400527D4FDF727FF23685B
:1030100053F8140F400737D518684007F2D5002041
:1030200070BD00BF18684007F9D41868400514D473
:1030300018684007F3D4186840050ED41868400794
:10304000EDD41868400508D4186840074FF0000018
:1030500048BF70BD18684005E4D56FF48060186003
:10306000042012E0154603E053F8140F4007D6D4AD
:1030700018684005F1D4FDF7F1FE401B2368B0420B
:10308000F2D958694007EFD4202000212022216383
:1030900084F83D2084F83E10226C10432064012007
:1030A00084F83C1070BD00002DE9F0410546006831
:1030B0001E46144601F47F0201338FB242D0DDF880
:1030C0001880B2F5803F40F0878040693840C01BCF
:1030D000B0FA80F04009A04240F0C8804EB924E028
:1030E00040693840C01BB0FA80F04009A04240F06F
:1030F000BD80FDF7B3FEA0EB08012868B142EFD90F
:1031000041693940C91BB1FA81F14909A142E7D1AE
:103110009BE000BF40693840C01BB0FA80F0400916
:10312000A0424FF0000040F0A280FDF797FE286813
:1031300041693940C91BB1FA81F14909A142E9D17C
:1031400083E000BFB2F5803F24D100BF4169394020
:10315000C91BB1FA81F14909A14240F08780416958
:103160003940C91BB1FA81F14909A14240F07E8082
:1031700041693940C91BB1FA81F14909A14275D1B0
:1031800041693940C91BB1FA81F14909A142DDD039
:103190006CE000BF81693940C91BB1FA81F149096E
:1031A000A14263D181693940C91BB1FA81F1490952
:1031B000A1425BD181693940C91BB1FA81F149094A
:1031C000A14253D181693940C91BB1FA81F1490942
:1031D000A142DFD04AE000BF80693840C01BB0FA8E
:1031E00080F04009A04241D146B923E080693840CF
:1031F000C01BB0FA80F04009A04237D1FDF72EFE87
:10320000A0EB08012868B142F0D981693940C91B97
:10321000B1FA81F14909A142E8D116E0806938404C
:10322000C01BB0FA80F04009A0424FF0000018BF68
:10323000BDE8F081FDF712FE286881693940C91B9D
:10324000B1FA81F14909A142E8D100202021286387
:1032500085F83D1085F83E00296C41F02001296475
:1032600085F83C000120BDE8F08100BF0020BDE8EA
:10327000F0810000F0B581B0044600681D46436946
:103280008FB203EA0701B94202D1002001B0F0BDBC
:103290004169164601323CD0490512D47EB300BFC5
:1032A000FDF7DCFD411B2068B14203D9416939407B
:1032B000B9422BD141693940B942E6D0416949054B
:1032C000EED5016841F4007101606FF480614161E5
:1032D000042000212022216384F83D2084F83E1040
:1032E000226C1043206484F83C10012001B0F0BD32
:1032F00041693940B942C8D041694905E1D4FDF777
:10330000ADFD206841693940B942F1D02020E0E7A5
:1033100041694905D5D441693940B942B5D04169BF
:103320004905CED441693940B942AED04169490519
:10333000C7D441693940B942A7D041694905C0D4D1
:1033400041693940B942E3D19FE7000070B5036895
:10335000044653F8140F000611D40E46481C29D019
:1033600086BB00BF1868400527D4FDF777FD2368AA
:1033700053F8140F000637D518680006F2D5002060
:1033800070BD00BF18680006F9D41868400514D451
:1033900018680006F3D4186840050ED418680006B3
:1033A000EDD41868400508D4186800064FF00000F6
:1033B00048BF70BD18684005E4D56FF480601860A0
:1033C000042012E0154603E053F8140F0006D6D48B
:1033D00018684005F1D4FDF741FD401B2368B04259
:1033E000F2D958690006EFD4202000212022216361
:1033F00084F83D2084F83E10226C104320640120A4
:1034000084F83C1070BD00002DE9F04186B00B46F9
:1034100040F2F007044601600271C2F20007002585
:1034200051001846032202233D60BD600226FDF7CD
:10343000CDFD18B1284606B0BDE8F0818021206896
:10344000ADF812100DF112014FF47A788DE84201B7
:103450008021002201230125FDF7C2FE0120FDF796
:10346000BBFB00200021C4F22060C4F2A001C7E928
:10347000001028214FF07A522068ADF8141005A9E9
:10348000BA60CDE90016802105220123CDF808801D
:10349000FDF7A6FE49F601712068ADF816100DF192
:1034A0001601CDE90016802100220123CDF8088005
:1034B000FDF796FE284606B0BDE8F08180B582B0E3
:1034C00041F21400C4F202000168002241F001013F
:1034D00001600068002100F00100019001980E20B9
:1034E000FEF742F80E20FEF72DF80F2000210022F3
:1034F000FEF73AF80F20FEF725F8102000210022F1
:10350000FEF732F81020FEF71DF8112000210022EE
:10351000FEF72AF8112002B0BDE88040FEF712B88D
:103520002DE9F04F85B04FF0000941F21800CDE9C8
:103530000399CDE90199C4F20200016840F6000840
:1035400041F0100101600168C4F2010801F01001AE
:1035500000910099016808F5006741F020010160C1
:103560000168012201F020010091009901684FF4E7
:10357000604441F00401016001684FF0010B01F06B
:10358000040100910099016841F0080101600068A0
:103590004FF4604100F00800009000983846FDF7B5
:1035A00057FC40464FF410410022FDF751FC08F54E
:1035B00080652846382100224FF0380AFDF748FC84
:1035C00001AECDE9014B022438463146CDF80CB0AE
:1035D0000494FDF72FFB01A880E8100A404631460D
:1035E000FDF728FB3020CDE9010940463146039420
:1035F000FDF720FB0420CDE9010928463146CDF82E
:103600000C90FDF717FB4FF4704001900020C1F2C1
:103610003100CDE9020B28463146FDF70BFB4FF494
:103620008050CDE9010B40463146CDE90344FDF71A
:1036300001FB4FF40040CDE9010B40463146CDE996
:103640000394FDF7F7FA28463146CDE901ABCDE901
:103650000394FDF7EFFA282002210022FDF784FFF2
:103660002820FDF76FFF05B0BDE8F08F80B540F270
:10367000203045F20041C2F20000C4F2000148F2DD
:10368000A06200234FF4804CC0F2010280E80E00DB
:10369000C0E9033CC0E90533C0E90733FDF7E4FBAB
:1036A000002808BF80BDBDE88040FDF77DB900005F
:1036B00080B540F2743045F60001C2F20000C4F259
:1036C000000148F2A06200234FF4804CC0F20102D6
:1036D00080E80E00C0E9033CC0E90533C0E90733C8
:1036E000FDF7C2FB002808BF80BDBDE88040FDF7A4
:1036F0005BB9000070B598B040F60004C4F2010454
:1037000040F2C830002104F51052C2F200004723F5
:1037100031261191CDE90F11CDE90D11CDE90B1134
:10372000CDE90911CDE90711CDE90511CDE9031165
:10373000CDE90111C0E90023C0E90216C0E9041176
:103740008161FFF7A7F8002818BFFDF72DF940F2B7
:10375000C830C2F2000010A9FEF7B0FA002818BF66
:10376000FDF722F960200990002002210A90CDE99E
:103770000B10CDE90D000F9040F2C830C2F20000EE
:1037800009A90022FEF784FF002818BFFDF70CF9F5
:1037900040F2C830C2F2000009A90C22FEF778FFFF
:1037A000002818BFFDF700F940F2C8354FF400506B
:1037B000C2F200050026069001A928460596CDE92B
:1037C0000366CDE901660896FEF752FA002818BF95
:1037D000FDF7EAF8286840F60001C4F200018842CB
:1037E0001796CDE91566149616D042F60041C4F23C
:1037F0000101884228D141F21800C4F20200016898
:1038000041F004010160006800F004001390139877
:103810004FF4106010E000BF41F21800C4F2020043
:10382000016804F5806441F008010160006800F05F
:10383000080013901398C020149002201590179040
:1038400014A92046FDF7F6F918B070BD10B58AB07E
:1038500040F2584040F200420021C2F20000C4F29F
:10386000000240F2CF234FF6FF740991CDE9071112
:10387000CDE90411CDE90211CDE90011C0E9002321
:10388000C0E9021401618161FEF758FA002818BFEF
:10389000FDF78AF84FF48050069040F25840C2F28B
:1038A000000006A9FEF766FB002818BFFDF77CF8AC
:1038B00040F25840C2F20000FEF72CFD002818BF6D
:1038C000FDF772F840F258400024C2F2000004A94B
:1038D000CDE90444FEF7F2F9002818BFFDF764F8BB
:1038E0000120CDE901040C20039040F25840C2F2BF
:1038F0000000694600220094FEF74AFC002818BF29
:10390000FDF752F840F25840C2F200006946042226
:10391000FEF73EFC002818BFFDF746F840F258407D
:10392000C2F2000069460822FEF732FC002818BFE8
:10393000FDF73AF840F25840C2F2000069460C2206
:10394000FEF726FC002818BFFDF72EF80AB010BDC0
:10395000B0B594B040F6000540F2A040C4F20005B6
:103960000021C2F20000472231230E91CDE90C1153
:103970000991CDE90711CDE90511CDE90311CDE993
:103980000111C0E90052C0E9021301618161FEF733
:10399000D5F9002818BFFDF707F84FF480500B90B9
:1039A00040F2A040C2F200000BA9FEF7E3FA0028A3
:1039B00018BFFCF7F9FF40F2A040C2F20000FEF78A
:1039C00069FF002818BFFCF7EFFF40F2A040002479
:1039D000C2F2000008A9CDE90844FEF76FF90028FB
:1039E00018BFFCF7E1FF6020CDE90104022003903D
:1039F00040F2A040C2F2000001A900220594FEF7A7
:103A000047FE002818BFFCF7CFFF40F2A044C2F2E7
:103A1000000401A920460422FEF73AFE002818BF40
:103A2000FCF7C2FF20680021A842CDE912111191D4
:103A3000109117D042F60041C4F20101884228D10A
:103A400041F21800C4F20200016841F00401016073
:103A500000684FF4106100F004000F900F9805F516
:103A600080300FE041F21800C4F20200016841F01A
:103A7000080101600068C02100F008000F900F9855
:103A800005F58230109102211191139110A9FDF7D3
:103A9000D1F814B0B0BD000080B540F2E84043F664
:103AA0000001C2F20000C4F2010100234FF00C0C2F
:103AB0004FF4E13280E80E00C0E90333C0E905C3EA
:103AC000C361FFF71DF8002808BF80BDBDE8804036
:103AD000FCF76ABF80B540F2305044F20041C2F2B8
:103AE0000000C4F2000100234FF00C0C4FF4E1324F
:103AF00080E80E00C0E90333C0E905C3C361FEF7E7
:103B0000FFFF002808BF80BDBDE88040FCF74CBF28
:103B1000FEE7000086B040F2C834C2F2000420463E
:103B200000214FF00008FEF74DFF20460C21FEF764
:103B300049FF40F2A044C2F2000420460021FEF7F3
:103B400041FF20460421FEF73DFF40F60044C4F249
:103B50000104A4F580604FF400410122FDF778F9DB
:103B6000204608210122FDF773F920461021012289
:103B7000FDF76EF9204620210122FDF769F940F298
:103B80005844C2F2000420460021FEF743FC2046C0
:103B90000421FEF73FFC20460821FEF73BFC2046AF
:103BA0000C21FEF737FC2046FEF7ACF942F6404008
:103BB000C4F201001921016040F63400C4F2000093
:103BC00040F274064CF6CD4401601E21C2F200069C
:103BD000C3F6CC54416006F13C0021464FF07C52C4
:103BE00000F0D6FA06F14C0021464FF07C5200F06E
:103BF000CFFA06F15C0021464FF07C5200F0C8FA83
:103C000006F16C0021464FF07C5200F0C1FA4FA043
:103C100000F080FD45F2000440F28819C4F2C3743C
:103C2000C2F2000938E000BF2968081A282886BFB8
:103C30000026C9F83860D9F83860D9F80800D9F8F2
:103C40001840D9F82850FCF7BBFB834620468A462B
:103C5000FCF7B6FB044628460F46FCF7B1FB0546C9
:103C600030468846FCF7ACFB04903EA05A465346CB
:103C7000CDE90047CDE90258059100F04BFD282021
:103C800001F0DCFA45F2000440F274064FF000083F
:103C9000C4F2C374C2F200063068F16A43F20855F8
:103CA000C2F2000501290CD17069FCF777FB0146CF
:103CB0002046FCF7C3FAC9F8080028683060C6F847
:103CC0002C802968091A292928BFC9F80880316B76
:103CD00001290CD1B069FCF761FB01462046FCF7D5
:103CE000ADFAC9F8180028683060C6F83080296835
:103CF000091A292928BFC9F81880716B01290CD12C
:103D0000F069FCF74BFB01462046FCF797FAC9F82F
:103D1000280028683060C6F834802968091A2929E3
:103D200028BFC9F82880B16B01297FF47DAF306AC4
:103D3000FCF734FB01462046FCF780FAC9F838004E
:103D400028683060C6F838806EE700BF4D6F746F2A
:103D5000722054687265616420496E6974204F4B0B
:103D6000210D0A00252E32662C252E32662C252E9A
:103D700032662C252E32660A00000000FEE70000A5
:103D800040F2FC01C2F200010B684A6843F2085C91
:103D9000012AC2F2000C06D18B6800220360DCF815
:103DA00000300B604A60DCF80020D21AFB2A24BFE6
:103DB000002202600A69012A06D14A694260DCF8E1
:103DC000003000220B600A61DCF80020D21AFB2AC6
:103DD00024BF00224260CA69012A06D10A6A8260B1
:103DE000DCF8003000220B60CA61DCF80020D21A37
:103DF000FB2A24BF002282608A6A012A06D1CA6A8D
:103E0000C260DCF8003000220B608A62DCF800102F
:103E1000C91AFB2924BF0021C160704710B50446B0
:103E200040F60040C4F201002146FDF70BF8A4F56E
:103E3000805100284FEA313014D0072888BF10BDC8
:103E4000DFE800F0044258365858584E43F2085004
:103E5000C2F20000006840F2FC01C2F20001C8603A
:103E600010BD00BF072845D8DFE800F004644446D1
:103E70004444448243F2085040F2FC04C2F2000081
:103E8000C2F200040068E168401AFCF78CFA48F2BC
:103E9000123244F2A153CCF6C022C3F6C673FCF72B
:103EA0000BFAFCF7A0FAA0600120606010BD00BF13
:103EB00043F20850C2F20000006840F2FC01C2F276
:103EC0000001486210BD00BF43F20850C2F200007A
:103ED000006840F2FC01C2F20001886110BD00BF21
:103EE00043F20850C2F20000006840F2FC01C2F246
:103EF0000001086310BD00BF43F2085040F2FC040B
:103F0000C2F20000C2F200040068616A401AFCF7C5
:103F10004AFA48F2123244F2A153CCF6C022C3F658
:103F2000C673FCF7C9F9FCF75EFA20620120E06174
:103F300010BD00BF43F2085040F2FC04C2F2000082
:103F4000C2F200040068A169401AFCF72CFA48F29A
:103F5000123244F2A153CCF6C022C3F6C673FCF76A
:103F6000ABF9FCF740FA60610120206110BD00BF91
:103F700043F2085040F2FC04C2F20000C2F2000416
:103F80000068216B401AFCF70EFA48F2123244F234
:103F9000A153CCF6C022C3F6C673FCF78DF9FCF72B
:103FA00022FAE0620120A06210BD0000704700000C
:103FB00040F24804C2F2000440F2203140F600080A
:103FC00004F11800C2F200018022C4F20108FFF7D8
:103FD0001BFA10B11AA000F09DFB04F1080508F5CA
:103FE000006600BF2846FFF7CBFE1E2001F026F931
:103FF000277930464FF400513A46FCF729FF87F005
:104000000100207140460221FCF71CFF0028E9D185
:10401000142001F0E5F940460221FCF713FF0028C7
:10402000E0D102E0012001F0DBF940460221FCF77B
:1040300009FF0028F6D00520207006A0CBE700BFBE
:10404000494E4132313920496E6974204F4B210D60
:104050000A0000004B657953686F72745072657383
:10406000730D0A0080B500F039FB01F0C7FABDE816
:10407000804000F041BB0000B0B590B000240120AA
:10408000CDE90B44CDE9094406900A904FF4E010C5
:104090004FF4803102250F9006A8CDE90714CDE931
:1040A0000D51FDF7CBFB28B1EFF3108072B600BFC6
:1040B000FEE700BF0F20CDE901054FF48060CDE998
:1040C000040401A802210394FDF78AFA20B1EFF35A
:1040D000108072B6FEE700BF10B0B0BD41F2040020
:1040E000C4F20200016801F00C01082941F200212C
:1040F000C0F27A010FD102680368C2F38342DB0386
:1041000002F1020202D503689B0303D540F60011B9
:10411000C0F23D01514340F20802C2F200021160B8
:10412000006846F2B823C0F30310C0F60003185C21
:1041300021FA00F0106070477047000040F2104014
:10414000C2F20000FEF7FAB940F25840C2F2000095
:10415000FEF7F4B9FEE70000002804BF0020704716
:10416000C1B209B101200CE010F47F4102D0090A6C
:10417000092006E010F47F0107BF010E1920090C89
:10418000112046F2D222C0F60002515C084470476A
:104190000023C0E90033C0E90221704770B582B046
:1041A00043F6B1710A24062511A0C0F600010022D1
:1041B0004FF48063CDE9005400F0E8FF40F2400680
:1041C000C2F20006306001F077F943F615310AA01B
:1041D000C0F6000100224FF48063CDE9005400F0E6
:1041E000D5FF706001F068F9002002B070BD00BF1B
:1041F00053656E73657200004D6F746F72730000CB
:10420000B0B546F2B04446F2AC40C0F60004C0F689
:104210000000A04209D246F2AC45C0F6000500BF3E
:1042200055F8040B8047A542FAD3BDE8B040FFF72C
:10423000B5BF0000B0B546F2AC4446F2A440C0F6AB
:104240000004C0F60000A04228BFB0BD051F00BF9B
:1042500055F8040F8047281DA042F9D3B0BD0000D7
:1042600080B5FBF75FFF40F26811C2F200014A8897
:1042700001324A80BDE88040FBF758BFB0B5FBF77C
:1042800051FF40F26814C2F20004618801390AB299
:10429000002A618004DDBDE8B040FBF747BF00BFE6
:1042A00000216180FBF742FF6068002808BFB0BDB5
:1042B000FBF738FF61880029EDD10546A068FFF7BC
:1042C0004BFF421E43F20030C2F2000050F83210A1
:1042D0006068A1F1140383420CD0227043F2F812FB
:1042E0006360C2F2000212781C3001F108013AB199
:1042F000FBF71FFF2846BDE8B040FBF717BF00BF24
:10430000FBF717FF2846BDE8B040FBF70FBF0000E2
:104310002DE9F041002855D040F23017C2F20007D5
:1043200004467868A0424DD8B868A04298BFBDE85E
:10433000F08107F1180840464FF0FF31A4F10C0658
:1043400000F0C2FC34F80A0C18B13088B0F5F55F03
:104350000AD024A000F0DEF934F80A2C34F80C3C22
:1043600027A0314600F0D6F94FF4F55044F80C0C74
:10437000D7F80CC066453CBFFE60B44654F8082C24
:1043800078683D691318F11A294439610ED05988AB
:1043900061B9B9688B4209D09C4504BFFE60B44640
:1043A0005A68311A831844F8082C996054F8043C70
:1043B000C518B54201D0698831B14046BDE8F04129
:1043C00000F05CBCBDE8F081B44508BFFD606A60E8
:1043D00054F8081C084483604046BDE8F04100F0F2
:1043E0004DBC00BF746F20667265652061206261FC
:1043F00064206461746120626C6F636B3A0A000030
:104400006D656D3A203078253038782C20757365CD
:104410006420666C61673A2025642C206D616769B1
:104420006320636F64653A203078253034780A0061
:1044300040F2F450C2F200007047000040F2F45025
:10444000C2F2000000F530507047000010B5FCF7D4
:10445000EBFFFFF711FEFFF741FEFFF761F8FFF7F3
:104460002DF8FFF703F9FFF723F9FFF743F9FFF7FB
:10447000EDF9FFF76DFAFFF70FFBFFF72BFBFDF7E9
:10448000AFF944F6D351C1F26201A0FB01018809E2
:10449000FDF7D4FBFFF7CEFEFFF7CAFF0446FFF798
:1044A000CDFF01462046BDE8104000F057BD00009A
:1044B000F0B581B004460D208DF8030040F2C8101D
:1044C000C2F20000002180F84010204600F0E2FC1B
:1044D000F0B140F2C8160546C2F200060DF103071E
:1044E0000BE000BF3046214601224FF6FF73FEF776
:1044F0004FFC013D04F101040AD020780A28F1D1D3
:104500003046394601224FF6FF73FEF741FCE9E7DA
:1045100001B0F0BD10B540F2F051C2F200010968DF
:10452000044621B120468847002808BF10BD216CF1
:1045300046F28C40C0F6000000F0ECF8616A46F2EA
:104540004B40C0F6000000F0E5F8A16A46F2584082
:10455000C0F6000000F0DEF8E16A46F26540C0F601
:10456000000000F0D7F8216B46F27240C0F6000060
:1045700000F0D0F8616846F27F40C0F6000000F01D
:10458000C9F8A1681EA000F0C5F8E16820A000F0FD
:10459000C1F8216922A000F0BDF8616924A000F0F3
:1045A000B9F8A16926A000F0B5F8E16928A000F0EB
:1045B000B1F8216A2AA000F0ADF8616B2CA000F0E0
:1045C000A9F8A16B2EA000F0A5F8E16B30A000F0D7
:1045D000A1F82078400707D446F21440C0F6000046
:1045E00000F098F80AE000BF00F024FF014646F210
:1045F0002E40C0F6000000F08DF800BFFEE700BFBF
:104600007230353A203078253038780A00000000C2
:104610007230363A203078253038780A00000000B1
:104620007230373A203078253038780A00000000A0
:104630007230383A203078253038780A000000008F
:104640007230393A203078253038780A000000007E
:104650007231303A203078253038780A0000000076
:104660007231313A203078253038780A0000000065
:104670007231323A203078253038780A0000000054
:10468000206C723A203078253038780A000000001B
:104690002070633A203078253038780A0000000016
:1046A00004324BF6EF6C22F00702CDF6AD6C42F807
:1046B00040CDC2E901CCC2E903CCC2E905CCC2E9D4
:1046C00007C100214FF0807CC2E90D301046C2E9DD
:1046D0000911C2E90B11C2F83CC0704780B5FBF765
:1046E00021FD43F2F811C2F200010A7801320A708A
:1046F000BDE88040FBF71ABD80B5FBF713FD43F220
:10470000F811C2F200010A78013A0A70BDE880404F
:10471000FBF70CBD83B010B581B043F20024844692
:1047200003A8C2F200040EC003AB2046FF2162467C
:10473000009301F033F92046FFF7BAFEA00743F2D9
:104740000020C2F200004FF48071FBF76CFD01B055
:10475000BDE8104003B07047002804BF0020704738
:104760002DE9F04381B040F23019C2F20009033064
:10477000D9F8001020F003078F425ED809F118081D
:1047800040464FF0FF310C2F98BF0C2700F09CFAE9
:10479000D9E900C1D9F80CE0ACEB0704AEEB01039A
:1047A000A34247D2CE187288706822B903F10C0573
:1047B000421BBA4246D2A0423CD20E18728873689D
:1047C00022B900F10C055A1BBA4216D2A34231D2CB
:1047D000CE187288706822B903F10C05421BBA42E8
:1047E00030D2A04226D20E1872887368002AD7D120
:1047F00000F10C055A1BBA42D2D30446184607F101
:1048000018039A4223D3EB1907F10C02CD184FF489
:10481000F557CF50C5E901047360686801240CF1B5
:104820000C07B84274801CBF08448360D9E90403B4
:1048300012E000BF404600F021FA002001B0BDE8C0
:10484000F08300BF1C4607F118039A42DBD2012215
:104850007280D9E90423001B10448342C9F8100078
:1048600038BFC9F814004FF4F5507645308030D188
:10487000BEF8020068B3D9F80820964529D0DEF8C2
:10488000040001EB000EBEF80200002818BF964598
:104890001DD0DEF8040001EB000EBEF80200002877
:1048A00018BF964513D0DEF8040001EB000EBEF8E9
:1048B0000200002818BF964509D0DEF8040001EB7D
:1048C000000EBEF80200002818BF9645D7D1C9F8DF
:1048D0000CE0404600F0D2F906F10C0001B0BDE852
:1048E000F083000010B5042A1ED310F003031BD17F
:1048F000CBB24FF00134102A03FB04FC16D3A2F113
:104900001004012303EB141313F0030310D0012B45
:10491000C0E900CCC0F808C0C0F80CC00CD100F150
:10492000100322461BE000BF864656E0864631E073
:104930000346302C16D22BE0022BC0E904CCC0F881
:1049400018C0C0F81CC003D100F12003203A06E0D3
:1049500000F13003303AC0E908CCC0E90ACC9E46E9
:10496000302C15D303F1400E403AC3E900CCC3E923
:1049700002CCC3E904CCC3E906CCC3E908CCC3E943
:104980000ACCC3E90CCCC3E90ECC0F2A7346E9D894
:10499000042A22D3734600BF141F042C4EF804CB04
:1049A0001AD3A2F10804042CC3F804C00ED3A2F158
:1049B0000C04042CC3F808C00CD303F1100E103AF9
:1049C000C3F80CC0032A7346E6D806E003F1080ECC
:1049D00002E000BF03F10C0E2246002A08BF10BD02
:1049E0005FFA81FC0446704611466246FBF714FCF0
:1049F000204610BD2DE9F041884640F20C01C2F27C
:104A000000010A78054682420F460AD00F4617F881
:104A1000100FA84205D011F8200FA84218BF00219E
:104A20000F46F868FFF798FE0646C0B1FA683046B0
:104A300000210024FFF756FF304641460822357218
:104A4000747200F03FFAFBF76DFB57F8041F324613
:104A500042F80C1F4A603A605760FBF767FB30462C
:104A6000BDE8F08110B5044600202072FBF75AFB28
:104A70002246216952F80C3F59600B602261126096
:104A8000FBF754FB2046BDE81040FFF741BC000097
:104A900010B5044600202072FBF744FB54F80C1FAD
:104AA00062684A601160C4E90044BDE81040FBF749
:104AB0003DBB0000F0B581B00E4640F20C01C2F2E1
:104AC000000115460A780446B2420F460AD00F4646
:104AD00017F8100FB04205D011F8200FB04218BFE0
:104AE00000210F46FFF7BCFB043738460068B84288
:104AF00008D00068B84205D00068B84202D000680B
:104B0000B842F3D1FFF7BAFB46F08000207220468E
:104B10002946082200F0D6F9FBF704FB396844F86F
:104B20000C1F4C603C60676001B0BDE8F040FBF7D3
:104B3000FDBA0000007AC0097047000070B5FBF7AD
:104B4000F1FA40F26815C2F20005698821B1BDE8AA
:104B50007040FBF7EBBA00BFA96806460846FFF7AE
:104B6000FBFA01464A1E43F20031C2F2000151F83D
:104B700032106B68A1F1140430469C42E7D043F236
:104B8000F8102A706C60C2F20000027803F11C0079
:104B900001F1080132B1FBF7CCFA3046BDE87040B4
:104BA000FBF7C4BAFBF7C5FA3046BDE87040FBF727
:104BB000BDBA000010B50446FBF7B4FA94F83410FF
:104BC00094F8352001F0F001013184F8341043F2FB
:104BD0000031C2F2000101EBC2014A6840F2681CD8
:104BE00004F11403C2F2000C1360A2614B60A26BCB
:104BF000DCF80830616143EA0201CCF80810BDE836
:104C00001040FBF793BA0000B0B50546FBF78AFAEF
:104C1000294651F8142F4B6853601A6091F82120EF
:104C200043F200330960C2F2000353F8324003EB51
:104C3000C2029442496003D0BDE8B040FBF776BAA7
:104C400040F26812C2F20002A96B936823EA0101E4
:104C50009160BDE8B040FBF769BA000070B5154639
:104C60000A4602211C460646FFF724FF06F11400FF
:104C7000C6E905000020B583747270BD10B5044606
:104C8000FBF750FA224652F8141F91420CD0143907
:104C90000446084600F0ACFB2046FBF747FAFFF756
:104CA0004DFF002010BD00BFA18B4FF6FF72914257
:104CB00004D1FBF73BFA6FF0020010BD0131A18374
:104CC000FBF734FA002010BD2DE9F04381B00D460A
:104CD00006460091FBF726FAB18B39B10139B18351
:104CE000FBF724FA002001B0BDE8F083002D3FD08F
:104CF000804600F09FFB044600202063777A204620
:104D000006F1140900F006FCD7B3012F404640D14C
:104D100049460968494555D094F8352091F8213025
:104D20009A421AD3096849454CD094F8352091F835
:104D300021309A4211D30968494543D094F835206F
:104D400091F821309A4208D3096849453AD094F83D
:104D5000352091F821309A42DBD24A6804F11403DD
:104D60001360A2614B606161012D14DA1EE000BF87
:104D7000FBF7DCF96FF0010001B0BDE8F08300BF84
:104D8000B06904F114010160A061B161C4F814902C
:104D90004046012D0ADB04F144056A4628460021FD
:104DA00000F0F0FC284600F053FD4046FBF7BEF94A
:104DB000FFF7C4FE206B002808BF002001B0BDE84B
:104DC000F08300BFB16904F114020A60A161B2610D
:104DD000C4F81490012DDEDAE8E7000080B582B057
:104DE0000AA0FFF797FC0CA0FFF794FC0FF24C0C05
:104DF00015A0032101220523CDF800C0FFF78AFC8E
:104E000019A002B0BDE88040FFF784BC0A205C20F6
:104E10007C202F0A000000002D205254202D20203D
:104E2000202020546872656164204F70657261743F
:104E3000696E672053797374656D0A004465632059
:104E40003138203230323400202F207C205C20206A
:104E500020202025642E25642E2564206275696C2F
:104E6000642025730A0000002032303036202D20C7
:104E70003230323020436F70797269676874206213
:104E8000792072742D746872656164207465616D37
:104E90000A000000014600BF0A7862B14A784AB1B0
:104EA0008A785AB1CA780431002AF5D10139081A32
:104EB000704700BF0131081A704700BF0231081A5D
:104EC00070470000002A08BF7047F0B581B0C2F1FA
:104ED000000C00238646CC5CC454FCB10CEB0305EB
:104EE0006C1C16D2CE187778C4186770E7B1AF1C67
:104EF0000FD0B778A770EFB103350AD0F578E57019
:104F0000F5B104330EF1040E1CEB0304A2F104020C
:104F1000E1D101B0BDE8F040704700BF0EF10103E0
:104F2000511E11D1F5E700BF0EF10203013A511EE7
:104F30000AD1EEE70EF10303023A511E04D1E8E76D
:104F4000033A231D511EE4D004461846FBF76BF9C3
:104F5000204601B0BDE8F0407047000010B521F0D8
:104F600003030A46192B014630D3C81C20F0030066
:104F7000A3F11804844229D3191A40F23014A1F184
:104F80001802C2F20004C4E900204FF4F5520C39B3
:104F90004FF0000CC0E90021C0F808C041F6A06045
:104FA000C0F201001A4642F80C0D43F8081C2068B4
:104FB000A2600C3043F8040C04F1180006A1012291
:104FC0000023FFF74BFE6068E06010BD04A0BDE861
:104FD0001040FFF79FBB00BF6865617000000000D4
:104FE0006D656D20696E69742C206572726F722018
:104FF000626567696E2061646472657373203078DE
:1050000025782C20616E6420656E64206164647272
:1050100065737320307825780A00000010B543F2DC
:105020000032C2F2000202F11800C2E9060002F1E9
:10503000200002F1080302F11001C2E9080002F1A8
:105040004000C2E90233C2E9041102F1280102F171
:10505000300302F13804C2E9100002F16000C2E935
:105060000A11C2E90C33C2E90E4402F1480102F10F
:10507000500302F15804C2E9180002F18000C2E9AD
:105080001211C2E91433C2E9164402F1680102F1B7
:10509000700302F17804C2E9200002F1A000C2E925
:1050A0001A11C2E91C33C2E91E4402F1880102F15F
:1050B000900302F19804C2E9280002F1C00040F216
:1050C000681EC2E92211C2E92433C2E9264402F172
:1050D000A80102F1B00302F1B804C2E9300002F104
:1050E000E000C2F2000EC2E92A11C2E92C33C2E983
:1050F0002E4402F1C80102F1D00302F1D804C2E942
:1051000038001F204FF0000CC2E93211C2E93433DD
:10511000C2E9364402F1E80102F1F00302F1F804B9
:105120008EF800000EF10C00AEF802C0C2E90022B9
:10513000C2E93A11C2E93C33C2E93E44CEE901CCAE
:10514000CEE9030010BD000010B540F26814C2F2B1
:105150000004A068FFF700F843F20031C2F200013A
:1051600001EBC00050F8080CA0F114010830616098
:10517000BDE81040FBF70BB840F27C10C2F2000013
:10518000011DC0E901117047704700002DE9F0438F
:1051900083B00F46014601201D461646FFF72AFC44
:1051A00000283DD004462846FFF7D6FA00283DD017
:1051B00004F11401DDE90A98C4E9051123212A4606
:1051C000C4E90876C4E90A05FFF78CFB04F1200363
:1051D0000FCB1A4445F24923043AC0F60003FFF707
:1051E0005FFA45F25952E061002704F14400C0F62D
:1051F00000022146234684F8369084F83590C4E9AD
:105200000E78C4F84080276384F83470C4E91C77B2
:105210000097019700F002FB204603B0BDE8F08341
:105220000024204603B0BDE8F08300BF2046FFF70E
:1052300019FC0024204603B0BDE8F08380B500F0DF
:10524000FFF8002080BD000070B540F26C10C2F283
:1052500000000568FAF766FF0446FAF763FF296F56
:1052600019B10646284688473046FAF75FFF2846B8
:10527000FFF7CAFC042085F8340005F1440000F073
:10528000B5FA2846FFF756FC012809D12846FFF752
:10529000FFFBFFF753FC2046BDE87040FAF746BF1E
:1052A00040F27410C2F20000016845F8141F4D600E
:1052B00005606860FFF742FC2046BDE87040FAF7E1
:1052C00035BF000040F27416C2F2000603E000BFD2
:1052D0002046FAF72BFFFAF725FF31680446B14262
:1052E000F6D0D1E900234869A1F1140553601A6092
:1052F000C1E90011FFF70CF82846FFF7B3FBE7E719
:1053000010B584B043F200424FF48071C2F2000243
:1053100040F278541F20CDE90021C2F2000445F28A
:10532000C5224FF0200C029007A1C0F600022046D3
:105330000023CDF80CC000F00BF8204604B0BDE807
:10534000104000F0B9B800BF7469646C65000000DB
:105350002DE9F04782B00DF1280A16460A46DDF81D
:1053600034909AE8800501211D460446FFF7A2FB10
:1053700004F11400C4E90500384623214246C4E97B
:105380000865C4E90A78FFF7ADFA04F120030FCBF2
:105390001A4445F24923043AC0F60003FFF780F9A6
:1053A00045F25952E061002704F14400C0F60002C2
:1053B0002146234684F836A084F835A0C4E90E7946
:1053C000C4F84090276384F83470C4E91C770097D0
:1053D000019700F023FA002002B0BDE8F08700003A
:1053E00080B500F001F900F02BF8002080BD00002E
:1053F00090F8341001F00F0102291CBF4FF0FF306C
:105400007047B0B50446FAF78DFE2246A16952F8FE
:10541000143F054604F1440059600B60A26112601C
:1054200000F07CFA2846FAF781FE2046FFF7C2FB1F
:105430000020B0BD40F26C10C2F20000006870475E
:10544000F0B581B00090FAF76DFE40F26C11C2F237
:1054500000010C68054694F8341001F00F01012991
:1054600013D1FAF75FFE06462046FFF7CDFB94F80E
:10547000340000F0F000023084F8340004F14400FD
:1054800000F04CFA3046FAF751FE04F144066A4641
:1054900030460021002700F075F9304600F0D8F9B9
:1054A0002846FAF743FEFFF749FB206B023008BF9E
:1054B0002763002001B0F0BDB0B5044690F8360077
:1054C000012184F8350001FA00F0A063022084F87D
:1054D0003400FAF727FE2246A16952F8143F054628
:1054E00004F1440059600B60A261126000F016FAEA
:1054F0002846FAF71BFE2046FFF75CFB40F26C10D3
:10550000C2F200000068002818BFFFF717FB002058
:10551000B0BD0000B0B5044690F8340000F00F00B4
:1055200001281CBF4FF0FF30B0BDFAF7FBFD054668
:105530002046FFF769FB94F8340000F0F0000230D9
:1055400084F8340004F1440000F0E8F92846FAF742
:10555000EDFD0020B0BD000080B50346826953F820
:10556000141F6FF0010CC0F830C04A6011608361F5
:105570001B60FFF71FFBBDE88040FFF7DFBA0000AC
:1055800010B5FAF7CFFD40F26C11C2F200010968C4
:1055900091F8342002F00F02012A21D10A4652F874
:1055A00014CF53689C451BD091F835E043F200348A
:1055B000C2F2000404EBCE04CCF804308A61D4F8C3
:1055C00004E0C3F800C0CEF80020C1F818E0626023
:1055D0004C61FAF7ABFDFFF7B1FA002010BD00BF38
:1055E000FAF7A4FD002010BD40EAE070704700000B
:1055F00043F20450C2F200000068704780B543F2E5
:105600000450C2F20000016801310160FFF712FF8F
:10561000016C0139016403D0BDE8804000F008B896
:10562000C16B0164FFF7ACFFBDE88040AFF30080C1
:105630002DE9F04F83B00DF10408CDE90188FFF7A3
:10564000D7FF0546FAF76EFD40F27C14C2F2000463
:10565000214651F8046F00908E4200F08D804FF685
:10566000FE79C7F6FF796FF0004B16E00F68084629
:1056700021687E600131216016F80B1C37600660DE
:10568000706041F0010006F80B0C5046FAF74EFD31
:10569000204650F8046F86426ED07069281A48453B
:1056A0006AD8D6E9002116F80B0C51600A60810710
:1056B00036605CBF00F0FC0006F80B0C01984660F9
:1056C0003060D6E902100196C6F804808847FFF7DB
:1056D0008FFF019905464145DAD0D6E900104860B0
:1056E000016016F80B0C366000F0030103297660A8
:1056F000CED100F0FE0006F80B0CFAF713FD82463F
:1057000016F80B0CD6E9002100F0FE0051600A608B
:105710003660766006F80B0CFFF76AFF3169231DCF
:105720000A18A16872618B42A0D018684769BF1A35
:1057300001D05F451AD3884298D003685F69BF1AC9
:1057400001D05F4516D38B4290D018684769BF1AC5
:1057500001D05F450AD388423FF488AF03685F6990
:10576000BF1AE0D04F451F46DDD881E707461846EF
:105770007EE700BF1F467BE70098FAF7D7FC03B02F
:10578000BDE8F08F70B514460E460546FAF7CAFC20
:10579000042E07D8DFE806F00424141C0A0000BF1A
:1057A00021686962FAF7C2FC002070BD697AC907F6
:1057B0000CBF002101212160FAF7B8FC002070BD68
:1057C000697A01F0FD016972FAF7B0FC002070BD42
:1057D000697A41F002016972FAF7A8FC002070BDF5
:1057E000696A2160FAF7A2FC002070BD10B504467A
:1057F000FAF798FC2246A16952F8143F59600B60F1
:10580000617AA26101F0FE0112606172FAF78EFC0A
:105810002046FFF73DF9002010BD00002DE9F041C2
:1058200015460A46DDE906870A211C460646FFF7AB
:1058300041F907F0FE007072002006F11401C6E97C
:105840000511C6E90754C6E90980BDE8F0810000EA
:105850002DE9F0410446FAF765FC264656F8141F78
:10586000804616F80B0C726800F0FE004A6011606A
:105870003660766006F80B0CFFF7BAFE40F27C1E2D
:105880003169C2F2000EDEF808304FF6FE7C0A18CD
:105890000EF104076FF00045C7F6FF7C72619F426E
:1058A00020D039684869801A01D0A8421ED3994295
:1058B00018D00F687869801A01D0A8421AD39F4285
:1058C00010D039684869801A01D0A8420ED3994295
:1058D00008D00F687869801AE1D060453846DED874
:1058E00009E000BF1868194605E000BF08463946C0
:1058F00001E000BF384646606061607ADEF8002053
:1059000040F00100013260724046CEF800200E6087
:10591000A161FAF70BFC0020BDE8F08110B5044648
:10592000407AC00704BF4FF0FF3010BDFAF7FAFB12
:1059300054F8141F62684A60116014F80B1C24604C
:1059400001F0FE01646004F80B1CFAF7EFFB002085
:1059500010BD0000002070470020704700207047F5
:105960000020704780B540F2C81043F60001C2F233
:105970000000C4F2010100234FF00C0C4FF4E1329F
:1059800080E80E00C0E90333C0E905C3C361FDF739
:10599000B7F808B1FEE700BF002080BD7CB50C0061
:1059A0001D461646014601D0601E00E00020CDE9EC
:1059B0000010064B6A462946304600F0DBF8002C02
:1059C00002D0009A002111707CBD0000A362000883
:1059D00002E008C8121F08C1002AFAD170477047B8
:1059E000002001E001C1121F002AFBD17047000016
:1059F0002DE9FF5F82B00021DDE90430020DDDF802
:105A000040B0034318D044F61050A2F2FF32424394
:105A10001514119801281FD0A5EB0B00401C5FEA5C
:105A2000000A4FF000064E4FDFF83891B04650465E
:105A300015D5CAF1000413E0119801244AA30128E6
:105A400001D16FEA0B010298119AC0E90031C0E957
:105A5000024206B0BDE8F09FCBF10000DFE704464C
:105A60000021404A491842EB0450CDE9001012E0F1
:105A7000E00707D032463B4640464946FAF71CFC51
:105A80008046894632463B4610461946FAF714FCD2
:105A900006460F466410002CEAD1DDE90401DDE979
:105AA0000023BAF1000F06DAFAF706FC42464B462D
:105AB000FAF702FC05E0FAF734FE42464B46FAF7E5
:105AC00030FE04460E460022284BFAF7B1FE03D8FA
:105AD0004FF0FF30014607E00022254B20463146BB
